:100000000C9419010C9436010C9436010C943601B1
:100010000C9436010C9436010C9436010C94360184
:100020000C9436010C9436010C94A31B0C94771C91
:100030000C94CC160C9436010C9436010C943601B9
:100040000C9436010C9436010C9436010C94360154
:100050000C9436010C9453170C9436010C94360111
:100060000C9436010C9436010C9436010C94360134
:100070000C9436010C9436010C9436010C94360124
:100080000C9436010C9436010C9436010C94360114
:100090000C9436010C9436010C9436010C94360104
:1000A0000C9436010C9436010C9436011E001F008E
:1000B0002000210022002300240025002600270024
:1000C000080332007800350000001A035300740062
:1000D0007200650061006D0020004300680065004B
:1000E0006100700000000403090409023B000201E2
:1000F00000A0FA0904000001030101000921110117
:1001000000012244000705810308000109040100E1
:10011000010300000009211101000122B6000705BA
:100120008203200001120100020000000863731521
:100130001201000102000105010902A10185020965
:1001400001A1000509190129081500250195087567
:100150000181020501093009311581257F9502755C
:1001600008810609381581257F95017508810605E6
:100170000C0A38021581257F950175088106C0C0DB
:1001800005010980A101850319012AB7001501267F
:10019000B700950175108100C0050C0901A101850A
:1001A0000419012AA002150126A0029501751081EB
:1001B00000C005010906A1018506050719E029E728
:1001C000150025019508750181020507190029EF21
:1001D0001500250195F07501810205081901290511
:1001E000950575019102950175039101C0050109FD
:1001F00006A101050719E029E715002501950875F5
:100200000181029501750881010507190029FF1573
:100210000026FF00950675088100050819012905CB
:100220001500250195057501910295017503910150
:10023000C00011241FBECFEFDAE0DEBFCDBF11E05A
:10024000A0E0B1E0E8E5FEE302C005900D92A4391C
:10025000B107D9F722E0A4E9B1E001C01D92A838A6
:10026000B207E1F70E9469100C94EB1E0C94000099
:10027000811112C0623080F4453070F4E42FF0E058
:1002800085E0689FE00DF11D1124EE0FFF1FE4557E
:10029000FF4F85919491089581E090E008950E9428
:1002A0003801089581E008950E945201089581E087
:1002B00008950E94520108950E94590108950895D9
:1002C0000E945F010895A6E0B0E0E9E6F1E00C9439
:1002D000471E49835A839E8330919B0189819A816D
:1002E00031111AC03E81332399F0222389F00E94F4
:1002F0006707182F682F89819A810E9443076981B7
:100300007A81812F0E946D0E2696E3E00C94631E85
:100310000E945507182FF3CF0E94670769817A81E1
:10032000F1CFFC01262F408151816281738184814C
:1003300095810E9463010895CF93DF93EC0161E002
:100340000E949101BE010E945401DF91CF91089556
:10035000CF93DF93EC0160E00E949101BE010E9407
:100360006001DF91CF91089581E008950E94B4016A
:100370000895CF93C82F0E9418068C2F0E94B601B3
:100380002FEF84E39CE0215080409040E1F700C0D3
:100390000000CF91089581E00E94B9010E94771773
:1003A000089580E00E94B9010E94881708950F9374
:1003B0001F93CF93DF938C0161E00E949101EC01C8
:1003C000B8010E945C01811106C080E0DF91CF91ED
:1003D0001F910F910895B801CE010E949C148823AB
:1003E000A1F3B801CE010E94C610882371F3B801B1
:1003F000CE010E949C10882341F3F8018581882357
:1004000061F0C330FCE7DF07E9F058F4C115ECE711
:10041000DE07A9F0C130DC47B9F0C8010E945701DE
:10042000D5CFCB358CE7D807A9F0CC35ECE7DE0784
:1004300071F0CA35DC4789F70E94AE0BEECF0E94FF
:10044000CB01C3CF0E94B60B0E94D101BECF0E9448
:10045000A40BE3CF0E94B20BE0CF0E94A8160E942B
:10046000540208950E9458020E94AD1608950895FE
:1004700081E008950895CF93DF93D82F0E9438022A
:10048000C82F882319F08D2F0E943A028C2FDF91FC
:10049000CF9108950895CF93C82F0E9437028C2FD3
:1004A0000E943B02CF91089580E00E944B02089584
:1004B0000E94E5140E944B020895CF930E94E51418
:1004C000C82F809196018C1779F0C09396010E94F5
:1004D00038176093970170939801809399019093D6
:1004E0009A018C2F0E944B02CF910895ADE0B0E0AD
:1004F000ECE7F2E00C94481E488759876A877B87AF
:100500008C879D8791110E94B40A1F8286E0FE01AC
:100510003896DE01119601900D928A95E1F78D8152
:1005200081110DC029813A814B815C816D817E8171
:100530008F810E94FE092D96E2E00C94641ECE018C
:1005400001960E949C018111EDCFF5CFFC01248121
:10055000213021F4808191810E94990708956623BA
:1005600029F00E9427120E940C1308950E949312F2
:10057000FACFCF93C82F8823C9F08238C9F40E94DC
:10058000F21481FD13C089E30E9411160E94480BEA
:100590002FEF87EE93E0215080409040E1F700C0BC
:1005A000000089E30E9428160E94480BCF9108950D
:1005B0008338A1F40E94F21480FDF8CF83E50E94F5
:1005C00011160E94480B2FEF81EE94E021508040DD
:1005D0009040E1F700C0000083E5E4CF8438A1F447
:1005E0000E94F21482FDE2CF87E40E9411160E945D
:1005F000480B2FEF81EE94E0215080409040E1F7CE
:1006000000C0000087E4CECF8CEF8C0F813A70F4ED
:100610008C2F0E948815882329F08C2F0E94281681
:100620000E94480B8C2F0E941116BECF80E28C0FC7
:10063000883048F4C77081E001C0880FCA95EAF796
:100640000E94970AB1CFEBE5EC0FE33040F4F0E005
:10065000E35BFE4F808190E00E941C15A7CFE8E588
:10066000EC0FEB3150F4F0E0EE0FFF1FE95EFE4FB0
:10067000808191810E94411599CF83E38C0F833152
:1006800008F094CF61E08C2F0E94AF028FCF8823B7
:1006900009F456C0823879F40E94F21481FF50C0E8
:1006A00089E30E9411160E94480B89E30E942816D4
:1006B0000E94480B0895833859F40E94F21480FF79
:1006C0003FC083E50E9411160E94480B83E5EECFE0
:1006D000843859F40E94F21482FF32C087E40E94E9
:1006E00011160E94480B87E4E1CF9CEF980F913AD6
:1006F000E8F290E2980F983050F4877091E001C0D2
:10070000990F8A95EAF7892F0E949D0AD1CF9BE520
:10071000980F933028F490E080E00E941C15089513
:1007200098E5980F9B3128F490E080E00E944115F5
:10073000089593E3980F933118F460E00E94AF029C
:1007400008951F93CF93DF93182FEB010E94B902F6
:10075000209739F4812F0E944703DF91CF911F9199
:1007600008958FE99FE00197F1F700C000002197FD
:10077000EFCF70E060E0893311F460E570E00E9433
:10078000A1030895882321F00E94970A0E94480B34
:100790000895882321F00E949D0A0E94480B089525
:1007A000B0E0A0E0E6EDF3E00C94411E6C01D62F22
:1007B000C72FFC011581068102950F700E948D0ADA
:1007C000E82E8823F9F0E12E1123E1F08C2F807FB1
:1007D000803461F080E28D0F883008F18C2F807EAC
:1007E000803221F4D230D8F00023C9F08091720217
:1007F00082FF15C082E00E94780B0E948D0A91E072
:10080000E82EE926BC2EB2949FE0B922FBE0FB154E
:10081000B8F1EB2DF0E0E351F14E0C94321EE12CD7
:10082000F1CF0C2F0F70C07F11F00295007F1123C4
:1008300099F0002359F080E28D0F883010F0D1112B
:1008400007C0802F0E94970A0E94480B8D2F5AC024
:10085000802F0E94A70AF8CF8D2F0E944703002304
:1008600079F080E28D0F883010F0D11104C0802F14
:100870000E949D0A03C0802F0E94AD0A0E94480B6F
:10088000EB2DE850FF0B349720F40E94E5140E94F2
:100890004B02EE2089F00E94890A80FD0DC0F6010E
:1008A00015820E94830A0E94A106C6010E94DF05EC
:1008B0000E94830A0E94B106CDB7DEB7E9E00C942E
:1008C0005D1E2C2F2F70F22EC07FC03219F0F294D3
:1008D00080EFF822DD2341F0D130D1F1112309F46A
:1008E00044C00023F1F0B2CF8091720282FD15C0A6
:1008F000112359F0FF2029F08F2D0E94970A0E94A2
:10090000480B80E00E94B902BBCF80E00E94470301
:10091000FF2009F4B5CF8F2DABCF112369F0011162
:1009200004C08F2D0E94C203ABCF013009F0A8CFC5
:100930008F2D0E94CB0AA4CF0111A2CF8F2D0E9430
:10094000C9038F2D0E94D70A8F2D0E94BB0A98CF12
:10095000112321F0063008F093CFE3CF053008F0E3
:100960008FCF8F2D0E94C9038BCF0023D1F3D933B2
:1009700049F43FEF87EE93E0315080409040E1F73B
:1009800000C000008D2F0E9447037ACF8C2F8695E0
:100990008695837069F0813009F072CF8D2F9C2F7E
:1009A0009370111102C080E090E00E94411568CF61
:1009B0008D2F9C2F9370111102C080E090E00E9457
:1009C0001C155ECF612F8D2F0E94AF0259CF8C2F47
:1009D0008370A1F5111154CF4D2F42954695477064
:1009E000440F440F2D2F2F7030E0042E02C0220F31
:1009F000331F0A94E2F790E080E0D4FF09C08FE053
:100A000090E002C0880F991F4A95E2F78095909573
:100A1000C695C695C370822B932BC23049F058F40B
:100A2000C13019F00E9471062BCF0E94680628CFB2
:100A30000E947A0625CF0E94650622CF8695112353
:100A400011F08C2F8170882309F41ACF4D2F429515
:100A500046954770440F440F2D2F2F7030E0042E21
:100A600002C0220F331F0A94E2F790E080E0D4FF27
:100A700009C08FE090E002C0880F991F4A95E2F705
:100A800080959095C695C695C370822B932BC230E6
:100A900049F058F4C13019F00E94DC06F1CE0E94F2
:100AA000D306EECE0E94E506EBCE0E948906E8CE84
:100AB000CF70112329F08C2F0E94A1068D2F32CFE9
:100AC0008D2F0E94C9038C2F0E94B106D9CED23F30
:100AD00041F160F4D03FB9F0D13F81F0112309F426
:100AE00046C00111B3CE8C2F8F711FC0D33F01F1CF
:100AF000D43FA1F78091720282FD24C08C2F8F71A8
:100B0000112311F312C0112341F0053008F0B8CEC3
:100B10008C2F8F710E94C306B3CE063008F0B0CE82
:100B2000F7CF8C2F8F711111CFCF0E94A106A8CEC5
:100B3000112329F08C2F8F710E949506A1CE0E945F
:100B400090069ECE112349F0CF718C2F0E94A106F2
:100B500063E08C2F0E945A0B93CE81E00E94780BA9
:100B6000023008F48DCE82E00E94780B89CE0023FB
:100B700059F0D93309F006CFEFEFF7EE23E0E1505B
:100B8000F0402040E1F7FCCE8C2F8F719DCF0F936A
:100B90001F93CF93DF93EC01688179818D810E944F
:100BA000A4078C010E94EE060E946406B801CE01E3
:100BB0000E94D003DF91CF911F910F910895CF93A1
:100BC000DF93EC018C81882399F0CE010E94D7013C
:100BD000811111C00E948D0A882351F08D818823D4
:100BE00039F08091720282FF03C082E00E94780B8C
:100BF000DF91CF910895CE010E94C705CE010E94DA
:100C0000A801F6CF90E080E00E941C1590E080E003
:100C10000E9441150E94B40A0E94480B0E942813AA
:100C20000E940C1308950E943F160E940206089528
:100C30000E94A40A0E941306089592959F70963010
:100C400091F058F4925F9F70923058F4803F19F001
:100C500030F4883E30F481E008959A5FF4CF843F09
:100C6000D1F380E00895883EB0F3813FD1F7F3CF10
:100C7000FC012481222339F0808191810E9499070F
:100C80000E941D06089580E00895A6E0B0E0EBE420
:100C9000F6E00C94481E2696E2E00C94641EA7E051
:100CA000B0E0E5E5F6E00C94481E2796E2E00C94EF
:100CB000641E08950E94590608950E945A06909352
:100CC000A7018093A601089508950E945D060895E6
:100CD0002091A6013091A701822B932B0E945D06E3
:100CE00008952091A6013091A701822393230E94A9
:100CF0005D0608952091A6013091A70182279327D0
:100D00000E945D0608950E94590608950E94830678
:100D100008950E9486069093A5018093A4010895EA
:100D200090E080E00E948906089521E030E0A9016A
:100D300002C0440F551F8A95E2F7CA010E94890636
:100D4000089521E030E002C0220F331F8A95E2F7B8
:100D50008091A4019091A501822B932B0E9489067A
:100D6000089521E030E002C0220F331F8A95E2F798
:100D7000209530958091A4019091A5018223932321
:100D80000E948906089521E030E002C0220F331F3F
:100D90008A95E2F78091A4019091A501822793277B
:100DA0000E94890608952091A4013091A501822B0B
:100DB000932B0E94890608952091A4013091A501EA
:100DC000822393230E94890608952091A4013091E3
:100DD000A501822793270E94890608950895262F4A
:100DE000277091E001C0990F2A95EAF723E07695E4
:100DF00067952A95E1F7660F771F660F771FFA014F
:100E0000E60FF71F50E040E0682F70E08191DF01AE
:100E100011979B01042E02C0369527950A94E2F79C
:100E2000217021952827292328272C934F5F5F4F76
:100E30004430510559F70895A82FA77023E09695DF
:100E400087952A95E1F7880F991F880F991FFB0155
:100E5000E80FF91F50E040E080E0219130E00A2ED9
:100E600002C0369527950A94E2F721703327042EA5
:100E700001C0220F0A94EAF7822B4F5F5F4F443084
:100E8000510559F70895262F923070F4853060F49B
:100E9000682F70E085E0989F600D711D11244CE96A
:100EA00051E0822F0E94EF060895292F923068F4B6
:100EB000853058F490E06CE971E035E0239F800DB7
:100EC000911D11240E941C07089580E00895B0E050
:100ED000A0E0EDE6F7E00C94411E7C010091A40136
:100EE0001091A5018091A6019091A701082B192BC3
:100EF000CFE0D0E0CC24C394D12CBC2EC6010C2E64
:100F000002C0880F991F0A94E2F780239123892B4E
:100F100049F4219790F7B12C8B2DCDB7DEB7E9E0DE
:100F20000C945D1EB7018C2F0E94790E019789F3F6
:100F3000F3CFCF93DF93EC010E946707BE010E94BD
:100F4000790EDF91CF9108951F93CF93DF93EB013B
:100F500090919B01992339F0CB010E949907DF9171
:100F6000CF911F910895882369F0CB010E946707F4
:100F7000182F682FCE010E944307BE01812F0E94C7
:100F8000790EEDCFCB010E945507182FF6CF1F9396
:100F9000CF93DF93C091A80117E08091A9018C1332
:100FA00004C0DF91CF911F910895D0E01C9FF00104
:100FB0001D9FF00D1124E655FE4F208131814281A5
:100FC00053816481758186810E944F062196C77086
:100FD000E4CF2091E2013091E3014091E40150918E
:100FE000E5016091E6017091E7018091E8010E94BE
:100FF0004F060895CF93DF938091E801807F09F039
:101000004DC08091E701882309F448C0E091A80110
:101010005091A901C091E301D091E2016091E401F6
:101020007091E50147E05E17C9F18E2F90E0E49FD3
:10103000F0011124E655FE4F2481222391F1489FAF
:10104000F001499FF00D1124DF01A655BE4F119606
:101050002C9111972C1325C02C912D1322C015967D
:101060002C91159721111DC012962D913C91261B94
:10107000370B283C3105A8F48091E8018F7080611E
:101080008093E801E055FE4F80818F7080618083FE
:1010900082EE91E00E94DF050E94C707DF91CF91A9
:1010A0000895FC013196E770BECF482F2091A8012A
:1010B0009091A90157E0291302C080E0089530E023
:1010C000529FF001539FF00D1124E655FE4F818190
:1010D000681306C08081481303C085818111EECF5B
:1010E0002F5F3F4F2770E7CFA4E1B0E0EAE7F8E0D9
:1010F0000C943E1E8C0186E0F801DE011F960190E3
:101100000D928A95E1F7F8018481E58092EEA92E8F
:1011100091E0B92E9091E60191111FC08823D1F082
:10112000EE20A9F0C8010E943806F82E882379F035
:1011300087E0F801D50101900D928A95E1F7C5018C
:101140000E94A6020E94FA070E94E9075FC0C80138
:101150000E94DF05FF24F39459C0C080D1808280B3
:101160009380F090E7012091E4013091E501A40122
:10117000421B530BFF2009F4F9C0483C510508F00D
:10118000A7C0882309F442C09091E3018091E8014F
:10119000282F207F09F05CC09D1116C09091E201BC
:1011A000C91212C0E1104EC08F7080618093E801B7
:1011B0000E94E90782EE91E00E94DF058091E8013C
:1011C000F8018683F12C22C0E1103CC06D2D8C2DDE
:1011D0000E9455086D2D8C2D0E945508E82E811116
:1011E000F1CFCF86D88A8F8598890E949907292FB9
:1011F00022952F70243078F49F702230A8F0992324
:10120000B9F0F8019681907F99F4FE2C8F2D6496A9
:10121000ECE00C945A1E2A5F2F70223068F0C8014F
:101220000E94DF05EF2CF1CF992311F0882369F399
:10123000805E883050F3F3CF803F38F3815F833096
:1012400070F7E3CF8091E80181608093E801BACF25
:101250009D1113C09091E201C9120FC0E1100DC0A1
:101260008683C8010E94DF0587E0F801A2EEB1E0A5
:1012700001900D928A95E1F767CFC8010E94380668
:10128000882309F464CFEE2009F461CF8091E8014E
:10129000803288F02091E2013091E301398728877C
:1012A0009B868A869091E6019C871D868E87CE015B
:1012B00008960E94DF0587E0F801A2EEB1E00190F8
:1012C0000D928A95E1F70E94FA070E94E90742CF42
:1012D0009091E801292F207FA1F4682D9A8A898AAC
:1012E000A6017A899E2D0E94450682EE91E00E9419
:1012F000DF0587E0F50111928A95E9F70E94E90779
:1013000061CF882309F482CF8091E3018D1110C051
:101310008091E201C8120CC0E1100AC09683C80196
:101320000E94DF0587E0F50111928A95E9F76ECFFB
:10133000C8010E943806882309F409CFEE2009F479
:1013400006CF8091E801803208F4B5CF2091E20108
:101350003091E3013A8329839C828B829091E6014C
:101360009D831E828F83CE010196A3CF483C5105F9
:10137000B8F5882309F4EECEFE2CEE2009F4E7CE72
:101380008091E3018D111EC08091E201C8121AC044
:101390008091E80180FD0DC0982F907F51F08683E9
:1013A000903F09F45ECF982F907F905F8F70892BCC
:1013B00057CF87E0F801A2EEB1E001900D928A9537
:1013C000E1F724CFC8010E943806811174CF8091C3
:1013D000E80181608093E801C8010E94DF0516CF13
:1013E000682D9A8A898AA6017A899E2D0E944506CF
:1013F00087E0F50111928A95E9F7A6CEAEE0B0E05C
:10140000E4E0FAE00C94471E288739874A875B8717
:101410006C877D878E87CE0108960E94740888238A
:10142000B1F06C85662341F0288539854A855B8556
:101430007D858E850E944F0617E08091A8019091CE
:10144000A90189133DC02E96E3E00C94631E87E04A
:10145000FE013896DE01119601900D928A95E1F712
:101460008C85882349F32091A90130E0C9010196B8
:10147000877099274091A8014817190699F097E0BD
:10148000929FD001939FB00D1124A655BE4FFE012F
:10149000319601900D929A95E1F78093A9010E94EF
:1014A000C707CACF0E9418061092A9011092A8017E
:1014B00087E0E2EEF1E0DF011D928A95E9F7BCCF0B
:1014C000819FC001112486559E4F0E947408882375
:1014D00009F4B9CFE091A8011E9FF0011124E6554F
:1014E000FE4F2081318142815381648175818681E3
:1014F0000E944F068091A80190E00196877099277D
:101500008093A8019ACF8091110286958695869541
:10151000089580911102877008959091110297703B
:1015200081E009F480E0089580913D020895909152
:101530003D02892B80933D020895809590913D0254
:10154000982390933D02089510923D020895909142
:101550003C02892B80933C020895809590913C0237
:10156000982390933C02089510923C0208950895A8
:101570000E94B70A089590911202292F282331F072
:1015800080958923809312020E94B80A08950895D5
:101590000E94C70A089590911302292F2823281723
:1015A00029F0982B909313020E94C80A08959091F5
:1015B0001302292F282331F0809589238093130269
:1015C0000E94C80A089580911302882329F010927E
:1015D000130280E00E94C80A0895CF93C0913D0293
:1015E00080913C02C82B80911302882331F0C82BD4
:1015F0000E94661581110E94E30A8C2FCF910895F5
:10160000CF93DF93C0910201D09103010E94ED0AB4
:101610008883C0910201D091030148E050E069E065
:1016200072E0CE010E94831E892B59F088E0FE01F2
:10163000A9E0B2E001900D928A95E1F7CE010E94F7
:10164000F514DF91CF910895CF93DF93C0910001FE
:10165000D09101010E94ED0A8983C0910001D091CF
:10166000010140E250E069EE71E0CE010E94831E6C
:10167000892B59F080E2FE01A9EEB1E001900D92B4
:101680008A95E1F7CE010E940015DF91CF91089570
:1016900080911601882339F08091710287FF03C081
:1016A0000E94240B08950E94000B089508950E9443
:1016B000560B08959091720292FF11C098E0899F95
:1016C00090011124622B609311020E94A106809167
:1016D00011028695869586950E94570B08950E9463
:1016E000A10608951092110280E00E94570B089500
:1016F000909111028095892380931102282F2770E1
:1017000069F4891759F09091720292FF07C086958B
:10171000869586950E94B1060E94720B089590915D
:10172000720292FB222720F9281769F080FB92F9B8
:101730009093720280917102909172020E94D70B75
:1017400082E00E94780B08958091720282FB8827C4
:1017500080F991E089270E948F0B089581E00E9413
:101760008F0B089580E00E948F0B08956FEF7FEF3D
:1017700090E080E00E94D51E089590E080E00E94F5
:10178000A11E21E0863E9E4F09F020E0822F0895A1
:1017900082E090E00E94991E089583E090E00E940C
:1017A000991E089584E090E00E94A11E0895BC0156
:1017B00084E090E00E94D51E0895AB01BC018FE04B
:1017C00090E00E94C91E0895AB01BC0183E190E046
:1017D0000E94C91E089560E070E0CB010E94E40BF6
:1017E000089560E070E0CB010E94DD0B0E94EB0BDE
:1017F0000895A8E0B0E0EFEFFBE00C94481E66EE21
:101800007EEF90E080E00E94D51E60E082E090E0F4
:101810000E94B71E81E090E09093A7018093A601FB
:1018200061E083E090E00E94B71E60E074E184E034
:1018300090E00E94D51E60E086E090E00E94B71E16
:1018400060E087E090E00E94B71E40E050E0BA01FF
:1018500088E090E00E94C91E60E084E290E00E946F
:10186000B71E60E087E190E00E94B71E60E08CE068
:1018700090E00E94B71E60E08DE090E00E94B71EED
:1018800019821A821B821C821D821E821F82188668
:1018900048E050E068E170E0CE0101960E94A71E8A
:1018A00040E050E0BA0180E290E00E94C91E0E9430
:1018B000F10B2896E2E00C94641E0E94F90B089547
:1018C000682F8EE090E00E94B71E0895A6E0B0E079
:1018D000ECE6FCE00C94461E0E942C178C018091D3
:1018E0003E0290913F028017910781F019821A827F
:1018F0000E942C17682F49815A81792F80E090E04F
:101900000E94760210933F0200933E022696E4E086
:101910000C94621E0E94381760934602709347022F
:10192000809348029093490260934202709343026D
:1019300080934402909345020895089508950E946B
:101940009D0C089508950E94A20C08958FE69FE0D3
:101950000E9476100E949E0C0E949F0C089581E0C8
:1019600008950E94AF0C08950E94AF0C0895089549
:1019700008950E94B70C0E94B80C08950E94BD0BF8
:10198000811102C00E945D0C0E94C80B80934A0224
:101990000E94D20B90937202809371020E94991060
:1019A0000E94CD0B90E00E9465068091A401909169
:1019B000A5010E94860608950E9423170E94DB0F4E
:1019C0000E94BE0C0E944A020E94A30C0895A6E049
:1019D000B0E0EDEEFCE00C943F1E0E94B10C8111D2
:1019E0000AC00E94660C0E944A130E945D0226965D
:1019F000EBE00C945B1E0E94EB0F1091400280E024
:101A00000E94790F181307C01091410281E00E94D3
:101A1000790F181731F380914A0281FD0E947F0FE0
:101A20000E94B40CC82E80E4A82E82E0B82E10E0EC
:101A300099249394812F0E94790F082FF5018191A9
:101A40005F01081729F1F12CEE24E394D02ED8265B
:101A50008D2D8E21A9F0CC2099F0F9821A830E9455
:101A60002C179C838B839D8291E0802F8E2109F41B
:101A700090E049815A816B817C818D810E94760240
:101A8000F394EE0CF5E0FF12E3CFF50131970083FC
:101A9000113019F40E948A0CA6CF11E0CBCF1F930E
:101AA000CF93DF930E947E0EEC01C11580E5D8072D
:101AB000F0F5C11580E4D80708F09CC0C03ED10500
:101AC00020F5CD3CD10508F082C0C83AD10578F4A4
:101AD000C53AD10508F073C0C130D10519F120977E
:101AE00009F1C430D105F0F4D0E0C0E01BC0C33C24
:101AF000D105D0F7C85AD0E0CC0FDD1FC05BDE4F58
:101B00000990D881C02DD4640DC0C11580E2D807DA
:101B100008F0D1C0C11581E0D80708F05AC0C83E0E
:101B2000D10510F7CE01DF91CF911F910895C036F6
:101B300082E5D80718F5C03482E5D80708F06BC0F5
:101B4000C03282E5D80708F05FC0C11582E5D8072A
:101B500008F497C02C2F2695269580E2289F9001A7
:101B600011248C2F8370C1E0D0E002C0CC0FDD1FA8
:101B70008A95E2F7C22BD32BDD68D4CFC03A82E539
:101B8000D80760F4C03882E5D80708F459C0CF718F
:101B9000D0E0DC2FCC27C46FD06AC4CFC03C82E534
:101BA000D80708F462C0C03E82E5D80708F09CCF91
:101BB000DC2FCC27CC27DF71C06FD06AB3CFC55ADA
:101BC000D0E0CA57DE4FC881D0E0D064ABCFD0653B
:101BD000A9CF8D2F0E94200F182FCE0199270E9488
:101BE0007E0EC12FD0E0DC2FCC27CC27DF71C82B95
:101BF000D92B98CFCE0199270E947E0ECC27DF707B
:101C0000C82BD92BD06A8ECFCF71D0E0DC2FCC2758
:101C1000C16FD06A87CF2C2F26952695277080E23A
:101C2000289F900111248C2F8370C1E0D0E002C066
:101C3000CC0FDD1F8A95E2F7C22BD32BDC6872CF65
:101C40002C2F26952695277080E2289F900111243D
:101C50008C2F8370C1E0D0E002C0CC0FDD1F8A95CD
:101C6000E2F7C22BD32BDA685DCF8C2F8F710E94E5
:101C7000200FC82FD0E0DC2FCC27CC27DF71D0621B
:101C800051CF8C2F8F710E94200F55E0D695C795AC
:101C90005A95E1F7CF70D0E0DC2FCC27282F30E029
:101CA00084FF05C044E0220F331F4A95E1F7C22BA1
:101CB000D32BD06937CF8D2F8F710E94200F182F13
:101CC000CE0199270E947E0EC12FD0E0DC2FCC27B9
:101CD000CC27DF71C82BD92BD2CF462F723030F4EE
:101CE000653020F4672F0E944F01089590E080E056
:101CF00008950E946D0E0E944F0D0895823891053F
:101D0000B9F1B0F48133910509F47DC048F489320A
:101D1000910509F46DC08A32910509F47BC00895DC
:101D20008533910509F45FC08933910509F1089560
:101D3000833E9105D9F138F4803E910529F1823E28
:101D4000910579F10895863E9105D9F1873E910577
:101D500009F43EC0843E910541F52091720221FFB5
:101D600024C08091710284FD19C087EE90E008952F
:101D700020917102237009F05AC02091720223FF52
:101D800014C089E290E008952091710220FD38C0CE
:101D90003091720230FF09C024FF43C090E080E020
:101DA00008952091710222FDF7CF089520917102CC
:101DB00022FD3AC03091720230FD39C024FFF5CFC8
:101DC000EDCF2091710223FFF0CF24FDE7CFCDCFDF
:101DD0002091710223FD2EC03091720231FFEECFAF
:101DE00084EE90E008952091710225FFDECFC9CFE7
:101DF0002091710225FD21C02091720223FFD5CFD1
:101E000089E390E0D2CF2091710226FFCECF8AE203
:101E100090E008952091710226FFC7CF81E390E002
:101E2000089583EE90E0089582EE90E0089580EEAC
:101E300090E0089586EE90E0089585E390E008959F
:101E40009091710292FF10C041E0282F247124303C
:101E500009F040E031E0282F2871283009F030E007
:101E6000431711F02CE0822793FF10C041E0282F88
:101E70002471243109F040E031E0282F2871283105
:101E800009F030E0431711F02CE082273091720204
:101E900030FF10C051E0282F2171213009F050E0AF
:101EA00041E0282F2871283009F040E0541711F044
:101EB00029E0822731FF10C041E0282F2171213114
:101EC00009F040E031E0282F2871283109F030E096
:101ED000431711F029E0822794FD877E089580E062
:101EE000089508950E94710F089508950E94750F36
:101EF0000895E82FF0E0EB58FD4F80810895089594
:101F00001F93CF93DF9329E831E0C1E0D0E0D901FE
:101F100050E040E08D918F3F91F0E82FE295EF7017
:101F2000F0E011A18F70BE0101C0660F8A95EAF73B
:101F3000962F9095912391A382A1862B82A34F5F28
:101F40005F4F4530510531F72B5F3F4F81E023391B
:101F50003807E9F6DF91CF911F910895CF93DF9372
:101F6000AC01A62FB0E085E0689FF0011124E7578F
:101F7000FE4F70E081E060E091919F3FD1F0C92F6A
:101F8000C295CF70D0E028A130E09F7002C0359597
:101F900027959A95E2F720FD0CC0282F622B7F5FD2
:101FA000880F753049F7A40FB51F6C93DF91CF915F
:101FB000089520E0F3CF0E94800F109276021092D5
:101FC0007502109274021092730282E00E94211036
:101FD0000E94720F0895A2E0B0E0E1EFFFE00C94E0
:101FE000471E1A82198260E0CE0101960E94AE0F50
:101FF00061E0CE0101960E94AE0F42E050E0BE01CA
:102000006F5F7F4F83E792E00E94831E21E000977D
:1020100009F420E0892B31F089819A819093740230
:102020008093730242E065E772E083E792E00E94EA
:102030002210182F0E94760F812F2296E3E00C9435
:10204000631E0895B0E0A0E0E8E2F0E10C94421EC7
:102050006C017B01042FC22F222379F081E0809351
:102060004D020E942C1790934C0280934B0280E00B
:10207000CDB7DEB7E8E00C945E1ED0914D02DD23B3
:10208000B1F380914B0290914C020E944417059746
:1020900070F310E0A801B601C7010E94831E892BCE
:1020A00031F0A801B601C7010E94901ECD2F1092F9
:1020B0004D028C2FDDCF0E94F4180E94DC0C0E9490
:1020C000011908950E9406190E94E70C0E94201928
:1020D00008950E94C5160E94DA180E94A60C0E945C
:1020E0005B100E9462100E94B90CFBCF9093950187
:1020F0008093940108950E94B60B089580E00E9499
:10210000790F817008950E94EB0F2FEF86E791E021
:10211000215080409040E1F700C000000E94EB0F8A
:102120000E947E10882321F00E947B100E94771766
:1021300008950E9483100895CF93DF93EB018631B9
:102140009C4711F50E94940A9D81992399F08A7AFF
:1021500091E009F490E090934E02811109C089E268
:102160000E9411160E94480B80E0DF91CF910895E4
:1021700085E3F6CF80914E02811104C089E20E946E
:102180002816F0CF85E3FBCF81E0EFCFCF93DF932D
:10219000EC01FB018581882309F4D2C09E013057F0
:1021A0002332310508F0B2C00E94D20B9093720224
:1021B00080937102FE01E150F047E232F10520F414
:1021C000E750F14E0C94321E809171028160809331
:1021D000710293C0809172028860809372028DC0F8
:1021E000809171028260F3CF809171028460EFCFA1
:1021F000809171028860EBCF809172028160EDCF97
:10220000809172028260E9CF809171028061DFCF9C
:10221000809171028062DBCF809171028064D7CFA0
:102220000E941806809171028068D1CF809171025E
:102230008C60CDCF809172028360CFCF809171028C
:102240008E7FC5CF80917202877FC7CF8091710248
:102250008D7FBDCF809171028B7FB9CF809171024C
:10226000877FB5CF809172028E7FB7CF8091720247
:102270008D7FB3CF809171028F7EA9CF8091710243
:102280008F7DA5CF809171028F7BA1CF0E94180610
:10229000809171028F779BCF80917102837F97CF5E
:1022A000809172028C7F99CF8091710282FB992775
:1022B00090F921E0922790FB82F990FB83F987CF78
:1022C00080917202982F909591708E7F892B90FB50
:1022D00081F983CF90917102892F8F7B96FF806463
:1022E00076CF0E94180690917102892F97FB87F98B
:1022F00080586DCF81E00E94600C809171029091B6
:1023000072020E94D70B0E94180680E0DF91CF91E5
:10231000089580E0F0CF90917102892F8F7E94FF15
:10232000806155CF90917102892F8E7F90FF8160DF
:102330004ECF90917202892F877F93FF88604DCF97
:1023400081E0E4CF282F35EB2303C001112497FF50
:1023500004C080589109892F089580589F4FFBCF62
:102360008091550280FF0DC06091090170E0660FF9
:10237000771F6038710570F56115710569F1862F59
:10238000089581FF07C06091090184E0689FB00152
:102390001124EFCF6091090182FD0AC0809154029F
:1023A0008823A9F02091080160910901821710F09B
:1023B00088E0ECCF869FC001112433E0880F991F7D
:1023C0003A95E1F7622F70E00E941E1ED2CF68E0BE
:1023D00070E0D5CF8FE7089581E008958091550290
:1023E00080FF0CC06091050170E07595679575954B
:1023F00067956115710549F1862F089581FF06C023
:102400006091050170E075956795F3CF60910501C6
:1024100082FD0BC0909153029923A1F060910401B9
:1024200080910501961738F0682F70E060387105CB
:1024300000F38FE70895899FC001112470E00E9486
:102440001E1EF4CF61E070E0D7CF81E00895909137
:10245000580220915902922B20915B02922B2091DD
:102460005A02922B31F098E09093540291E09093AD
:1024700053028D3C31F40E94B01181958093590232
:1024800008958E3C19F40E94B011F8CF8F3C31F4BE
:102490000E94B0118195809358020895803D19F4EF
:1024A0000E94B011F8CF893D29F40E94EE1180936B
:1024B0005A0208958A3D21F40E94EE118195F7CFCA
:1024C0008B3D31F40E94EE11819580935B0208955B
:1024D0008C3D19F40E94EE11F8CF9FE2980F9830CE
:1024E00070F4815D990B21E030E001C0220F8A95E4
:1024F000EAF780915702822B8093570208958D3D11
:1025000031F48091550281608093550208958E3D8B
:1025100021F4809155028260F7CF8F3DB9F7809109
:1025200055028460F1CF409158028D3C59F480915E
:10253000590287FF0DC01092590241110BC0109231
:10254000540208C08E3C81F48091590218169CF305
:10255000442381F080915A0290915B02892B09F00B
:102560005AC01092530208958F3C49F447FFF0CFB0
:1025700010925802809159028111ECCFE0CF803D3A
:1025800019F41416ACF3E4CF90915A02893D29F462
:102590001916F4F610925A02DBCF8A3D19F497FF10
:1025A000D7CFF8CF90915B028B3D29F497FFD0CF26
:1025B00010925B02CDCF8C3D19F41916CCF3C8CF25
:1025C0009FE2980F983090F4815D990B21E030E004
:1025D000B90102C0660F771F8A95E2F7CB0180959B
:1025E00090915702892380935702B2CF8D3D31F4E9
:1025F000809155028E7F80935502AACF8E3D21F4A3
:10260000809155028D7FF7CF8F3D09F0A1CF80914A
:1026100055028B7FF0CF08950E942C179C0190915A
:10262000580280915902982B21F030935202209346
:10263000510290915A0280915B02982B21F03093C5
:10264000500220934F0286E592E00E940E150895F5
:1026500086E0E6E5F2E0DF011D928A95E9F7109247
:10266000540210925302109255020895FC01828187
:1026700081110EC0838181110BC08481811108C03A
:1026800091E08581811101C090E0892F81700895CA
:1026900081E0FCCFA6E0B0E0E0E5F3E10C94471E5A
:1026A00086E0E6E5F2E0DE01119601900D928A9552
:1026B000E1F7109258021092590210925A021092A9
:1026C0005B028B819C81892B89F0809151029091D2
:1026D00052020E944417AC01909154029923C9F10F
:1026E00080910A018417150608F440C08D819E81EF
:1026F000892B91F080914F02909150020E944417D3
:10270000AC0190915302992309F46AC080910601AB
:102710008417150608F472C0BE016F5F7F4F86E50F
:1027200092E00E945916811105C086E592E00E9450
:10273000361381110E940C1386E0FE013196A6E546
:10274000B2E001900D928A95E1F72696E3E00C94B1
:10275000631E20910B018AE0289F90011124241709
:10276000350720F69F5F9093540202C09F3FD1F738
:102770001B81112359F00E94B0119FEF11160CF428
:1027800091E0899F802D1124809358021C81112390
:1027900059F00E94B0119FEF11160CF491E0899F3F
:1027A000802D11248093590280915802882309F4C6
:1027B0009DCF10915902112309F498CF0E94A211C4
:1027C000882351F080935802812F0E94A211882300
:1027D00029F0809359028ACF81E0F4CF81E0F9CFCC
:1027E000209107018AE0289F9001112424173507C2
:1027F00008F092CF9F5F9093530202C09F3FD1F7A2
:102800001D81112359F00E94EE119FEF11160CF457
:1028100091E0899F802D112480935A021E811123FB
:1028200059F00E94EE119FEF11160CF491E0899F70
:10283000802D112480935B0280915A02882309F431
:102840006BCF10915B02112309F466CF0E94A21195
:10285000882351F080935A02812F0E94A21188236D
:1028600029F080935B0258CF81E0F4CF81E0F9CF6B
:102870000F931F93CF93DF93C42FD22FFC01858139
:102880008823C9F040935E020E942C1790935D024A
:1028900080935C0280E28C0F883040F4C77081E046
:1028A00001C0880FCA95EAF70E94C203DF91CF9159
:1028B0001F910F91089510915E02141332C0809100
:1028C0005C0290915D020E944417883C910548F596
:1028D000C0E2CD0F1D17B9F080E2810F883040F4BF
:1028E000177081E001C0880F1A95EAF70E94C903AA
:1028F000C83048F481E09D2F977001C0880F9A95E9
:10290000EAF70E94C203802F0E94B903C83070F614
:10291000D77081E001C0880FDA95EAF70E94C903F9
:10292000C5CF80E28C0F883008F6C77081E001C007
:10293000880FCA95EAF7F2CF0F93DB0188519C47C5
:1029400087309105A0F5FC01E55EF04E0C94321E37
:1029500006E221EE41EE6AE17CE7CD010E943814E7
:1029600080E00F91089507E225EE45EE6BE17CE7EC
:10297000F4CF06E221EE40EE68E17CE7EECF07E21D
:1029800025EE44EE69E17CE7E8CF06E221EE42EE77
:102990006CE17CE7E2CF07E225EE46EE6DE17CE7F5
:1029A000DCCF08E221E045EE6EE17CE7D6CF15965C
:1029B0008C91882319F010925E02D3CF81E0D1CFA1
:1029C00090936402809363020895E0916302F09112
:1029D0006402309729F00190F081E02D0995089567
:1029E00080E008950E94E5140895E0916302F0915B
:1029F0006402309721F00280F381E02D099508955B
:102A0000E0916302F0916402309739F026E0DC0136
:102A10002C930480F581E02D09950895E0916302DF
:102A2000F0916402309739F022E0DC012C930680AB
:102A3000F781E02D09950895A3E0B0E0E2E2F5E129
:102A40000C94481E209161023091620228173907C8
:102A5000A1F09093620280936102E0916302F09191
:102A60006402309751F023E029839B838A8300849A
:102A7000F185E02DCE01019609952396E2E00C94B4
:102A8000641EA3E0B0E0E7E4F5E10C94481E209159
:102A90005F023091600228173907A1F0909360021D
:102AA00080935F02E0916302F0916402309751F0ED
:102AB00024E029839B838A830084F185E02DCE0165
:102AC000019609952396E2E00C94641E2091020180
:102AD000309103012E5F3F4F80911601882379F0DA
:102AE0008091710287FF0BC020910001309101019C
:102AF0002E5F3F4F9EE180E0915018F4089596E0DC
:102B0000FACFF90141919F014423B1F38F5FF4CFD4
:102B1000882321F190911601992311F1909171026E
:102B200097FF1EC0E82FE695E695E695EE31B0F4E6
:102B30002091000130910101E20FF32FF11D22815C
:102B400030E0877041E050E002C0440F551F8A9585
:102B5000E2F72423352381E0232B91F480E00895CC
:102B60002091020130910301F9013296285F3F4F15
:102B70009191981721F0E217F307D1F7EFCF81E099
:102B800008959C01FC0132969FEF80E04191461729
:102B900051F09F3F19F4411101C0982F8F5F86308B
:102BA000A9F79F3F09F40895290F311D97FD3A9524
:102BB000F90162830895FC0132960896219126134B
:102BC00003C0DF0111971C92E817F907B9F70895C0
:102BD000E62FE695E695E695EE3168F4E80FF92FD5
:102BE000F11D677021E030E001C0220F6A95EAF71D
:102BF0008281822B82830895E62FE695E695E695FD
:102C0000EE3170F4E80FF92FF11D677021E030E02C
:102C100001C0220F6A95EAF720958281282322833A
:102C20000895682F80911601882359F080917102D0
:102C300087FF07C080910001909101010E94E81573
:102C4000089580910201909103010E94C115089599
:102C5000682F80911601882359F08091710287FFB7
:102C600007C080910001909101010E94FC15089518
:102C700080910201909103010E94DB1508958091DB
:102C80001601882379F08091710287FF0BC0E091D3
:102C90000001F091010132968EE1DF011D928A95CB
:102CA000E9F70895E0910201F0910301329686E080
:102CB000F4CFDC01FB0111969C911197818198134F
:102CC00022C012968C911297882319F09281891351
:102CD0001AC013968C911397882319F09381891346
:102CE00012C015968C911597882319F09581891338
:102CF0000AC014969C91992321F081E02481291324
:102D000003C080E001C081E08170089508950E94B1
:102D100086160895811106C081E0809365020E94A5
:102D20008716089582E0F9CF83E0809365020E94C0
:102D3000871608950E948A16089581E0809365029F
:102D40000E94871608950E949D160895089508957B
:102D50000E94A7160895089508950E94A616089542
:102D60000E94AB160E94EB0F0E94AC1680E00E94FE
:102D7000790F91E0811107C081E00E94790F91E005
:102D8000811101C090E0892F089585B7806885BFC3
:102D900085B7806885BF08951F921FB61F921124C2
:102DA0008F939F93AF93BF9380916602811113C05D
:102DB0008091770290917802A0917902B0917A0285
:102DC0004196A11DB11D8093770290937802A09344
:102DD0007902B0937A02BF91AF919F918F911F902A
:102DE0001FBE1F90189580917F02843031F10E94A0
:102DF0002D021092660288E190E020E40FB6F8946C
:102E0000A895809360000FBE2093600083B7817FF8
:102E1000846083BF83B7816083BF7894889583B7CC
:102E20008E7F83BF0FB6F894A8958091600088616B
:102E300080936000109260000FBE08950E941806F3
:102E40000E943202089582E084BD93E095BD9AEF1E
:102E500097BD80936E0008952FB7F8948091770204
:102E600090917802A0917902B0917A022FBF0895D3
:102E70002FB7F8946091770270917802809179026F
:102E800090917A022FBF08959C014FB7F8948091DA
:102E9000770290917802A0917902B0917A024FBFA7
:102EA000821B930B089578941F921FB61F921124D2
:102EB0008F939F93AF93BF93809177029091780205
:102EC000A0917902B0917A020196A11DB11D809363
:102ED000770290937802A0937902B0937A02BF911F
:102EE000AF919F918F911F901FBE1F90189587E7FC
:102EF00097E7909301088093000888E19AE00FB665
:102F0000F894A895809360000FBE90936000FFCF67
:102F100088E19AE00FB6F894A895809360000FBE00
:102F200090936000FFCF80916F0208959B01BA01DA
:102F300090917F029430E9F48F708093E9009FEFC5
:102F40008091E800915085FD06C085ED8A95F1F7E6
:102F500000009111F5CF8091E80085FF0AC050E094
:102F600040E0C9010E9497198091E8008E77809314
:102F7000E800089543E050E0BC0182E00E9496170B
:102F8000089546E050E0BC0182E00E949617089543
:102F900040E250E0BC0182E00E9496170895CF9372
:102FA000DF93EC0148E050E0BC0181E00E949617FD
:102FB00088E0FE01A7E6B2E001900D928A95E1F764
:102FC000DF91CF91089580917E02811109C00E9406
:102FD000271B0E94841B8091E20084608093E200A2
:102FE000089510927E0208950E949D1608956091A2
:102FF0007B0281E0611101C080E00E949416089577
:1030000090917F0281E0943009F080E060917B0232
:103010000E949A16089542E061EC81E00E94A31A92
:1030200042E261EC82E00E94A31A90917F0281E06B
:10303000943009F080E060917B020E948A16089526
:1030400080918102833009F461C030F48130D1F184
:10305000823009F49EC008958A3009F48AC08B300A
:1030600009F46FC0893009F050C08091800281322C
:1030700009F04BC08091840290918502029708F07C
:1030800044C08091E800877F8093E8008091E80049
:1030900082FF37C09091F3008091F200029731F4E3
:1030A0008091F100813011F0863021F48091F1009F
:1030B00080936F028091E8008B778093E8000E94F4
:1030C000D71A23C080918002813AF9F48091E800F8
:1030D000877F8093E8008091840290918502892BFC
:1030E00061F468E087E692E070E00E94E619809162
:1030F000E8008B778093E800089560E090E080E03E
:10310000F3CF80917F028111C1CF08958091800219
:10311000813AD9F78091840290918502892BA9F791
:103120008091E800877F8093E8008091E80080FF2D
:10313000FCCF809116018093F1008091E8008E779A
:10314000BCCF80918002813201F7809184029091FE
:103150008502892BD1F68091E800877F8093E80073
:103160000E94D71A80918202809316010E9418064D
:10317000089580918002813241F68091E800877F36
:103180008093E8000E94D71A809183028093700296
:10319000089580918002813A09F0B7CF8091E800CC
:1031A000877F8093E8008091E80080FFFCCF8091CA
:1031B0007002C1CF84B7877F84BF0FB6F894A895FB
:1031C00080916000886180936000109260000FBE63
:1031D00080E890E00FB6F8948093610090936100CE
:1031E0000FBE0E94A31608950E94271B0E94841BF5
:1031F000E2EEF0E080818460808378940E94031E78
:1032000008958CE091E00E94E014089580917F027F
:10321000853031F480917F02853019F00E941E17AD
:1032200008950E94F31680917D02882399F30E94ED
:10323000B016882379F30E9481190E941806EACFFC
:1032400008959A0140918602509187020E9429199F
:103250000895492F55274330510519F168F441303D
:10326000510509F444C04230510509F445C090E0CD
:1032700080E050E040E025C04132510549F1423242
:103280005105A9F784E490E04DEE51E06115710518
:10329000C1F086EB90E047E351E06130710589F0C1
:1032A000E6CF99278130910581F0009729F00297A8
:1032B000F1F6E0ECF0E002C0E6EEF0E0849190E0A0
:1032C000AF01F901518340830895EAECF0E0F6CFB5
:1032D00089E090E04CEF50E06115710591F389E0D1
:1032E00090E045E151E06130710559F3C0CF82E1D2
:1032F00090E045E251E0E5CF8BE390E04AEE50E00C
:10330000E0CF80E189BD82E189BD09B400FEFDCF37
:103310008091D8008F7D8093D8008091E0008260FA
:103320008093E0008091E00081FDFCCF0895AF9292
:10333000BF92CF92DF92FF920F931F93CF93DF93B1
:103340006C01EB018A010E94F61AF82E811123C04C
:103350000115110539F0F80180819181C81BD90B45
:10336000C80ED91EB12CA12C2097A9F08091E8009D
:1033700085FD22C08091E8008E778093E8000115DA
:103380001105A1F0F80180819181A80EB91EB182CA
:10339000A08285E0F82E8F2DDF91CF911F910F91A4
:1033A000FF90DF90CF90BF90AF9008950E94F61AE3
:1033B0008823D1F2F82EEFCFF60181916F0180932F
:1033C000F1002197FFEFAF1ABF0ACECFFC01809129
:1033D00086029091870286179707A0F06115710504
:1033E00029F49091E8009E779093E80090E06115B1
:1033F000710551F4911108C08091E80082FF34C03A
:1034000080E00895BC01F2CF80917F028823C1F152
:103410008530C1F18091E80083FD30C08091E800E3
:1034200082FDEACF8091E80080FFE1CF8091F30038
:103430002091F200382F6115710519F028303105FF
:1034400058F091E02830310509F090E02091E80033
:103450002E772093E800CBCF81918093F1006150CB
:1034600071092F5F3F4FE7CF80917F02882341F0A2
:10347000853041F08091E80083FFBECF81E0089560
:1034800082E0089583E00895FC0180918602909186
:10349000870286179707A0F06115710529F48091BE
:1034A000E8008E778093E80090E06115710551F493
:1034B000911108C08091E80082FF35C080E0089536
:1034C000BC01F2CF80917F028823C9F18530C9F118
:1034D0008091E80083FD31C08091E80082FDEACF51
:1034E0008091E80080FFE1CF8091F3002091F2000D
:1034F000382F6115710519F02830310558F091E029
:103500002830310509F090E08091E8008E778093B3
:10351000E800CBCF84918093F1003196615071091E
:103520002F5F3F4FE6CF80917F02882341F08530A7
:1035300041F08091E80083FFBDCF81E0089582E0F3
:10354000089583E00895982F973028F08F70809326
:10355000E90081E008959093E900242F762F50E050
:10356000981731F07091EC002091ED005091F0002F
:1035700021FD02C09F5FE8CF3091EB003E7F30938A
:10358000EB003091ED003D7F3093ED003091EB008A
:1035900031603093EB007093EC002093ED0050937A
:1035A000F0002091EE0027FDE5CF80E008958091A6
:1035B000800287FF13C08091E80082FF06C08091DF
:1035C000E8008B778093E80004C080917F0281112E
:1035D000F2CF089580917F028823D9F38091E8008B
:1035E00080FFF8CF8091E8008E77ECCF2091E40047
:1035F0003091E50095E6A9012091EC00822F8170C1
:1036000020FF06C08091E80080FF06C080E008959A
:103610002091E80022FD1AC080917F02882389F062
:10362000853089F08091EB0085FD0FC02091E4008A
:103630003091E50042175307F9F29150E1F684E02A
:10364000089582E0089583E0089581E008950E943E
:10365000961B0E949E1BE0EEF0E0808181608083DB
:10366000E8EDF0E080818F77808319BCA7EDB0E0B2
:103670008C918E7F8C9380818F7E808310927E02CE
:1036800008950F931F93CF93DF930E94961B0E9480
:103690009E1BC8EDD0E088818F7788838881806801
:1036A000888388818F7D888319BC10927F02109255
:1036B0007B0210927D0210927C0200EE10E0F80175
:1036C00080818B7F808388818160888342E060E095
:1036D00080E00E94A31AE1EEF0E080818E7F80837B
:1036E000E2EEF0E080818160808380818860808369
:1036F000F80180818E7F8083888180618883DF915B
:10370000CF911F910F910895E8EDF0E080818F7EB9
:103710008083E7EDF0E080818160808384E082BF78
:1037200081E080937E020E94411B0895E8EDF0E065
:1037300080818E7F80831092E20008951092DA00DB
:103740001092E10008951F920F920FB60F9211246C
:103750002F933F934F935F936F937F938F939F9399
:10376000AF93BF93EF93FF938091E10082FF0BC073
:103770008091E20082FF07C08091E1008B7F8093FF
:10378000E1000E94021E8091DA0080FF19C0809142
:10379000D80080FF15C08091DA008E7F8093DA0018
:1037A0008091D90080FF96C080E189BD82E189BD0A
:1037B00009B400FEFDCF81E080937F020E94E317F1
:1037C0008091E10080FF19C08091E20080FF15C068
:1037D0008091E2008E7F8093E2008091E200806120
:1037E0008093E2008091D80080628093D80019BC59
:1037F00085E080937F020E94F7178091E10084FFAB
:103800002BC08091E20084FF27C080E189BD82E166
:1038100089BD89B5982F917080FFFBCF8091D8002A
:103820008F7D8093D8008091E1008F7E8093E100AE
:103830008091E2008F7E8093E2008091E2008160BF
:103840008093E20080917B02882309F449C084E0E0
:1038500080937F020E9400188091E10083FF29C0BD
:103860008091E20083FF25C08091E100877F8093F3
:10387000E10082E080937F0210927B028091E10060
:103880008E7F8093E1008091E2008E7F8093E20042
:103890008091E20080618093E20042E060E080E09D
:1038A0000E94A31A8091F00088608093F0000E942B
:1038B000F417FF91EF91BF91AF919F918F917F91FD
:1038C0006F915F914F913F912F910F900FBE0F908D
:1038D0001F90189519BC10927F020E94F11770CFAB
:1038E0008091E30087FD93E090937F02B3CF1F9216
:1038F0000F920FB60F9211242F933F934F935F9324
:103900006F937F938F939F93AF93BF93CF93DF93E7
:10391000EF93FF93D091E900DF708091EC00C82F06
:10392000C17080FDC0E81092E9008091F000877FAF
:103930008093F00078940E94BB1C1092E900809163
:10394000F00088608093F000CD2BCF70C093E90029
:10395000FF91EF91DF91CF91BF91AF919F918F91A7
:103960007F916F915F914F913F912F910F900FBE7B
:103970000F901F901895AAE2B0E0E1ECFCE10C94E6
:10398000471E80E892E02091F100FC012193CF01D5
:10399000F2E088389F07B9F70E9420188091E8006C
:1039A00083FF1EC180918002909181029A3008F0BD
:1039B00017C1E92FF0E0EE5DF04E0C94321E803816
:1039C00099F0823809F00CC1809184028F708730A1
:1039D00008F006C18093E9008091EB0085FB882701
:1039E00080F91092E90006C080917C0290917D02DE
:1039F000911182609091E800977F9093E800809306
:103A0000F1001092F1008091E8008E77E5C08823E4
:103A100009F4D3C0823009F0E3C0809182028111A1
:103A2000D6C0809184028F702FEF280F263008F0C7
:103A3000D7C08093E9002091EB0020FFC8C09330ED
:103A400031F48091EB0080628093EB00C0C09091D4
:103A5000EB0090619093EB0021E030E001C0220F79
:103A60008A95EAF72093EA001092EA008091EB0031
:103A70008860EACF8111B4C0109182021F778091D3
:103A8000E3008078812B8093E3008091E800877FBA
:103A90008093E8000E94D71A8091E80080FFFCCF55
:103AA0008091E30080688093E30082E0111183E05D
:103AB00080937F0295C08058823008F091C0809139
:103AC0008202909183028C3D23E09207A1F583E06E
:103AD0008A838AE289834FB7F894DE01139620E047
:103AE0003EE051E2E32FF0E050935700E49120FFD5
:103AF00003C0E295EF703F5FEF708E2F90E0EA30E9
:103B0000C0F0C7968D939D932F5F243159F74FBF17
:103B10008091E800877F8093E8006AE270E0CE0140
:103B200001960E94E6198091E8008B778093E80067
:103B300057C0C096E7CF6091840270918502AE01B4
:103B40004F5F5F4F0E942119BC01892B09F448C0C7
:103B50009091E800977F9093E80089819A810E9474
:103B6000441AE1CF8038E1F58091E800877F8093A7
:103B7000E80080917B028093F10045CF811130C035
:103B800090918202923060F58091E800877F809367
:103B9000E80090937B020E94D71A80917B028823D1
:103BA00011F084E005C08091E30087FDFACF81E049
:103BB00080937F020E940B1813C080918202813093
:103BC00079F481E0933009F080E080937D021092D7
:103BD000E9008091E800877F8093E8000E94D71A6F
:103BE0008091E80083FF0AC08091E800877F80937E
:103BF000E8008091EB0080628093EB00AA96E3E0FE
:103C00000C94631E0895CF9380917F028823A1F0C6
:103C1000C091E900CF709091EC00892F817090FDE8
:103C200080E8C82B1092E9008091E80083FD0E9493
:103C3000BB1CCF70C093E900CF91089597FB072E6E
:103C400016F4009407D077FD09D00E946F1E07FC80
:103C500005D03EF4909581959F4F0895709561959C
:103C60007F4F0895EE0FFF1F0590F491E02D09940A
:103C70002F923F924F925F926F927F928F929F927C
:103C8000AF92BF92CF92DF92EF92FF920F931F936A
:103C9000CF93DF93CDB7DEB7CA1BDB0B0FB6F8941B
:103CA000DEBF0FBECDBF09942A88398848885F845B
:103CB0006E847D848C849B84AA84B984C884DF80CC
:103CC000EE80FD800C811B81AA81B981CE0FD11DB0
:103CD0000FB6F894DEBF0FBECDBFED010895AA1B4D
:103CE000BB1B51E107C0AA1FBB1FA617B70710F0E7
:103CF000A61BB70B881F991F5A95A9F78095909519
:103D0000BC01CD010895FB01DC0104C08D9101903F
:103D1000801921F441505040C8F7881B990B089531
:103D2000FB01DC0102C001900D9241505040D8F7D8
:103D30000895F999FECF92BD81BDF89A992780B573
:103D40000895A8E1B0E042E050E00C94DD1EDC01F3
:103D5000A40FB51F4150504048F0CB01840F951F70
:103D60002E910E94B81E41505040D0F70895262F42
:103D7000F999FECF92BD81BDF89A019700B4021661
:103D800039F01FBA20BD0FB6F894FA9AF99A0FBE0F
:103D900008950396272F0E94B81E0E94B71E252F54
:103DA0000E94B81E242F0C94B81E0196272F0E9443
:103DB000B81E0C94B71EDC01CB01FC01F999FECFB3
:103DC00006C0F2BDE1BDF89A319600B40D924150A3
:103DD0005040B8F70895F894FFCF1104110461041E
:103DE0006104C604E20440044004E7045805670582
:103DF00067051E1192112611F010F4102A11F81007
:103E00002E113A1104118B1108113E110C1142119F
:103E10006A1110114611711116114C115411FC1038
:103E20003211001136111A11501160117A118911D5
:103E3000EA1022119911B914BF14A814B314C514AF
:103E4000CB14D114DF1C071DF01D071DF01D3A1DFA
:083E50005B1DF01DB21DBE1D3B
:103E580014023402280850011E0A14019317CF17C0
:103E6800C817C117BA1701E200E900EA00B500B6A1
:103E780000B700CD008301CC008A01920194012192
:103E880002230224022502260227022A02B300B4D2
:103E9800006F0070009F01CB019F02A00281828306
:103EA800E200E900EA00B500B600B700CD008301E2
:103EB800CC008A01920194012102230224022502E6
:103EC800260227022A02B300B4006F0070009F0187
:103ED800CB019F02A002818283916634353290948F
:043EE80097C6360043
:00000001FF
