:100000000C9415010C9432010C9432010C943201C1
:100010000C9432010C9432010C9432010C94320194
:100020000C9432010C9432010C949F1B0C94731CA1
:100030000C94C8160C9432010C9432010C943201C9
:100040000C9432010C9432010C9432010C94320164
:100050000C9432010C944F170C9432010C94320121
:100060000C9432010C9432010C9432010C94320144
:100070000C9432010C9432010C9432010C94320134
:100080000C9432010C9432010C9432010C94320124
:100090000C9432010C9432010C9432010C94320114
:1000A0000C9432010C9432010C9432013F00680030
:1000B00069006A006B006C000803320078003300AE
:1000C00000001A03530074007200650061006D00A7
:1000D0002000430068006500610070000000040318
:1000E000090409023B00020100A0FA090400000112
:1000F00003010100092111010001224400070581CB
:100100000308000109040100010300000009211196
:1001100001000122B6000705820320000112010040
:1001200002000000086373131201000102000105C0
:10013000010902A10185020901A10005091901298E
:10014000081500250195087501810205010930098E
:10015000311581257F95027508810609381581259D
:100160007F950175088106050C0A38021581257FE7
:10017000950175088106C0C005010980A1018503AC
:1001800019012AB700150126B700950175108100E5
:10019000C0050C0901A101850419012AA00215015D
:1001A00026A002950175108100C005010906A10174
:1001B0008506050719E029E7150025019508750151
:1001C00081020507190029EF1500250195F0750139
:1001D000810205081901290595057501910295010E
:1001E00075039101C005010906A101050719E02960
:1001F000E7150025019508750181029501750881B3
:10020000010507190029FF150026FF00950675084E
:1002100081000508190129051500250195057501BD
:100220009102950175039101C00011241FBECFEF0B
:10023000DAE0DEBFCDBF11E0A0E0B1E0E0E5FEE333
:1002400002C005900D92A039B107D9F722E0A0E9CC
:10025000B1E001C01D92A038B207E1F70E9465101D
:100260000C94E71E0C940000811112C0623080F4DF
:10027000433070F4E42FF0E083E0689FE00DF11D5F
:100280001124EE0FFF1FE455FF4F859194910895BF
:1002900081E090E008950E943401089581E008957E
:1002A0000E944E01089581E008950E944E01089534
:1002B0000E945501089508950E945B010895A6E0EB
:1002C000B0E0E5E6F1E00C94431E49835A839E8337
:1002D0003091970189819A8131111AC03E8133236F
:1002E00099F0222389F00E946307182F682F8981D3
:1002F0009A810E943F0769817A81812F0E94690E4D
:100300002696E3E00C945F1E0E945107182FF3CF4E
:100310000E94630769817A81F1CFFC01262F408119
:10032000518162817381848195810E945F0108956A
:10033000CF93DF93EC0161E00E948D01BE010E942A
:100340005001DF91CF910895CF93DF93EC0160E0EE
:100350000E948D01BE010E945C01DF91CF91089542
:1003600081E008950E94B0010895CF93C82F0E94A4
:1003700014068C2F0E94B2012FEF84E39CE02150E1
:1003800080409040E1F700C00000CF91089581E0E7
:100390000E94B5010E947317089580E00E94B50184
:1003A0000E94841708950F931F93CF93DF938C01BE
:1003B00061E00E948D01EC01B8010E945801811199
:1003C00006C080E0DF91CF911F910F910895B80191
:1003D000CE010E9498148823A1F3B801CE010E9497
:1003E000C210882371F3B801CE010E9498108823AF
:1003F00041F3F8018581882361F0C330FCE7DF0712
:10040000E9F058F4C115ECE7DE07A9F0C130DC478C
:10041000B9F0C8010E945301D5CFCB358CE7D8077E
:10042000A9F0CC35ECE7DE0771F0CA35DC4789F777
:100430000E94AA0BEECF0E94C701C3CF0E94B20B4D
:100440000E94CD01BECF0E94A00BE3CF0E94AE0B55
:10045000E0CF0E94A4160E94500208950E94540208
:100460000E94A9160895089581E008950895CF93F4
:10047000DF93D82F0E943402C82F882319F08D2FC4
:100480000E9436028C2FDF91CF9108950895CF936B
:10049000C82F0E9433028C2F0E943702CF910895FB
:1004A00080E00E94470208950E94E1140E944702E2
:1004B0000895CF930E94E114C82F809192018C1768
:1004C00079F0C09392010E94341760939301709366
:1004D000940180939501909396018C2F0E9447027E
:1004E000CF910895ADE0B0E0E8E7F2E00C94441E4F
:1004F000488759876A877B878C879D8791110E94DF
:10050000B00A1F8286E0FE013896DE011196019046
:100510000D928A95E1F78D8181110DC029813A8173
:100520004B815C816D817E818F810E94FA092D96BD
:10053000E2E00C94601ECE0101960E9498018111A8
:10054000EDCFF5CFFC012481213021F48081918110
:100550000E9495070895662329F00E9423120E94A5
:10056000081308950E948F12FACFCF93C82F8823C3
:10057000C9F08238C9F40E94EE1481FD13C089E3EA
:100580000E940D160E94440B2FEF87EE93E021503E
:1005900080409040E1F700C0000089E30E942416EB
:1005A0000E94440BCF9108958338A1F40E94EE1469
:1005B00080FDF8CF83E50E940D160E94440B2FEFBB
:1005C00081EE94E0215080409040E1F700C00000AF
:1005D00083E5E4CF8438A1F40E94EE1482FDE2CFDB
:1005E00087E40E940D160E94440B2FEF81EE94E0E9
:1005F000215080409040E1F700C0000087E4CECF5A
:100600008CEF8C0F813A70F48C2F0E948415882314
:1006100029F08C2F0E9424160E94440B8C2F0E94DC
:100620000D16BECF80E28C0F883048F4C77081E091
:1006300001C0880FCA95EAF70E94930AB1CFEBE593
:10064000EC0FE33040F4F0E0E35BFE4F808190E09C
:100650000E941815A7CFE8E5EC0FEB3150F4F0E05D
:10066000EE0FFF1FE95EFE4F808191810E943D15D4
:1006700099CF83E38C0F833108F094CF61E08C2F06
:100680000E94AB028FCF882309F456C0823879F4D8
:100690000E94EE1481FF50C089E30E940D160E9453
:1006A000440B89E30E9424160E94440B089583386A
:1006B00059F40E94EE1480FF3FC083E50E940D169E
:1006C0000E94440B83E5EECF843859F40E94EE1467
:1006D00082FF32C087E40E940D160E94440B87E41B
:1006E000E1CF9CEF980F913AE8F290E2980F9830A2
:1006F00050F4877091E001C0990F8A95EAF7892F2D
:100700000E94990AD1CF9BE5980F933028F490E08E
:1007100080E00E941815089598E5980F9B3128F401
:1007200090E080E00E943D15089593E3980F933187
:1007300018F460E00E94AB0208951F93CF93DF93FB
:10074000182FEB010E94B502209739F4812F0E94E7
:100750004303DF91CF911F9108958FE99FE00197A7
:10076000F1F700C000002197EFCF70E060E089331F
:1007700011F460E570E00E949D030895882321F044
:100780000E94930A0E94440B0895882321F00E943E
:10079000990A0E94440B0895B0E0A0E0E2EDF3E076
:1007A0000C943D1E6C01D62FC72FFC0115810681CC
:1007B00002950F700E94890AE82E8823F9F0E12E35
:1007C0001123E1F08C2F807F803461F080E28D0F67
:1007D000883008F18C2F807E803221F4D230D8F01E
:1007E0000023C9F080916A0282FF15C082E00E9456
:1007F000740B0E94890A91E0E82EE926BC2EB2947F
:100800009FE0B922FBE0FB15B8F1EB2DF0E0E751DA
:10081000F14E0C942E1EE12CF1CF0C2F0F70C07FE7
:1008200011F00295007F112399F0002359F080E226
:100830008D0F883010F0D11107C0802F0E94930ACD
:100840000E94440B8D2F5AC0802F0E94A30AF8CF1C
:100850008D2F0E944303002379F080E28D0F8830B2
:1008600010F0D11104C0802F0E94990A03C0802F7C
:100870000E94A90A0E94440BEB2DE850FF0B34970D
:1008800020F40E94E1140E944702EE2089F00E94A9
:10089000850A80FD0DC0F60115820E947F0A0E9424
:1008A0009D06C6010E94DB050E947F0A0E94AD06DC
:1008B000CDB7DEB7E9E00C94591E2C2F2F70F22E25
:1008C000C07FC03219F0F29480EFF822DD2341F0AE
:1008D000D130D1F1112309F444C00023F1F0B2CF9B
:1008E00080916A0282FD15C0112359F0FF2029F082
:1008F0008F2D0E94930A0E94440B80E00E94B50253
:10090000BBCF80E00E944303FF2009F4B5CF8F2DB9
:10091000ABCF112369F0011104C08F2D0E94BE03DB
:10092000ABCF013009F0A8CF8F2D0E94C70AA4CF0A
:100930000111A2CF8F2D0E94C5038F2D0E94D30AD3
:100940008F2D0E94B70A98CF112321F0063008F0AE
:1009500093CFE3CF053008F08FCF8F2D0E94C503D2
:100960008BCF0023D1F3D93349F43FEF87EE93E0E7
:10097000315080409040E1F700C000008D2F0E9470
:1009800043037ACF8C2F86958695837069F08130EA
:1009900009F072CF8D2F9C2F9370111102C080E04F
:1009A00090E00E943D1568CF8D2F9C2F9370111100
:1009B00002C080E090E00E9418155ECF612F8D2F5D
:1009C0000E94AB0259CF8C2F8370A1F5111154CF27
:1009D0004D2F429546954770440F440F2D2F2F7091
:1009E00030E0042E02C0220F331F0A94E2F790E099
:1009F00080E0D4FF09C08FE090E002C0880F991F0B
:100A00004A95E2F780959095C695C695C370822B5E
:100A1000932BC23049F058F4C13019F00E946D0692
:100A20002BCF0E94640628CF0E94760625CF0E9415
:100A3000610622CF8695112311F08C2F81708823B7
:100A400009F41ACF4D2F429546954770440F440F35
:100A50002D2F2F7030E0042E02C0220F331F0A9476
:100A6000E2F790E080E0D4FF09C08FE090E002C0A0
:100A7000880F991F4A95E2F780959095C695C6957F
:100A8000C370822B932BC23049F058F4C13019F057
:100A90000E94D806F1CE0E94CF06EECE0E94E1065B
:100AA000EBCE0E948506E8CECF70112329F08C2F63
:100AB0000E949D068D2F32CF8D2F0E94C5038C2F53
:100AC0000E94AD06D9CED23F41F160F4D03FB9F0DB
:100AD000D13F81F0112309F446C00111B3CE8C2F10
:100AE0008F711FC0D33F01F1D43FA1F780916A02FB
:100AF00082FD24C08C2F8F71112311F312C011239A
:100B000041F0053008F0B8CE8C2F8F710E94BF06DF
:100B1000B3CE063008F0B0CEF7CF8C2F8F71111105
:100B2000CFCF0E949D06A8CE112329F08C2F8F7164
:100B30000E949106A1CE0E948C069ECE112349F000
:100B4000CF718C2F0E949D0663E08C2F0E94560B64
:100B500093CE81E00E94740B023008F48DCE82E0C7
:100B60000E94740B89CE002359F0D93309F006CFC7
:100B7000EFEFF7EE23E0E150F0402040E1F7FCCE4C
:100B80008C2F8F719DCF0F931F93CF93DF93EC0129
:100B9000688179818D810E94A0078C010E94EA06FC
:100BA0000E946006B801CE010E94CC03DF91CF9174
:100BB0001F910F910895CF93DF93EC018C818823CF
:100BC00099F0CE010E94D301811111C00E94890ABF
:100BD000882351F08D81882339F080916A0282FF49
:100BE00003C082E00E94740BDF91CF910895CE0183
:100BF0000E94C305CE010E94A401F6CF90E080E0E0
:100C00000E94181590E080E00E943D150E94B00AF5
:100C10000E94440B0E9424130E94081308950E940E
:100C20003B160E94FE0508950E94A00A0E940F062E
:100C3000089592959F70963091F058F4925F9F704E
:100C4000923058F4803F19F030F4883E30F481E05F
:100C500008959A5FF4CF843FD1F380E00895883EF1
:100C6000B0F3813FD1F7F3CFFC012481222339F087
:100C7000808191810E9495070E941906089580E065
:100C80000895A6E0B0E0E7E4F6E00C94441E269652
:100C9000E2E00C94601EA7E0B0E0E1E5F6E00C9421
:100CA000441E2796E2E00C94601E08950E945506AB
:100CB00008950E94560690939F0180939E01089587
:100CC00008950E945906089520919E0130919F0138
:100CD000822B932B0E945906089520919E013091FA
:100CE0009F01822393230E945906089520919E011B
:100CF00030919F01822793270E94590608950E94F0
:100D0000550608950E947F0608950E9482069093DA
:100D10009D0180939C01089590E080E00E948506EB
:100D2000089521E030E0A90102C0440F551F8A95C3
:100D3000E2F7CA010E948506089521E030E002C072
:100D4000220F331F8A95E2F780919C0190919D01BB
:100D5000822B932B0E948506089521E030E002C08B
:100D6000220F331F8A95E2F72095309580919C01E0
:100D700090919D01822393230E948506089521E08E
:100D800030E002C0220F331F8A95E2F780919C0168
:100D900090919D01822793270E94850608952091B6
:100DA0009C0130919D01822B932B0E948506089512
:100DB00020919C0130919D01822393230E948506FE
:100DC000089520919C0130919D01822793270E94D4
:100DD000850608950895262F277091E001C0990F88
:100DE0002A95EAF723E0769567952A95E1F7660F4D
:100DF000771F660F771FFA01E60FF71F50E040E0FC
:100E0000682F70E08191DF0111979B01042E02C0D1
:100E1000369527950A94E2F72170219528272923F2
:100E200028272C934F5F5F4F4430510559F70895A1
:100E3000A82FA77023E0969587952A95E1F7880F4C
:100E4000991F880F991FFB01E80FF91F50E040E040
:100E500080E0219130E00A2E02C0369527950A9451
:100E6000E2F721703327042E01C0220F0A94EAF71B
:100E7000822B4F5F5F4F4430510559F70895262F5D
:100E8000923070F4833060F4682F70E083E0989FB4
:100E9000600D711D112448E951E0822F0E94EB067C
:100EA0000895292F923068F4833058F490E068E96F
:100EB00071E033E0239F800D911D11240E941807DB
:100EC000089580E00895B0E0A0E0E9E6F7E00C9432
:100ED0003D1E7C0100919C0110919D0180919E011D
:100EE00090919F01082B192BCFE0D0E0CC24C39424
:100EF000D12CBC2EC6010C2E02C0880F991F0A945B
:100F0000E2F780239123892B49F4219790F7B12CA4
:100F10008B2DCDB7DEB7E9E00C94591EB7018C2FAD
:100F20000E94750E019789F3F3CFCF93DF93EC0105
:100F30000E946307BE010E94750EDF91CF91089554
:100F40001F93CF93DF93EB0190919701992339F091
:100F5000CB010E949507DF91CF911F9108958823BF
:100F600069F0CB010E946307182F682FCE010E9401
:100F70003F07BE01812F0E94750EEDCFCB010E946D
:100F80005107182FF6CF1F93CF93DF93C091A00185
:100F900017E08091A1018C1304C0DF91CF911F91C4
:100FA0000895D0E01C9FF0011D9FF00D1124EE5517
:100FB000FE4F208131814281538164817581868118
:100FC0000E944B062196C770E4CF2091DA01309140
:100FD000DB014091DC015091DD016091DE017091F7
:100FE000DF018091E0010E944B060895CF93DF93CB
:100FF0008091E001807F09F04DC08091DF0188235E
:1010000009F448C0E091A0015091A101C091DB0119
:10101000D091DA016091DC017091DD0147E05E174B
:10102000C9F18E2F90E0E49FF0011124EE55FE4FA0
:101030002481222391F1489FF001499FF00D112452
:10104000DF01AE55BE4F11962C9111972C1325C080
:101050002C912D1322C015962C91159721111DC08E
:1010600012962D913C91261B370B283C3105A8F494
:101070008091E0018F7080618093E001E855FE4F20
:1010800080818F70806180838AED91E00E94DB0512
:101090000E94C307DF91CF910895FC013196E7705C
:1010A000BECF482F2091A0019091A10157E02913B4
:1010B00002C080E0089530E0529FF001539FF00D90
:1010C0001124EE55FE4F8181681306C080814813BC
:1010D00003C085818111EECF2F5F3F4F2770E7CF8F
:1010E000A4E1B0E0E6E7F8E00C943A1E8C0186E05B
:1010F000F801DE011F9601900D928A95E1F7F80143
:101100008481E5809AEDA92E91E0B92E9091DE01BF
:1011100091111FC08823D1F0EE20A9F0C8010E94D0
:101120003406F82E882379F087E0F801D501019084
:101130000D928A95E1F7C5010E94A2020E94F6076E
:101140000E94E5075FC0C8010E94DB05FF24F394FD
:1011500059C0C080D18082809380F090DF012091BF
:10116000DC013091DD01A401421B530BFF2009F487
:10117000F9C0483C510508F0A7C0882309F442C0D3
:101180009091DB018091E001282F207F09F05CC065
:101190009D1116C09091DA01C91212C0E1104EC023
:1011A0008F7080618093E0010E94E5078AED91E0F5
:1011B0000E94DB058091E001F8018683F12C22C0BA
:1011C000E1103CC06D2D8C2D0E9451086D2D8C2D91
:1011D0000E945108E82E8111F1CFCF86D88A8F85E1
:1011E00098890E949507292F22952F70243078F432
:1011F0009F702230A8F09923B9F0F8019681907F72
:1012000099F4FE2C8F2D6496ECE00C94561E2A5F08
:101210002F70223068F0C8010E94DB05EF2CF1CF5F
:10122000992311F0882369F3805E883050F3F3CF5F
:10123000803F38F3815F833070F7E3CF8091E00126
:1012400081608093E001BACF9D1113C09091DA01C3
:10125000C9120FC0E1100DC08683C8010E94DB05D2
:1012600087E0F801AAEDB1E001900D928A95E1F7CF
:1012700067CFC8010E943406882309F464CFEE20AA
:1012800009F461CF8091E001803288F02091DA0189
:101290003091DB01398728879B868A869091DE0111
:1012A0009C871D868E87CE0108960E94DB0587E00D
:1012B000F801AAEDB1E001900D928A95E1F70E9444
:1012C000F6070E94E50742CF9091E001292F207F89
:1012D000A1F4682D9A8A898AA6017A899E2D0E9496
:1012E00041068AED91E00E94DB0587E0F50111924D
:1012F0008A95E9F70E94E50761CF882309F482CF38
:101300008091DB018D1110C08091DA01C8120CC0F0
:10131000E1100AC09683C8010E94DB0587E0F50151
:1013200011928A95E9F76ECFC8010E94340688238E
:1013300009F409CFEE2009F406CF8091E001803254
:1013400008F4B5CF2091DA013091DB013A8329838B
:101350009C828B829091DE019D831E828F83CE01C1
:101360000196A3CF483C5105B8F5882309F4EECE89
:10137000FE2CEE2009F4E7CE8091DB018D111EC01A
:101380008091DA01C8121AC08091E00180FD0DC081
:10139000982F907F51F08683903F09F45ECF982F6D
:1013A000907F905F8F70892B57CF87E0F801AAED6F
:1013B000B1E001900D928A95E1F724CFC8010E9417
:1013C0003406811174CF8091E00181608093E00147
:1013D000C8010E94DB0516CF682D9A8A898AA6016A
:1013E0007A899E2D0E94410687E0F50111928A9527
:1013F000E9F7A6CEAEE0B0E0E0E0FAE00C94431EE0
:10140000288739874A875B876C877D878E87CE01DF
:1014100008960E9470088823B1F06C85662341F01D
:10142000288539854A855B857D858E850E944B069A
:1014300017E08091A0019091A10189133DC02E96E3
:10144000E3E00C945F1E87E0FE013896DE01119602
:1014500001900D928A95E1F78C85882349F32091BC
:10146000A10130E0C9010196877099274091A00140
:101470004817190699F097E0929FD001939FB00DFD
:101480001124AE55BE4FFE01319601900D929A95F2
:10149000E1F78093A1010E94C307CACF0E941406FE
:1014A0001092A1011092A00187E0EAEDF1E0DF01C6
:1014B0001D928A95E9F7BCCF819FC00111248E55FA
:1014C0009E4F0E947008882309F4B9CFE091A001D3
:1014D0001E9FF0011124EE55FE4F20813181428183
:1014E00053816481758186810E944B068091A001A1
:1014F00090E00196877099278093A0019ACF809100
:1015000009028695869586950895809109028770CF
:10151000089590910902977081E009F480E00895A0
:1015200080913502089590913502892B8093350280
:1015300008958095909135029823909335020895EF
:1015400010923502089590913402892B80933402D1
:1015500008958095909134029823909334020895D1
:1015600010923402089508950E94B30A089590914C
:101570000A02292F282331F08095892380930A02BB
:101580000E94B40A089508950E94C30A0895909194
:101590000B02292F2823281729F0982B90930B0250
:1015A0000E94C40A089590910B02292F282331F03C
:1015B0008095892380930B020E94C40A089580912C
:1015C0000B02882329F010920B0280E00E94C40ACB
:1015D0000895CF93C091350280913402C82B809139
:1015E0000B02882331F0C82B0E94621581110E94E2
:1015F000DF0A8C2FCF910895CF93DF93C091020122
:10160000D09103010E94E90A8883C0910201D09120
:10161000030148E050E061E072E0CE010E947F1ECD
:10162000892B59F088E0FE01A1E0B2E001900D9213
:101630008A95E1F7CE010E94F114DF91CF910895D0
:10164000CF93DF93C0910001D09101010E94E90A7C
:101650008983C0910001D091010140E250E061EE28
:1016600071E0CE010E947F1E892B59F080E2FE01BD
:10167000A1EEB1E001900D928A95E1F7CE010E94B2
:10168000FC14DF91CF91089580911601882339F0E1
:101690008091690287FF03C00E94200B08950E9479
:1016A000FC0A089508950E94520B089590916A02D1
:1016B00092FF11C098E0899F90011124622B6093E2
:1016C00009020E949D06809109028695869586955D
:1016D0000E94530B08950E949D06089510920902DE
:1016E00080E00E94530B0895909109028095892310
:1016F00080930902282F277069F4891759F0909177
:101700006A0292FF07C08695869586950E94AD066F
:101710000E946E0B089590916A0292FB222720F995
:10172000281769F080FB92F990936A028091690210
:1017300090916A020E94D30B82E00E94740B08957C
:1017400080916A0282FB882780F991E089270E94B4
:101750008B0B089581E00E948B0B089580E00E941E
:101760008B0B08956FEF7FEF90E080E00E94D11E19
:10177000089590E080E00E949D1E21E0863E9E4FED
:1017800009F020E0822F089582E090E00E94951EEB
:10179000089583E090E00E94951E089584E090E013
:1017A0000E949D1E0895BC0184E090E00E94D11E1D
:1017B0000895AB01BC018FE090E00E94C51E089522
:1017C000AB01BC0183E190E00E94C51E089560E07A
:1017D00070E0CB010E94E00B089560E070E0CB0167
:1017E0000E94D90B0E94E70B0895A8E0B0E0EBEF50
:1017F000FBE00C94441E66EE7EEF90E080E00E94D9
:10180000D11E60E082E090E00E94B31E81E090E093
:1018100090939F0180939E0161E083E090E00E949D
:10182000B31E60E074E184E090E00E94D11E60E0AD
:1018300086E090E00E94B31E60E087E090E00E94A6
:10184000B31E40E050E0BA0188E090E00E94C51E5F
:1018500060E084E290E00E94B31E60E087E190E0E7
:101860000E94B31E60E08CE090E00E94B31E60E036
:101870008DE090E00E94B31E19821A821B821C82A6
:101880001D821E821F82188648E050E068E170E0E9
:10189000CE0101960E94A31E40E050E0BA0180E212
:1018A00090E00E94C51E0E94ED0B2896E2E00C9489
:1018B000601E0E94F50B0895682F8EE090E00E9454
:1018C000B31E0895A6E0B0E0E8E6FCE00C94421EEA
:1018D0000E9428178C018091360290913702801760
:1018E000910781F019821A820E942817682F498176
:1018F0005A81792F80E090E00E94720210933702A3
:10190000009336022696E4E00C945E1E0E94341783
:1019100060933E0270933F02809340029093410295
:1019200060933A0270933B0280933C0290933D0295
:101930000895089508950E94990C089508950E94AD
:101940009E0C08958BE69FE00E9472100E949A0CF4
:101950000E949B0C089581E008950E94AB0C0895AD
:101960000E94AB0C0895089508950E94B30C0E9444
:10197000B40C08950E94B90B811102C00E94590C49
:101980000E94C40B809342020E94CE0B90936A0285
:10199000809369020E9495100E94C90B90E00E94FA
:1019A000610680919C0190919D010E94820608959C
:1019B0000E941F170E94D70F0E94BA0C0E94460275
:1019C0000E949F0C0895A6E0B0E0E9EEFCE00C94C4
:1019D0003B1E0E94AD0C81110AC00E94620C0E9445
:1019E00046130E9459022696EBE00C94571E0E9463
:1019F000E70F1091380280E00E94750F181307C09E
:101A00001091390281E00E94750F181731F380910F
:101A1000420281FD0E947B0F0E94B00CC82E88E319
:101A2000A82E82E0B82E10E099249394812F0E9472
:101A3000750F082FF50181915F01081729F1F12C2D
:101A4000EE24E394D02ED8268D2D8E21A9F0CC2023
:101A500099F0F9821A830E9428179C838B839D82B8
:101A600091E0802F8E2109F490E049815A816B81A9
:101A70007C818D810E947202F394EE0CF3E0FF12E0
:101A8000E3CFF50131970083113019F40E94860CE1
:101A9000A6CF11E0CBCF1F93CF93DF930E947A0E96
:101AA000EC01C11580E5D807F0F5C11580E4D80731
:101AB00008F09CC0C03ED10520F5CD3CD10508F012
:101AC00082C0C83AD10578F4C53AD10508F073C090
:101AD000C130D10519F1209709F1C430D105F0F4D6
:101AE000D0E0C0E01BC0C33CD105D0F7C85AD0E05D
:101AF000CC0FDD1FC05BDE4F0990D881C02DD464B0
:101B00000DC0C11580E2D80708F0D1C0C11581E031
:101B1000D80708F05AC0C83ED10510F7CE01DF91B2
:101B2000CF911F910895C03682E5D80718F5C034CB
:101B300082E5D80708F06BC0C03282E5D80708F00C
:101B40005FC0C11582E5D80708F497C02C2F2695F1
:101B5000269580E2289F900111248C2F8370C1E08C
:101B6000D0E002C0CC0FDD1F8A95E2F7C22BD32B49
:101B7000DD68D4CFC03A82E5D80760F4C03882E58A
:101B8000D80708F459C0CF71D0E0DC2FCC27C46F40
:101B9000D06AC4CFC03C82E5D80708F462C0C03E1A
:101BA00082E5D80708F09CCFDC2FCC27CC27DF714B
:101BB000C06FD06AB3CFC55AD0E0CA57DE4FC881D4
:101BC000D0E0D064ABCFD065A9CF8D2F0E941C0F81
:101BD000182FCE0199270E947A0EC12FD0E0DC2F5A
:101BE000CC27CC27DF71C82BD92B98CFCE019927D2
:101BF0000E947A0ECC27DF70C82BD92BD06A8ECFEB
:101C0000CF71D0E0DC2FCC27C16FD06A87CF2C2FCB
:101C100026952695277080E2289F900111248C2F0D
:101C20008370C1E0D0E002C0CC0FDD1F8A95E2F7DF
:101C3000C22BD32BDC6872CF2C2F269526952770CC
:101C400080E2289F900111248C2F8370C1E0D0E0A6
:101C500002C0CC0FDD1F8A95E2F7C22BD32BDA68C6
:101C60005DCF8C2F8F710E941C0FC82FD0E0DC2F0E
:101C7000CC27CC27DF71D06251CF8C2F8F710E947F
:101C80001C0F55E0D695C7955A95E1F7CF70D0E077
:101C9000DC2FCC27282F30E084FF05C044E0220F42
:101CA000331F4A95E1F7C22BD32BD06937CF8D2F45
:101CB0008F710E941C0F182FCE0199270E947A0E57
:101CC000C12FD0E0DC2FCC27CC27DF71C82BD92B3C
:101CD000D2CF462F723030F4633020F4672F0E9449
:101CE0004B01089590E080E008950E94690E0E94E3
:101CF0004B0D089582389105B9F1B0F48133910507
:101D000009F47DC048F48932910509F46DC08A3226
:101D1000910509F47BC008958533910509F45FC0EE
:101D20008933910509F10895833E9105D9F138F47D
:101D3000803E910529F1823E910579F10895863E14
:101D40009105D9F1873E910509F43EC0843E910585
:101D500041F520916A0221FF24C08091690284FD2F
:101D600019C087EE90E0089520916902237009F070
:101D70005AC020916A0223FF14C089E290E00895BE
:101D80002091690220FD38C030916A0230FF09C0FD
:101D900024FF43C090E080E008952091690222FD75
:101DA000F7CF08952091690222FD3AC030916A026E
:101DB00030FD39C024FFF5CFEDCF2091690223FF1C
:101DC000F0CF24FDE7CFCDCF2091690223FD2EC0B7
:101DD00030916A0231FFEECF84EE90E008952091B9
:101DE000690225FFDECFC9CF2091690225FD21C000
:101DF00020916A0223FFD5CF89E390E0D2CF2091D2
:101E0000690226FFCECF8AE290E008952091690210
:101E100026FFC7CF81E390E0089583EE90E0089518
:101E200082EE90E0089580EE90E0089586EE90E0D6
:101E3000089585E390E008959091690292FF10C0A3
:101E400041E0282F2471243009F040E031E0282FB0
:101E50002871283009F030E0431711F02CE0822778
:101E600093FF10C041E0282F2471243109F040E095
:101E700031E0282F2871283109F030E0431711F0A4
:101E80002CE0822730916A0230FF10C051E0282FE9
:101E90002171213009F050E041E0282F28712830CD
:101EA00009F040E0541711F029E0822731FF10C0FB
:101EB00041E0282F2171213109F040E031E0282F45
:101EC0002871283109F030E0431711F029E082270A
:101ED00094FD877E089580E0089508950E946D0F17
:101EE000089508950E94710F0895E82FF0E0E359D6
:101EF000FD4F8081089508951F93CF93DF9329E8C4
:101F000031E0C1E0D0E0D90150E040E08D918F3F59
:101F100091F0E82FE295EF70F0E011A18F70BE0113
:101F200001C0660F8A95EAF7962F9095912391A3A9
:101F300082A1862B82A34F5F5F4F4330510531F75B
:101F40002D5F3F4F81E02F383807E9F6DF91CF91C1
:101F50001F910895CF93DF93AC01A62FB0E083E0EB
:101F6000689FF0011124E757FE4F70E081E060E0C8
:101F700091919F3FD1F0C92FC295CF70D0E028A199
:101F800030E09F7002C0359527959A95E2F720FDC5
:101F90000CC0282F622B7F5F880F733049F7A40F86
:101FA000B51F6C93DF91CF91089520E0F3CF0E948D
:101FB0007C0F10926E0210926D0210926C021092C1
:101FC0006B0282E00E941D100E946E0F0895A2E035
:101FD000B0E0EDEEFFE00C94431E1A82198260E03F
:101FE000CE0101960E94AA0F61E0CE0101960E94E7
:101FF000AA0F42E050E0BE016F5F7F4F8BE692E098
:102000000E947F1E21E0009709F420E0892B31F027
:1020100089819A8190936C0280936B0242E06DE615
:1020200072E08BE692E00E941E10182F0E94720F41
:10203000812F2296E3E00C945F1E0895B0E0A0E0AB
:10204000E4E2F0E10C943E1E6C017B01042FC22FF0
:10205000222379F081E0809345020E942817909313
:1020600044028093430280E0CDB7DEB7E8E00C94F1
:102070005A1ED0914502DD23B1F380914302909125
:1020800044020E944017059770F310E0A801B601C2
:10209000C7010E947F1E892B31F0A801B601C7013C
:1020A0000E948C1ECD2F109245028C2FDDCF0E94F6
:1020B000F0180E94D80C0E94FD1808950E94021981
:1020C0000E94E30C0E941C1908950E94C1160E94F0
:1020D000D6180E94A20C0E9457100E945E100E9407
:1020E000B50CFBCF909391018093900108950E94CD
:1020F000B20B089580E00E94750F817008950E94D0
:10210000E70F2FEF86E791E0215080409040E1F704
:1021100000C000000E94E70F0E947A10882321F07F
:102120000E9477100E94731708950E947F100895EF
:10213000CF93DF93EB0186319C4711F50E94900A03
:102140009D81992399F08A7A91E009F490E0909327
:102150004602811109C089E20E940D160E94440BBB
:1021600080E0DF91CF91089585E3F6CF809146021C
:10217000811104C089E20E942416F0CF85E3FBCFD1
:1021800081E0EFCFCF93DF93EC01FB0185818823C2
:1021900009F4D2C09E0130572332310508F0B2C095
:1021A0000E94CE0B90936A0280936902FE01E15077
:1021B000F047E232F10520F4EB50F14E0C942E1E64
:1021C0008091690281608093690293C080916A0264
:1021D000886080936A028DC0809169028260F3CF2B
:1021E000809169028460EFCF809169028860EBCFB3
:1021F00080916A028160EDCF80916A028260E9CFAE
:10220000809169028061DFCF809169028062DBCFBB
:10221000809169028064D7CF0E9414068091690280
:102220008068D1CF809169028C60CDCF80916A02A5
:102230008360CFCF809169028E7FC5CF80916A0283
:10224000877FC7CF809169028D7FBDCF8091690262
:102250008B7FB9CF80916902877FB5CF80916A0269
:102260008E7FB7CF80916A028D7FB3CF8091690254
:102270008F7EA9CF809169028F7DA5CF8091690261
:102280008F7BA1CF0E941406809169028F779BCF2C
:1022900080916902837F97CF80916A028C7F99CF6A
:1022A0008091690282FB992790F921E0922790FBA7
:1022B00082F990FB83F987CF80916A02982F9095DD
:1022C00091708E7F892B90FB81F983CF9091690269
:1022D000892F8F7B96FF806476CF0E9414069091A1
:1022E0006902892F97FB87F980586DCF81E00E94A2
:1022F0005C0C8091690290916A020E94D30B0E944B
:10230000140680E0DF91CF91089580E0F0CF9091A6
:102310006902892F8F7E94FF806155CF9091690269
:10232000892F8E7F90FF81604ECF90916A02892F16
:10233000877F93FF88604DCF81E0E4CF282F35EB76
:102340002303C001112497FF04C080589109892FED
:10235000089580589F4FFBCF80914D0280FF0DC0A4
:102360006091090170E0660F771F6038710570F5A4
:102370006115710569F1862F089581FF07C060918D
:10238000090184E0689FB0011124EFCF6091090139
:1023900082FD0AC080914C028823A9F02091080197
:1023A00060910901821710F088E0ECCF869FC00190
:1023B000112433E0880F991F3A95E1F7622F70E0FE
:1023C0000E941A1ED2CF68E070E0D5CF8FE7089543
:1023D00081E0089580914D0280FF0CC0609105015D
:1023E00070E075956795759567956115710549F16B
:1023F000862F089581FF06C06091050170E07595F4
:102400006795F3CF6091050182FD0BC090914B025F
:102410009923A1F06091040180910501961738F08D
:10242000682F70E06038710500F38FE70895899F89
:10243000C001112470E00E941A1EF4CF61E070E028
:10244000D7CF81E008959091500220915102922BB4
:1024500020915302922B20915202922B31F098E05E
:1024600090934C0291E090934B028D3C31F40E948A
:10247000AC1181958093510208958E3C19F40E940D
:10248000AC11F8CF8F3C31F40E94AC118195809350
:1024900050020895803D19F40E94AC11F8CF893D97
:1024A00029F40E94EA118093520208958A3D21F492
:1024B0000E94EA118195F7CF8B3D31F40E94EA1119
:1024C00081958093530208958C3D19F40E94EA117E
:1024D000F8CF9FE2980F983070F4815D990B21E05E
:1024E00030E001C0220F8A95EAF780914F02822BDB
:1024F00080934F0208958D3D31F480914D028160AB
:1025000080934D0208958E3D21F480914D028260AA
:10251000F7CF8F3DB9F780914D028460F1CF4091A4
:1025200050028D3C59F48091510287FF0DC01092EA
:10253000510241110BC010924C0208C08E3C81F434
:102540008091510218169CF3442381F0809152022D
:1025500090915302892B09F05AC010924B020895B2
:102560008F3C49F447FFF0CF109250028091510206
:102570008111ECCFE0CF803D19F41416ACF3E4CF19
:1025800090915202893D29F41916F4F610925202E4
:10259000DBCF8A3D19F497FFD7CFF8CF9091530244
:1025A0008B3D29F497FFD0CF10925302CDCF8C3DB5
:1025B00019F41916CCF3C8CF9FE2980F983090F415
:1025C000815D990B21E030E0B90102C0660F771FF1
:1025D0008A95E2F7CB01809590914F0289238093F1
:1025E0004F02B2CF8D3D31F480914D028E7F8093AA
:1025F0004D02AACF8E3D21F480914D028D7FF7CF01
:102600008F3D09F0A1CF80914D028B7FF0CF0895CF
:102610000E9428179C019091500280915102982BA2
:1026200021F030934A022093490290915202809106
:102630005302982B21F030934802209347028EE4F6
:1026400092E00E940A15089586E0EEE4F2E0DF01D0
:102650001D928A95E9F710924C0210924B0210924B
:102660004D020895FC01828181110EC08381811188
:102670000BC08481811108C091E08581811101C066
:1026800090E0892F8170089581E0FCCFA6E0B0E052
:10269000ECE4F3E10C94431E86E0EEE4F2E0DE01AC
:1026A000119601900D928A95E1F7109250021092C6
:1026B000510210925202109253028B819C81892BFD
:1026C00089F08091490290914A020E944017AC0122
:1026D00090914C029923C9F180910A018417150643
:1026E00008F440C08D819E81892B91F08091470232
:1026F000909148020E944017AC0190914B0299239F
:1027000009F46AC0809106018417150608F472C0A6
:10271000BE016F5F7F4F8EE492E00E9455168111DB
:1027200005C08EE492E00E94321381110E940813CA
:1027300086E0FE013196AEE4B2E001900D928A95FA
:10274000E1F72696E3E00C945F1E20910B018AE0EE
:10275000289F900111242417350720F69F5F90933E
:102760004C0202C09F3FD1F71B81112359F00E94F8
:10277000AC119FEF11160CF491E0899F802D11246C
:10278000809350021C81112359F00E94AC119FEFDD
:1027900011160CF491E0899F802D11248093510231
:1027A00080915002882309F49DCF1091510211238A
:1027B00009F498CF0E949E11882351F08093500213
:1027C000812F0E949E11882329F0809351028ACF85
:1027D00081E0F4CF81E0F9CF209107018AE0289FC2
:1027E000900111242417350708F092CF9F5F909332
:1027F0004B0202C09F3FD1F71D81112359F00E9467
:10280000EA119FEF11160CF491E0899F802D11249D
:10281000809352021E81112359F00E94EA119FEF0A
:1028200011160CF491E0899F802D1124809353029E
:1028300080915202882309F46BCF10915302112327
:1028400009F466CF0E949E11882351F080935202B2
:10285000812F0E949E11882329F08093530258CF24
:1028600081E0F4CF81E0F9CF0F931F93CF93DF93F3
:10287000C42FD22FFC0185818823C9F040935602D2
:102880000E942817909355028093540280E28C0F87
:10289000883040F4C77081E001C0880FCA95EAF71C
:1028A0000E94BE03DF91CF911F910F910895109167
:1028B0005602141332C080915402909155020E9426
:1028C0004017883C910548F5C0E2CD0F1D17B9F0BF
:1028D00080E2810F883040F4177081E001C0880FDA
:1028E0001A95EAF70E94C503C83048F481E09D2F8D
:1028F000977001C0880F9A95EAF70E94BE03802F57
:102900000E94B503C83070F6D77081E001C0880F0F
:10291000DA95EAF70E94C503C5CF80E28C0F8830B4
:1029200008F6C77081E001C0880FCA95EAF7F2CFB8
:102930000F93DB0188519C4787309105A0F5FC017E
:10294000E95EF04E0C942E1E06E221EE41EE6AE1A5
:102950007CE7CD010E94341480E00F91089507E2D6
:1029600025EE45EE6BE17CE7F4CF06E221EE40EE8A
:1029700068E17CE7EECF07E225EE44EE69E17CE713
:10298000E8CF06E221EE42EE6CE17CE7E2CF07E21F
:1029900025EE46EE6DE17CE7DCCF08E221E045EE76
:1029A0006EE17CE7D6CF15968C91882319F01092B2
:1029B0005602D3CF81E0D1CF90935C0280935B022B
:1029C0000895E0915B02F0915C02309729F001904C
:1029D000F081E02D0995089580E008950E94E114AA
:1029E0000895E0915B02F0915C02309721F0028043
:1029F000F381E02D09950895E0915B02F0915C026E
:102A0000309739F026E0DC012C930480F581E02D2D
:102A100009950895E0915B02F0915C02309739F0DE
:102A200022E0DC012C930680F781E02D09950895C2
:102A3000A3E0B0E0EEE1F5E10C94441E20915902D0
:102A400030915A0228173907A1F090935A028093C7
:102A50005902E0915B02F0915C02309751F023E063
:102A600029839B838A830084F185E02DCE01019622
:102A700009952396E2E00C94601EA3E0B0E0E3E445
:102A8000F5E10C94441E209157023091580228170A
:102A90003907A1F09093580280935702E0915B02AE
:102AA000F0915C02309751F024E029839B838A8364
:102AB0000084F185E02DCE01019609952396E2E090
:102AC0000C94601E20910201309103012E5F3F4F54
:102AD00080911601882379F08091690287FF0BC0ED
:102AE00020910001309101012E5F3F4F9EE180E077
:102AF000915018F4089596E0FACFF90141919F01A1
:102B00004423B1F38F5FF4CF882321F19091160114
:102B1000992311F19091690297FF1EC0E82FE69565
:102B2000E695E695EE31B0F4209100013091010177
:102B3000E20FF32FF11D228130E0877041E050E079
:102B400002C0440F551F8A95E2F72423352381E004
:102B5000232B91F480E0089520910201309103012C
:102B6000F9013296285F3F4F9191981721F0E217B3
:102B7000F307D1F7EFCF81E008959C01FC01329675
:102B80009FEF80E04191461751F09F3F19F44111AA
:102B900001C0982F8F5F8630A9F79F3F09F40895F1
:102BA000290F311D97FD3A95F90162830895FC01C3
:102BB000329608962191261303C0DF0111971C92CB
:102BC000E817F907B9F70895E62FE695E695E69533
:102BD000EE3168F4E80FF92FF11D677021E030E065
:102BE00001C0220F6A95EAF78281822B82830895C1
:102BF000E62FE695E695E695EE3170F4E80FF92FAD
:102C0000F11D677021E030E001C0220F6A95EAF7FC
:102C100020958281282322830895682F80911601B0
:102C2000882359F08091690287FF07C080910001D5
:102C3000909101010E94E415089580910201909104
:102C400003010E94BD150895682F80911601882305
:102C500059F08091690287FF07C08091000190912F
:102C600001010E94F81508958091020190910301DD
:102C70000E94D715089580911601882379F08091DC
:102C8000690287FF0BC0E0910001F09101013296CB
:102C90008EE1DF011D928A95E9F70895E091020126
:102CA000F0910301329686E0F4CFDC01FB0111962E
:102CB0009C9111978181981322C012968C91129742
:102CC000882319F0928189131AC013968C91139757
:102CD000882319F09381891312C015968C9115974A
:102CE000882319F0958189130AC014969C91992321
:102CF00021F081E02481291303C080E001C081E03C
:102D00008170089508950E9482160895811106C069
:102D100081E080935D020E948316089582E0F9CFDE
:102D200083E080935D020E94831608950E948616B8
:102D3000089581E080935D020E94831608950E94A9
:102D400099160895089508950E94A3160895089568
:102D500008950E94A21608950E94A7160E94E70FE8
:102D60000E94A81680E00E94750F91E0811107C0B3
:102D700081E00E94750F91E0811101C090E0892FE0
:102D8000089585B7806885BF85B7806885BF089539
:102D90001F921FB61F9211248F939F93AF93BF93DF
:102DA00080915E02811113C080916F029091700238
:102DB000A0917102B09172024196A11DB11D809344
:102DC0006F0290937002A0937102B0937202BF9150
:102DD000AF919F918F911F901FBE1F90189580916A
:102DE0007702843031F10E94290210925E0288E15C
:102DF00090E020E40FB6F894A895809360000FBE91
:102E00002093600083B7817F846083BF83B7816034
:102E100083BF7894889583B78E7F83BF0FB6F8946D
:102E2000A895809160008861809360001092600096
:102E30000FBE08950E9414060E942E02089582E09B
:102E400084BD93E095BD9AEF97BD80936E00089581
:102E50002FB7F89480916F0290917002A091710247
:102E6000B09172022FBF08952FB7F89460916F024E
:102E70007091700280917102909172022FBF08953B
:102E80009C014FB7F89480916F0290917002A091CD
:102E90007102B09172024FBF821B930B0895789418
:102EA0001F921FB61F9211248F939F93AF93BF93CE
:102EB00080916F0290917002A0917102B0917202A4
:102EC0000196A11DB11D80936F0290937002A09393
:102ED0007102B0937202BF91AF919F918F911F9039
:102EE0001FBE1F90189587E797E79093010880937E
:102EF000000888E19AE00FB6F894A89580936000E6
:102F00000FBE90936000FFCF88E19AE00FB6F8946F
:102F1000A895809360000FBE90936000FFCF8091D2
:102F2000670208959B01BA01909177029430E9F409
:102F30008F708093E9009FEF8091E800915085FDAC
:102F400006C085ED8A95F1F700009111F5CF8091CB
:102F5000E80085FF0AC050E040E0C9010E949319D3
:102F60008091E8008E778093E800089543E050E078
:102F7000BC0182E00E949217089546E050E0BC0137
:102F800082E00E949217089540E250E0BC0182E086
:102F90000E9492170895CF93DF93EC0148E050E030
:102FA000BC0181E00E94921788E0FE01AFE5B2E02B
:102FB00001900D928A95E1F7DF91CF91089580916C
:102FC0007602811109C00E94231B0E94801B809100
:102FD000E20084608093E2000895109276020895E2
:102FE0000E94991608956091730281E0611101C0F9
:102FF00080E00E94901608959091770281E09430CD
:1030000009F080E0609173020E949616089542E0F4
:1030100061EC81E00E949F1A42E261EC82E00E9432
:103020009F1A9091770281E0943009F080E06091DE
:1030300073020E948616089580917902833009F404
:1030400061C030F48130D1F1823009F49EC008951E
:103050008A3009F48AC08B3009F46FC0893009F0D6
:1030600050C080917802813209F04BC080917C027F
:1030700090917D02029708F044C08091E800877F1C
:103080008093E8008091E80082FF37C09091F300C0
:103090008091F200029731F48091F100813011F0BB
:1030A000863021F48091F100809367028091E800DE
:1030B0008B778093E8000E94D31A23C08091780216
:1030C000813AF9F48091E800877F8093E80080914D
:1030D0007C0290917D02892B61F468E08FE592E09B
:1030E00070E00E94E2198091E8008B778093E800FD
:1030F000089560E090E080E0F3CF80917702811145
:10310000C1CF089580917802813AD9F780917C02ED
:1031100090917D02892BA9F78091E800877F8093A9
:10312000E8008091E80080FFFCCF80911601809339
:10313000F1008091E8008E77BCCF809178028132D7
:1031400001F780917C0290917D02892BD1F68091CC
:10315000E800877F8093E8000E94D31A80917A026A
:10316000809316010E94140608958091780281329E
:1031700041F68091E800877F8093E8000E94D31A8F
:1031800080917B0280936802089580917802813A51
:1031900009F0B7CF8091E800877F8093E8008091A5
:1031A000E80080FFFCCF80916802C1CF84B7877FA1
:1031B00084BF0FB6F894A8958091600088618093D1
:1031C0006000109260000FBE80E890E00FB6F894A7
:1031D00080936100909361000FBE0E949F16089536
:1031E0000E94231B0E94801BE2EEF0E0808184603D
:1031F000808378940E94FF1D08958CE091E00E94E6
:10320000DC14089580917702853031F48091770243
:10321000853019F00E941A1708950E94EF168091C8
:103220007502882399F30E94AC16882379F30E94D3
:103230007D190E941406EACF08959A0140917E02FA
:1032400050917F020E9425190895492F5527433038
:10325000510519F168F44130510509F444C0423078
:10326000510509F445C090E080E050E040E025C001
:103270004132510549F142325105A9F784E490E009
:1032800045EE51E061157105C1F086EB90E04FE22B
:1032900051E06130710589F0E6CF992781309105C1
:1032A00081F0009729F00297F1F6E8EBF0E002C018
:1032B000EEEDF0E0849190E0AF01F901518340839D
:1032C0000895E2ECF0E0F6CF89E090E044EF50E0C2
:1032D0006115710591F389E090E04DE051E06130B6
:1032E000710559F3C0CF82E190E04DE151E0E5CFA7
:1032F0008BE390E042EE50E0E0CF80E189BD82E1D7
:1033000089BD09B400FEFDCF8091D8008F7D8093E8
:10331000D8008091E00082608093E0008091E0001E
:1033200081FDFCCF0895AF92BF92CF92DF92FF92C2
:103330000F931F93CF93DF936C01EB018A010E94DF
:10334000F21AF82E811123C00115110539F0F80188
:1033500080819181C81BD90BC80ED91EB12CA12C1C
:103360002097A9F08091E80085FD22C08091E800B7
:103370008E778093E80001151105A1F0F801808196
:103380009181A80EB91EB182A08285E0F82E8F2D02
:10339000DF91CF911F910F91FF90DF90CF90BF9061
:1033A000AF9008950E94F21A8823D1F2F82EEFCF41
:1033B000F60181916F018093F1002197FFEFAF1A21
:1033C000BF0ACECFFC0180917E0290917F028617CA
:1033D0009707A0F06115710529F49091E8009E7798
:1033E0009093E80090E06115710551F4911108C0C7
:1033F0008091E80082FF34C080E00895BC01F2CFE4
:10340000809177028823C1F18530C1F18091E80075
:1034100083FD30C08091E80082FDEACF8091E80012
:1034200080FFE1CF8091F3002091F200382F6115E9
:10343000710519F02830310558F091E02830310538
:1034400009F090E02091E8002E772093E800CBCFA0
:1034500081918093F100615071092F5F3F4FE7CF59
:1034600080917702882341F0853041F08091E80017
:1034700083FFBECF81E0089582E0089583E0089540
:10348000FC0180917E0290917F0286179707A0F041
:103490006115710529F48091E8008E778093E8002A
:1034A00090E06115710551F4911108C08091E80018
:1034B00082FF35C080E00895BC01F2CF8091770291
:1034C0008823C9F18530C9F18091E80083FD31C0BE
:1034D0008091E80082FDEACF8091E80080FFE1CF93
:1034E0008091F3002091F200382F6115710519F0D9
:1034F0002830310558F091E02830310509F090E08E
:103500008091E8008E778093E800CBCF8491809300
:10351000F1003196615071092F5F3F4FE6CF8091E6
:103520007702882341F0853041F08091E80083FFE5
:10353000BDCF81E0089582E0089583E00895982F3B
:10354000973028F08F708093E90081E00895909380
:10355000E900242F762F50E0981731F07091EC009D
:103560002091ED005091F00021FD02C09F5FE8CF57
:103570003091EB003E7F3093EB003091ED003D7FCA
:103580003093ED003091EB0031603093EB0070939D
:10359000EC002093ED005093F0002091EE0027FD09
:1035A000E5CF80E008958091780287FF13C0809175
:1035B000E80082FF06C08091E8008B778093E800E6
:1035C00004C0809177028111F2CF08958091770233
:1035D0008823D9F38091E80080FFF8CF8091E8003C
:1035E0008E77ECCF2091E4003091E50095E6A901BB
:1035F0002091EC00822F817020FF06C08091E800AE
:1036000080FF06C080E008952091E80022FD1AC0E6
:1036100080917702882389F0853089F08091EB00D2
:1036200085FD0FC02091E4003091E500421753075B
:10363000F9F29150E1F684E0089582E0089583E084
:10364000089581E008950E94921B0E949A1BE0EE6B
:10365000F0E0808181608083E8EDF0E080818F7709
:10366000808319BCA7EDB0E08C918E7F8C93808114
:103670008F7E80831092760208950F931F93CF93CD
:10368000DF930E94921B0E949A1BC8EDD0E08881B4
:103690008F77888388818068888388818F7D8883FD
:1036A00019BC109277021092730210927502109258
:1036B000740200EE10E0F80180818B7F80838881A6
:1036C0008160888342E060E080E00E949F1AE1EE22
:1036D000F0E080818E7F8083E2EEF0E08081816087
:1036E0008083808188608083F80180818E7F8083E1
:1036F000888180618883DF91CF911F910F91089518
:10370000E8EDF0E080818F7E8083E7EDF0E080815E
:103710008160808384E082BF81E0809376020E9492
:103720003D1B0895E8EDF0E080818E7F808310924C
:10373000E20008951092DA001092E10008951F92BD
:103740000F920FB60F9211242F933F934F935F93D5
:103750006F937F938F939F93AF93BF93EF93FF9359
:103760008091E10082FF0BC08091E20082FF07C0E0
:103770008091E1008B7F8093E1000E94FE1D80918B
:10378000DA0080FF19C08091D80080FF15C08091B9
:10379000DA008E7F8093DA008091D90080FF96C096
:1037A00080E189BD82E189BD09B400FEFDCF81E0E1
:1037B000809377020E94DF178091E10080FF19C09B
:1037C0008091E20080FF15C08091E2008E7F80939F
:1037D000E2008091E20080618093E2008091D80055
:1037E00080628093D80019BC85E0809377020E94A4
:1037F000F3178091E10084FF2BC08091E20084FFE9
:1038000027C080E189BD82E189BD89B5982F91707B
:1038100080FFFBCF8091D8008F7D8093D80080916E
:10382000E1008F7E8093E1008091E2008F7E8093A3
:10383000E2008091E20081608093E2008091730257
:10384000882309F449C084E0809377020E94FC1722
:103850008091E10083FF29C08091E20083FF25C0B1
:103860008091E100877F8093E10082E0809377027E
:10387000109273028091E1008E7F8093E10080912D
:10388000E2008E7F8093E2008091E200806180936D
:10389000E20042E060E080E00E949F1A8091F00028
:1038A00088608093F0000E94F017FF91EF91BF9124
:1038B000AF919F918F917F916F915F914F913F91C8
:1038C0002F910F900FBE0F901F90189519BC10925A
:1038D00077020E94ED1770CF8091E30087FD93E09F
:1038E00090937702B3CF1F920F920FB60F921124CD
:1038F0002F933F934F935F936F937F938F939F93F8
:10390000AF93BF93CF93DF93EF93FF93D091E900F1
:10391000DF708091EC00C82FC17080FDC0E810926C
:10392000E9008091F000877F8093F00078940E94F6
:10393000B71C1092E9008091F00088608093F0003D
:10394000CD2BCF70C093E900FF91EF91DF91CF9124
:10395000BF91AF919F918F917F916F915F914F91A7
:103960003F912F910F900FBE0F901F901895AAE2D4
:10397000B0E0EDEBFCE10C94431E88E792E020916F
:10398000F100FC012193CF01F2E080389F07B9F7E5
:103990000E941C188091E80083FF1EC1809178026C
:1039A000909179029A3008F017C1E92FF0E0E25EB9
:1039B000F04E0C942E1E803899F0823809F00CC11C
:1039C00080917C028F70873008F006C18093E900F7
:1039D0008091EB0085FB882780F91092E90006C0F2
:1039E0008091740290917502911182609091E8002B
:1039F000977F9093E8008093F1001092F1008091FE
:103A0000E8008E77E5C0882309F4D3C0823009F03E
:103A1000E3C080917A028111D6C080917C028F70C0
:103A20002FEF280F263008F0D7C08093E9002091AF
:103A3000EB0020FFC8C0933031F48091EB0080622E
:103A40008093EB00C0C09091EB0090619093EB00ED
:103A500021E030E001C0220F8A95EAF72093EA00C6
:103A60001092EA008091EB008860EACF8111B4C027
:103A700010917A021F778091E3008078812B8093E8
:103A8000E3008091E800877F8093E8000E94D31ACA
:103A90008091E80080FFFCCF8091E30080688093F4
:103AA000E30082E0111183E08093770295C0805893
:103AB000823008F091C080917A0290917B028C3D17
:103AC00023E09207A1F583E08A838AE289834FB7D6
:103AD000F894DE01139620E03EE051E2E32FF0E09F
:103AE00050935700E49120FF03C0E295EF703F5FD1
:103AF000EF708E2F90E0EA30C0F0C7968D939D93C3
:103B00002F5F243159F74FBF8091E800877F809362
:103B1000E8006AE270E0CE0101960E94E21980910D
:103B2000E8008B778093E80057C0C096E7CF60919C
:103B30007C0270917D02AE014F5F5F4F0E941D19A4
:103B4000BC01892B09F448C09091E800977F9093BD
:103B5000E80089819A810E94401AE1CF8038E1F51E
:103B60008091E800877F8093E800809173028093C2
:103B7000F10045CF811130C090917A02923060F50A
:103B80008091E800877F8093E800909373020E9401
:103B9000D31A80917302882311F084E005C08091CC
:103BA000E30087FDFACF81E0809377020E94071837
:103BB00013C080917A02813079F481E0933009F06A
:103BC00080E0809375021092E9008091E800877F81
:103BD0008093E8000E94D31A8091E80083FF0AC016
:103BE0008091E800877F8093E8008091EB008062FD
:103BF0008093EB00AA96E3E00C945F1E0895CF93A8
:103C0000809177028823A1F0C091E900CF70909154
:103C1000EC00892F817090FD80E8C82B1092E9009C
:103C20008091E80083FD0E94B71CCF70C093E9002B
:103C3000CF91089597FB072E16F4009407D077FDD7
:103C400009D00E946B1E07FC05D03EF4909581952B
:103C50009F4F0895709561957F4F0895EE0FFF1F58
:103C60000590F491E02D09942F923F924F925F922C
:103C70006F927F928F929F92AF92BF92CF92DF927C
:103C8000EF92FF920F931F93CF93DF93CDB7DEB7E1
:103C9000CA1BDB0B0FB6F894DEBF0FBECDBF099475
:103CA0002A88398848885F846E847D848C849B84CC
:103CB000AA84B984C884DF80EE80FD800C811B81DA
:103CC000AA81B981CE0FD11D0FB6F894DEBF0FBE09
:103CD000CDBFED010895AA1BBB1B51E107C0AA1F70
:103CE000BB1FA617B70710F0A61BB70B881F991F9D
:103CF0005A95A9F780959095BC01CD010895FB01D7
:103D0000DC0104C08D910190801921F44150504094
:103D1000C8F7881B990B0895FB01DC0102C00190D4
:103D20000D9241505040D8F70895F999FECF92BDB9
:103D300081BDF89A992780B50895A8E1B0E042E0E6
:103D400050E00C94D91EDC01A40FB51F4150504027
:103D500048F0CB01840F951F2E910E94B41E415054
:103D60005040D0F70895262FF999FECF92BD81BD1E
:103D7000F89A019700B4021639F01FBA20BD0FB6A9
:103D8000F894FA9AF99A0FBE08950396272F0E9485
:103D9000B41E0E94B31E252F0E94B41E242F0C9423
:103DA000B41E0196272F0E94B41E0C94B31EDC0192
:103DB000CB01FC01F999FECF06C0F2BDE1BDF89A36
:103DC000319600B40D9241505040B8F70895F894E0
:103DD000FFCF0D040D045D045D04C204DE043C0449
:103DE0003C04E3045405630563051A118E11221186
:103DF000EC10F0102611F4102A1136110011871161
:103E000004113A1108113E1166110C1142116D1185
:103E1000121148115011F8102E11FC103211161108
:103E20004C115C1176118511E6101E119511B51417
:103E3000BB14A414AF14C114C714CD14DB1C031D90
:103E4000EC1D031DEC1D361D571DEC1DAE1DBA1DCE
:103E50000C022C02280850011E0A14018F17CB17E0
:103E6000C417BD17B61701E200E900EA00B500B6B5
:103E700000B700CD008301CC008A0192019401219A
:103E800002230224022502260227022A02B300B4DA
:103E9000006F0070009F01CB019F02A0028182830E
:103EA000E200E900EA00B500B600B700CD008301EA
:103EB000CC008A01920194012102230224022502EE
:103EC000260227022A02B300B4006F0070009F018F
:103ED000CB019F02A0028182839166349094970067
:00000001FF
