:100000000C94FB030C9418040C9418040C9418041E
:100010000C9418040C9418040C9418040C941804F0
:100020000C9418040C9418040C9433260C94072791
:100030000C940E200C9418040C9418040C941804BE
:100040000C9418040C9418040C9418040C941804C0
:100050000C9418040C9495200C9418040C94180417
:100060000C9418040C9418040C9418040C941804A0
:100070000C9418040C9418040C9418040C94180490
:100080000C9418040C9418040C9418040C94180480
:100090000C9418040C9418040C9418040C94180470
:1000A0000C9418040C9418040C941804000000001C
:1000B0000000000000000000000000000000000040
:1000C0000000000000000000000000000000000030
:1000D0000000000000000000000000000000000020
:1000E0000000000000000000000000000000000010
:1000F0000000000000000000000000000000000000
:1001000000000000000000000000000000000000EF
:10011000F0F0F0F0F0F0F0F0F0F0F0F0F0F0F0F0DF
:1001200000000000000000000000000000000000CF
:10013000000000000000000000000000F0F0F0F0FF
:10014000F0F0F0F0F0F0F0F0F0F0F0F0F0F0F0F0AF
:10015000F0F0F0F0F0F0F0F000000000000000001F
:10016000000000000000000000000000000000008F
:10017000000000000000000000000000000000007F
:1001800000000000F0F0F0F00F0F0F0F0F0F0F0F37
:10019000000000000000000000000000000000005F
:1001A0000F0F0F0FF0F0F0F000000000F0F0F0F093
:1001B0000F0F0F0FFFFFFFFFFFFFFFFFFFFFFFFF0F
:1001C000000000000000000000000000FFFFFFFF33
:1001D000F0F0F0F0F0F0F0F00F0F0F0F0F0F0F0F27
:1001E0000F0F0F0FF0F0F0F0F0F0F0F00000000053
:1001F00000000000000000000000000000000000FF
:10020000FFFFFFFF000000000000000000000000F2
:100210000F0F0F0FFFFFFFFF0F0F0F0F000000006A
:1002200000000000FFFFFFFF00000000F0F0F0F012
:100230000F0F0F0F00000000000000000000000082
:100240000F0F0F0FF0F0F0F00F0F0F0F0000000076
:1002500000000000000000000F0F0F0FF0F0F0F0A2
:100260000F0F0F0F00000000000000000F0F0F0F16
:10027000F0F0F0F00000000000000000FFFFFFFFC2
:10028000000000000000000000000000000000006E
:10029000000000000000000000000000000000005E
:1002A000F0F0F0F00F0F0F0F000000000000000052
:1002B0000F0F0F0FF0F0F0F0F0F0F0F0F0F0F0F0C2
:1002C0000F0F0F0F000000000F0F0F0FF0F0F0F0F6
:1002D000F0F0F0F0F0F0F0F0FFFFFFFFF0F0F0F0E2
:1002E000FFFFFFFFFFFFFFFFFFFFFFFF0F0F0F0FDE
:1002F0000F0F0F0F0F0F0F0F0F0F0F0FFFFFFFFF4E
:1003000000000000000000000000000000000000ED
:1003100000000000F0F0F0F0F0F0F0F00F0F0F0F21
:1003200000000000000000000000000000000000CD
:1003300000000000FFFFFFFF00000000FFFFFFFFC5
:1003400000000000000000000000000000000000AD
:100350000F0F0F0FF0F0F0F0F0F0F0F0FFFFFFFFE5
:100360000F0F0F0F00000000000000000000000051
:100370000000000000000000FFFFFFFF0000000081
:10038000000000000000000000000000F0F0F0F0AD
:100390000F0F0F0F00000000000000000000000021
:1003A000000000000000000000000000FFFFFFFF51
:1003B000FFFFFFFFFFFFFFFFFFFFFFFFFFFFFFFF4D
:1003C000FFFFFFFFFFFFFFFFFFFFFFFFFFFFFFFF3D
:1003D000FFFFFFFF0F0F0F0F0F0F0F0F00000000A9
:1003E0000000000000000000F0F0F0F0F0F0F0F08D
:1003F0000F0F0F0F0F0F0F0F000000000000000085
:1004000000000000F0F0F0F0FFFFFFFF0000000030
:1004100000000000000000000000000000000000DC
:1004200000000000000000000000000000000000CC
:1004300000000000000000000000000000000000BC
:1004400000000000000000000000000000000000AC
:10045000000000000000000000000000F0F0F0F0DC
:10046000F0F0F0F00F0F0F0FF0F0F0F0F0F0F0F010
:100470000000000000000000F0F0F0F0F0F0F0F0FC
:100480000F0F0F0FFFFFFFFF000000000000000034
:10049000000000000000000000000000000000005C
:1004A0000000000000000000000000001E001F000F
:1004B0002000210022002300240025001E0F05003B
:1004C000047F3F1F643214643214783C1E1E140AE9
:1004D000052223252628292A2C2D2F303233353684
:1004E000383A3B3D3E4042434547494A4C4E5051C5
:1004F000535557595A5C5E6062646668696B6D6FEC
:1005000071737577797B7D7F81838587898A8C8EEE
:1005100090929496989A9C9E9FA1A3A5A7A8AAACF6
:10052000AEAFB1B3B4B6B8B9BBBCBEBFC1C2C3C530
:10053000C6C7C9CACBCCCDCED0D1D2D2D3D4D5D6D2
:10054000D7D7D8D9D9DADADBDBDBDCDCDCDCDCDD05
:10055000DDDDDDDCDCDCDCDCDBDBDBDADAD9D9D8E9
:10056000D7D7D6D5D4D3D2D2D1D0CECDCCCBCAC981
:10057000C7C6C5C3C2C1BFBEBCBBB9B8B6B4B3B1B0
:10058000AFAEACAAA8A7A5A3A19F9E9C9A9896944B
:1005900092908E8C8A89878583817F7D7B79777520
:1005A00073716F6D6B6968666462605E5C5A5957FF
:1005B000555351504E4C4A4947454342403E3D3BBE
:1005C0003A3836353332302F2D2C2A292826252348
:1005D00022FFAA7F55400001010101010101010133
:1005E00002020202020202020203030303030303E4
:1005F00003040404040404040505050505060606B1
:100600000606070707070708080808090909090A6D
:100610000A0A0B0B0B0C0C0C0D0D0D0E0E0E0F0F12
:100620000F101011111112121313141415151616A0
:100630001717181819191A1A1B1B1C1D1D1E1E1F0F
:100640002020212222232424252626272829292A5E
:100650002B2C2D2D2E2F3031323233343536373886
:10066000393A3B3C3D3E3F40414243444546474882
:10067000494A4C4D4E4F50515354555658595A5B58
:100680005D5E5F616264656668696B6C6D6F7072F8
:10069000737577787A7B7D7E8082838587888A8C64
:1006A0008E8F91939596989A9C9EA0A2A3A5A7A998
:1006B000ABADAFB1B3B5B7BABCBEC0C2C4C6C9CB8F
:1006C000CDCFD1D4D6D8DBDDDFE2E4E7E9EBEEF045
:1006D000F3F5F8FAFDFF00AE00AF00DA128180D921
:1006E000F1DB20A4A62EAF00A0C0D30000A1C8D388
:1006F0000000AED580A83F408D14200012035400A6
:100700007500740065006C0050006100640000001A
:100710001C03490074007300460069007200650004
:100720006D0061006E00530061006D000000040365
:10073000090409023B00020100A0FA0904000001BB
:100740000301010009211101000122440007058174
:100750000308000109040100010300000009211140
:10076000010001223200070582032000011201006E
:10077000020000000800CB9FF0010001020001050B
:10078000010980A101850319012AB700150126B7C7
:1007900000950175108100C0050C0901A1018504B7
:1007A00019012AA002150126A002950175108100E9
:1007B000C005010906A101050719E029E715002573
:1007C00001950875018102950175088101050719D8
:1007D0000029FF150026FF00950675088100050811
:1007E000190129051500250195057501910295014D
:1007F00075039101C00011241FBECFEFDAE0DEBF08
:10080000CDBF11E0A0E0B1E0E8EEF5E502C0059053
:100810000D92A23EB107D9F727E0A2EEB1E001C0E8
:100820001D92A830B207E1F70E94B5120C949E2ADF
:100830000C94000082E008950E94CE1C882331F0C1
:1008400060E074E08CEA90E00E94601B80E0089514
:10085000811111C0623078F4443068F484E0689FFC
:10086000F0011124E40FF11DEE0FFF1FE455FB4FC3
:1008700085919491089581E090E008950E94280464
:10088000089581E008950E944104089581E008954B
:100890000E94410408950E944804089508950E940A
:1008A0004E040895A6E0B0E0E8E5F4E00C944A298F
:1008B00049835A839E833091E90189819A8131115C
:1008C0001AC03E81332399F0222389F00E94D60971
:1008D000182F682F89819A810E94B30969817A81D2
:1008E000812F0E94B8102696E3E00C9466290E949E
:1008F000C409182FF3CF0E94D60969817A81F1CFFC
:10090000FC01262F40815181628173818481958110
:100910000E9452040895CF93DF93EC0161E00E949E
:100920008004BE010E944304DF91CF910895CF93CC
:10093000DF93EC0160E00E948004BE010E944F043E
:10094000DF91CF91089581E008950E94A304089556
:10095000CF93C82F0E9488088C2F0E94A5042FEFE8
:1009600084E39CE0215080409040E1F700C000000B
:10097000CF91089581E00E94A8040E94B9200895B3
:1009800080E00E94A8040E94CA2008950F931F933C
:10099000CF93DF938C0161E00E948004EC01F801A9
:1009A000858181110E94271AB801CE010E944B0453
:1009B000811106C080E0DF91CF911F910F910895C2
:1009C000B801CE010E94B21E8823A1F3B801CE0166
:1009D0000E94721D882371F3B801CE010E94481D48
:1009E000882341F3B801CE010E94461A882311F3EF
:1009F000F8018581882361F0C330FCE7DF07E9F067
:100A000058F4C115ECE7DE07A9F0C130DC47B9F0B6
:100A1000C8010E944604CFCFCB358CE7D807A9F098
:100A2000CC35ECE7DE0771F0CA35DC4789F70E9468
:100A3000ED0DEECF0E94BA04BDCF0E94F50D0E94CD
:100A4000C004B8CF0E94E30DE3CF0E94F10DE0CFC8
:100A50000E94EA1F0E9455050E948F180E94B31C35
:100A600008950E9459050E947E190E94EF1F089563
:100A7000089581E008950895CF93DF93D82F0E94C1
:100A80003905C82F882319F08D2F0E943B058C2F24
:100A9000DF91CF9108950895CF93C82F0E94380514
:100AA0008C2F0E943C05CF91089580E00E944C0558
:100AB00008950E94FB1E0E944C050895CF930E944A
:100AC000FB1EC82F8091E4018C1779F0C093E401DC
:100AD0000E947A206093E5017093E6018093E7011C
:100AE0009093E8018C2F0E944C05CF910895ADE0C2
:100AF000B0E0EDE7F5E00C944B29488759876A8709
:100B00007B878C879D8791110E94230D1F8286E031
:100B1000FE013896DE01119601900D928A95E1F75B
:100B20008D8181110DC029813A814B815C816D815C
:100B30007E818F810E946D0C2D96E2E00C946729D6
:100B4000CE0101960E948B048111EDCFF5CFFC01FF
:100B50002481213021F4808191810E94080A089526
:100B6000CF93C82F882399F08CEF8C0F813A88F4AB
:100B70008C2F0E94721F882329F08C2F0E94B51F92
:100B80000E94920D8C2F0E94AD1F0E94920DCF915A
:100B9000089580E28C0F883048F4C77081E001C06E
:100BA000880FCA95EAF70E94060DEFCFEBE5EC0F30
:100BB000E33040F4F0E0EF59FE4F808190E00E9476
:100BC000131FE5CFC85ACB3110F7EC2FF0E0EE0F32
:100BD000FF1FE55DFE4F808191810E94381FD7CFB6
:100BE000882339F19CEF980F913A28F40E94B51FA1
:100BF0000E94920D089590E2980F983050F48770FB
:100C000091E001C0990F8A95EAF7892F0E940C0D97
:100C1000EFCF9BE5980F933028F490E080E00E949E
:100C2000131F0895885A8B3120F490E080E00E94D1
:100C3000381F08951F93CF93DF93182FEB010E9465
:100C4000B005209739F4812F0E94F005DF91CF91F4
:100C50001F9108958FE99FE00197F1F700C0000010
:100C60002197EFCF70E060E0893311F460E570E028
:100C70000E941A060895882321F00E94060D0E9402
:100C8000920D0895882321F00E940C0D0E94920D70
:100C90000895B0E0A0E0EFE4F6E00C9444296C0184
:100CA000D62FC72FFC011581068102950F700E9477
:100CB000FC0CE82E8823F9F0E12E1123E1F08C2FB3
:100CC000807F803461F080E28D0F883008F18C2FB6
:100CD000807E803221F4D230D8F00023C9F0809198
:100CE000D80282FF15C082E00E94B70D0E94FC0C62
:100CF00091E0E82EE926BC2EB2949FE0B922FBE0F9
:100D0000FB15B8F1EB2DF0E0E056F54D0C940429FD
:100D1000E12CF1CF0C2F0F70C07F11F00295007FF6
:100D2000112399F0002359F080E28D0F883010F0E4
:100D3000D11107C0802F0E94060D0E94920D8D2FA9
:100D40005AC0802F0E94160DF8CF8D2F0E94F005FB
:100D5000002379F080E28D0F883010F0D11104C0AB
:100D6000802F0E940C0D03C0802F0E941C0D0E943A
:100D7000920DEB2DE850FF0B349720F40E94FB1EE0
:100D80000E944C05EE2089F00E94F80C80FD0DC0F9
:100D9000F60115820E94F20C0E941109C6010E9400
:100DA00053080E94F20C0E942109CDB7DEB7E9E09A
:100DB0000C9460292C2F2F70F22EC07FC03219F0B6
:100DC000F29480EFF822DD2341F0D130D1F11123EC
:100DD00009F444C00023F1F0B2CF8091D80282FD23
:100DE00015C0112359F0FF2029F08F2D0E94060D08
:100DF0000E94920D80E00E94B005BBCF80E00E946F
:100E0000F005FF2009F4B5CF8F2DABCF112369F08A
:100E1000011104C08F2D0E943B06ABCF013009F0B9
:100E2000A8CF8F2D0E943A0DA4CF0111A2CF8F2DF4
:100E30000E9442068F2D0E94460D8F2D0E942A0D82
:100E400098CF112321F0063008F093CFE3CF05307F
:100E500008F08FCF8F2D0E9442068BCF0023D1F355
:100E6000D93349F43FEF87EE93E031508040904012
:100E7000E1F700C000008D2F0E94F0057ACF8C2F83
:100E800086958695837069F0813009F072CF8D2F39
:100E90009C2F9370111102C080E090E00E94381FD7
:100EA00068CF8D2F9C2F9370111102C080E090E0CD
:100EB0000E94131F5ECF8C2F8370A1F5111159CFA3
:100EC0004D2F429546954770440F440F2D2F2F709C
:100ED00030E0042E02C0220F331F0A94E2F790E0A4
:100EE00080E0D4FF09C08FE090E002C0880F991F16
:100EF0004A95E2F780959095C695C695C370822B6A
:100F0000932BC23049F058F4C13019F00E94E10827
:100F100030CF0E94D8082DCF0E94EA082ACF0E9425
:100F2000D50827CF8695112311F08C2F8170882347
:100F300009F41FCF4D2F429546954770440F440F3B
:100F40002D2F2F7030E0042E02C0220F331F0A9481
:100F5000E2F790E080E0D4FF09C08FE090E002C0AB
:100F6000880F991F4A95E2F780959095C695C6958A
:100F7000C370822B932BC23049F058F4C13019F062
:100F80000E944C09F6CE0E944309F3CE0E945509F7
:100F9000F0CE0E94F908EDCECF70112329F08C2FEE
:100FA0000E9411098D2F37CF8D2F0E9442068C2F62
:100FB0000E942109DECED23F41F160F4D03FB9F06A
:100FC000D13F81F0112309F446C00111B8CE8C2F16
:100FD0008F711FC0D33F01F1D43FA1F78091D80298
:100FE00082FD24C08C2F8F71112311F312C01123A5
:100FF00041F0053008F0BDCE8C2F8F710E9433096F
:10100000B8CE063008F0B5CEF7CF8C2F8F71111106
:10101000CFCF0E941109ADCE112329F08C2F8F71F3
:101020000E940509A6CE0E940009A3CE112349F013
:10103000CF718C2F0E94110963E08C2F0E94990DB3
:1010400098CE81E00E94B70D023008F492CE82E083
:101050000E94B70D8ECE002359F0D93309F00BCF83
:10106000EFEFF7EE23E0E150F0402040E1F701CF51
:101070008C2F8F719DCF0F931F93CF93DF93EC0134
:10108000688179818D810E94130A8C010E945E091A
:101090000E94D408B801CE010E944906DF91CF9189
:1010A0001F910F910895CF93DF93EC018C818823DA
:1010B00099F0CE010E94C604811111C00E94FC0C5F
:1010C000882351F08D81882339F08091D80282FFE6
:1010D00003C082E00E94B70DDF91CF910895CE0149
:1010E0000E943B08CE010E949704F6CF90E080E07A
:1010F0000E94131F90E080E00E94381F0E94230D81
:101100000E94920D08950E94BD1F0E9476080895C6
:101110000E94130D0E948308089592959F70963047
:1011200091F058F4925F9F70923058F4803F19F01C
:1011300030F4883E30F481E008959A5FF4CF843F24
:10114000D1F380E00895883EB0F3813FD1F7F3CF2B
:10115000FC012481222339F0808191810E94080AB8
:101160000E948D08089580E00895A6E0B0E0EBEBC2
:10117000F8E00C944B292696E2E00C946729A7E04E
:10118000B0E0E5ECF8E00C944B292796E2E00C94F3
:10119000672908950E94C90808950E94CA0890937B
:1011A000F1018093F001089508950E94CD080895FB
:1011B0002091F0013091F101822B932B0E94CD08F8
:1011C00008952091F0013091F101822393230E9430
:1011D000CD0808952091F0013091F10182279327E5
:1011E0000E94CD0808950E94C90808950E94F3083E
:1011F00008950E94F6089093EF018093EE01089500
:1012000090E080E00E94F908089521E030E0A90113
:1012100002C0440F551F8A95E2F7CA010E94F908DF
:10122000089521E030E002C0220F331F8A95E2F7D3
:101230008091EE019091EF01822B932B0E94F9088F
:10124000089521E030E002C0220F331F8A95E2F7B3
:10125000209530958091EE019091EF0182239323A8
:101260000E94F908089521E030E002C0220F331FE8
:101270008A95E2F78091EE019091EF018227932702
:101280000E94F90808952091EE013091EF01822B20
:10129000932B0E94F90808952091EE013091EF01FF
:1012A000822393230E94F90808952091EE01309142
:1012B000EF01822793270E94F90808950895262FA9
:1012C000277091E001C0990F2A95EAF723E07695FF
:1012D00067952A95E1F7660F771F660F771FFA016A
:1012E000E60FF71F50E040E0682F70E08191DF01CA
:1012F00011979B01042E02C0369527950A94E2F7B8
:10130000217021952827292328272C934F5F5F4F91
:101310004430510559F70895A82FA77023E09695FA
:1013200087952A95E1F7880F991F880F991FFB0170
:10133000E80FF91F50E040E080E0219130E00A2EF4
:1013400002C0369527950A94E2F721703327042EC0
:1013500001C0220F0A94EAF7822B4F5F5F4F44309F
:10136000510559F70895262F923068F4843058F4C7
:1013700034E0939FB0011124680F711D4AEE51E0D3
:10138000822F0E945F090895923070F4843060F4D7
:1013900044E0949F900111246AEE71E0820F932F34
:1013A000911D0E948C09089580E00895B0E0A0E0AE
:1013B000ECEDF9E00C9444297C010091EE011091D0
:1013C000EF018091F0019091F101082B192BCFE0F2
:1013D000D0E0CC24C394D12CBC2EC6010C2E02C06C
:1013E000880F991F0A94E2F780239123892B49F4EF
:1013F000219790F7B12C8B2DCDB7DEB7E9E00C9497
:101400006029B7018C2F0E94C410019789F3F3CF94
:10141000CF93DF93EC010E94D609BE010E94C41055
:10142000DF91CF9108951F93CF93DF93EB019091BC
:10143000E901992339F0CB010E94080ADF91CF918D
:101440001F910895882369F0CB010E94D609182FB7
:10145000682FCE010E94B309BE01812F0E94C410E3
:10146000EDCFCB010E94C409182FF6CF1F93CF9365
:10147000DF93C091F20117E08091F3018C1304C057
:10148000DF91CF911F910895D0E01C9FF0011D9F27
:10149000F00D1124EC50FE4F2081318142815381A7
:1014A0006481758186810E94BF082196C770E4CF50
:1014B00020912C0230912D0240912E0250912F024A
:1014C0006091300270913102809132020E94BF0817
:1014D0000895CF93DF9380913202807F09F04DC051
:1014E00080913102882309F448C0E091F2015091C3
:1014F000F301C0912D02D0912C0260912E027091C7
:101500002F0247E05E17C9F18E2F90E0E49FF001B3
:101510001124EC50FE4F2481222391F1489FF001C9
:10152000499FF00D1124DF01AC50BE4F11962C9154
:1015300011972C1325C02C912D1322C015962C9198
:10154000159721111DC012962D913C91261B370B2A
:10155000283C3105A8F4809132028F70806180931D
:101560003202E650FE4F80818F70806180838CE272
:1015700092E00E9453080E94360ADF91CF910895AD
:10158000FC013196E770BECF482F2091F201909177
:10159000F30157E0291302C080E0089530E0529F24
:1015A000F001539FF00D1124EC50FE4F8181681320
:1015B00006C08081481303C085818111EECF2F5F63
:1015C0003F4F2770E7CFA4E1B0E0E9EEFAE00C94DA
:1015D00041298C0186E0F801DE011F9601900D92F1
:1015E0008A95E1F7F8018481E5809CE2A92E92E0DA
:1015F000B92E9091300291111FC08823D1F0EE20B6
:10160000A9F0C8010E94A808F82E882379F087E085
:10161000F801D50101900D928A95E1F7C5010E946C
:10162000A7050E94690A0E94580A5FC0C8010E946B
:101630005308FF24F39459C0C080D18082809380E6
:10164000F090310220912E0230912F02A401421B12
:10165000530BFF2009F4F9C0483C510508F0A7C01E
:10166000882309F442C090912D0280913202282FE4
:10167000207F09F05CC09D1116C090912C02C91208
:1016800012C0E1104EC08F708061809332020E94C0
:10169000580A8CE292E00E94530880913202F801CD
:1016A0008683F12C22C0E1103CC06D2D8C2D0E9450
:1016B000C40A6D2D8C2D0E94C40AE82E8111F1CF31
:1016C000CF86D88A8F8598890E94080A292F22956B
:1016D0002F70243078F49F702230A8F09923B9F04D
:1016E000F8019681907F99F4FE2C8F2D6496ECE0A2
:1016F0000C945D292A5F2F70223068F0C8010E9487
:101700005308EF2CF1CF992311F0882369F3805E01
:10171000883050F3F3CF803F38F3815F833070F728
:10172000E3CF80913202816080933202BACF9D1163
:1017300013C090912C02C9120FC0E1100DC0868316
:10174000C8010E94530887E0F801ACE2B2E00190C2
:101750000D928A95E1F767CFC8010E94A8088823F7
:1017600009F464CFEE2009F461CF80913202803217
:1017700088F020912C0230912D02398728879B8692
:101780008A86909130029C871D868E87CE010896AE
:101790000E94530887E0F801ACE2B2E001900D929C
:1017A0008A95E1F70E94690A0E94580A42CF9091F7
:1017B0003202292F207FA1F4682D9A8A898AA601F6
:1017C0007A899E2D0E94B5088CE292E00E9453080F
:1017D00087E0F50111928A95E9F70E94580A61CFD6
:1017E000882309F482CF80912D028D1110C0809141
:1017F0002C02C8120CC0E1100AC09683C8010E94D6
:10180000530887E0F50111928A95E9F76ECFC80178
:101810000E94A808882309F409CFEE2009F406CF16
:1018200080913202803208F4B5CF20912C023091A1
:101830002D023A8329839C828B82909130029D8372
:101840001E828F83CE010196A3CF483C5105B8F587
:10185000882309F4EECEFE2CEE2009F4E7CE809129
:101860002D028D111EC080912C02C8121AC08091C9
:10187000320280FD0DC0982F907F51F08683903FFB
:1018800009F45ECF982F907F905F8F70892B57CF90
:1018900087E0F801ACE2B2E001900D928A95E1F7A1
:1018A00024CFC8010E94A808811174CF8091320210
:1018B000816080933202C8010E94530816CF682DC0
:1018C0009A8A898AA6017A899E2D0E94B50887E0A6
:1018D000F50111928A95E9F7A6CEAEE0B0E0E3E714
:1018E000FCE00C944A29288739874A875B876C87F4
:1018F0007D878E87CE0108960E94E30A8823B1F087
:101900006C85662341F0288539854A855B857D8510
:101910008E850E94BF0817E08091F2019091F3013B
:1019200089133DC02E96E3E00C94662987E0FE0102
:101930003896DE01119601900D928A95E1F78C851B
:10194000882349F32091F30130E0C90101968770A3
:1019500099274091F2014817190699F097E0929F54
:10196000D001939FB00D1124AC50BE4FFE013196B3
:1019700001900D929A95E1F78093F3010E94360A47
:10198000CACF0E9488081092F3011092F20187E0FA
:10199000ECE2F2E0DF011D928A95E9F7BCCF819F6E
:1019A000C00111248C509E4F0E94E30A882309F441
:1019B000B9CFE091F2011E9FF0011124EC50FE4FCF
:1019C00020813181428153816481758186810E94A9
:1019D000BF088091F20190E001968770992780936B
:1019E000F2019ACF80913B0286958695869508955F
:1019F00080913B028770089590913B02977081E03F
:101A000009F480E00895809147020895909147027B
:101A1000892B8093470208958095909147029823DF
:101A200090934702089510924702089590914602BC
:101A3000892B8093460208958095909146029823C1
:101A400090934602089510924602089508950E94C8
:101A5000260D089590913C02292F282331F080957E
:101A6000892380933C020E94270D089508950E94C7
:101A7000360D089590913D02292F2823281729F02B
:101A8000982B90933D020E94370D089590913D024E
:101A9000292F282331F08095892380933D020E94CD
:101AA000370D089580913D02882329F010923D0260
:101AB00080E00E94370D08950F931F93CF93DF931B
:101AC0000091040110910501C091470280914602E6
:101AD000C82B80913D02882331F0C82B0E945D1FE6
:101AE00081110E94520DF801C083C0910401D09170
:101AF000050148E050E063E372E0CE010E94112A44
:101B0000892B59F088E0FE01A3E3B2E001900D9229
:101B10008A95E1F7CE010E94081FDF91CF911F91B6
:101B20000F9108950E945C0D089508950E94950DEF
:101B300008959091D80292FF11C098E0899F90017A
:101B40001124622B60933B020E94110980913B0299
:101B50008695869586950E94960D08950E94110996
:101B6000089510923B0280E00E94960D0895909196
:101B70003B028095892380933B02282F277069F4CC
:101B8000891759F09091D80292FF07C086958695E3
:101B900086950E9421090E94B10D08959091D80266
:101BA00092FB222720F9281769F080FB92F9909385
:101BB000D8028091D7029091D8020E94160E82E03E
:101BC0000E94B70D08958091D80282FB882780F982
:101BD00091E089270E94CE0D089581E00E94CE0DEC
:101BE000089580E00E94CE0D08956FEF7FEF90E0A2
:101BF00080E00E94692A089590E080E00E94352AE2
:101C000021E0863E9E4F09F020E0822F089582E079
:101C100090E00E94272A089583E090E00E94272AFE
:101C2000089584E090E00E94352A0895BC0184E084
:101C300090E00E94692A0895AB01BC018FE090E01A
:101C40000E945D2A0895AB01BC0183E190E00E94EF
:101C50005D2A089560E070E0CB010E94230E089594
:101C600060E070E0CB010E941C0E0E942A0E0895D5
:101C7000A8E0B0E0EEE3FEE00C944B2966EE7EEFC8
:101C800090E080E00E94692A60E082E090E00E949B
:101C90004B2A81E090E09093F1018093F00161E0A4
:101CA00083E090E00E944B2A60E074E184E090E0E1
:101CB0000E94692A60E086E090E00E944B2A60E082
:101CC00087E090E00E944B2A40E050E0BA0188E0B3
:101CD00090E00E945D2A60E084E290E00E944B2A3E
:101CE00060E087E190E00E944B2A60E08CE090E0A9
:101CF0000E944B2A60E08DE090E00E944B2A1982FE
:101D00001A821B821C821D821E821F82188648E056
:101D100050E068E170E0CE0101960E943B2A40E06D
:101D200050E0BA0180E290E00E945D2A0E94300EED
:101D30002896E2E00C9467290E94380E0895682FD7
:101D40008EE090E00E944B2A0895A6E0B0E0EBEA16
:101D5000FEE00C9449290E946E208C01809148027B
:101D6000909149028017910781F019821A820E948E
:101D70006E20682F49815A81792F80E090E00E947F
:101D8000770510934902009348022696E4E00C94EC
:101D900065290E947A2060935002709351028093CB
:101DA00052029093530260934C0270934D028093C1
:101DB0004E0290934F020895089508950E94DC0EFC
:101DC000089508950E94E10E08958AEB91E10E9422
:101DD000C2120E94DD0E0E94DE0E089581E0089579
:101DE0000E94EE0E08950E94EE0E08950895089543
:101DF0000E94F60E0E94F70E08950E94FC0D8111BC
:101E000002C00E949C0E0E94070E809354020E9402
:101E1000110E9093D8028093D7020E94451D0E9414
:101E20000C0E90E00E94D5088091EE019091EF0198
:101E30000E94F60808950E9465200E9427120E94C1
:101E4000FD0E0E944B0580E00E94FD1A0E94381989
:101E50000E94E20E0895A6E0B0E0E1E3FFE00C94FA
:101E600041290E94F00EC82E811110C00E94A50EBB
:101E7000C12C0E94281A0E94D01CC1100E94A01BD5
:101E80000E945E052696ECE00C945D290E943712B4
:101E900010914A0280E00E94C411181307C01091EB
:101EA0004B0281E00E94C411181701F38091540283
:101EB00081FD0E94CA110E94F30E982E8AE4A82E7A
:101EC00082E0B82E10E088248394812F0E94C411F0
:101ED000082FF50181915F01081729F1F12CEE24FB
:101EE000E394D02ED8268D2D8E21A9F0992099F03B
:101EF000F9821A830E946E209C838B838D8291E0ED
:101F0000802F8E2109F490E049815A816B817C8178
:101F10008D810E947705F394EE0CF4E0FF12E3CF7D
:101F2000F50131970083113019F40E94C90EA1CF39
:101F300011E0CBCF1F93CF93DF930E94C910EC0128
:101F4000C11580E5D807F0F5C11580E4D80708F081
:101F50009CC0C03ED10520F5CD3CD10508F082C023
:101F6000C83AD10578F4C53AD10508F073C0C1303C
:101F7000D10519F1209709F1C430D105F0F4D0E072
:101F8000C0E01BC0C33CD105D0F7C85AD0E0CC0F8D
:101F9000DD1FCC59DE4F0990D881C02DD4640DC00F
:101FA000C11580E2D80708F0D1C0C11581E0D8077B
:101FB00008F05AC0C83ED10510F7CE01DF91CF918D
:101FC0001F910895C03682E5D80718F5C03482E520
:101FD000D80708F06BC0C03282E5D80708F05FC0B0
:101FE000C11582E5D80708F497C02C2F26952695B1
:101FF00080E2289F900111248C2F8370C1E0D0E0F3
:1020000002C0CC0FDD1F8A95E2F7C22BD32BDD680F
:10201000D4CFC03A82E5D80760F4C03882E5D8074B
:1020200008F459C0CF71D0E0DC2FCC27C46FD06A40
:10203000C4CFC03C82E5D80708F462C0C03E82E548
:10204000D80708F09CCFDC2FCC27CC27DF71C06FDE
:10205000D06AB3CFC55AD0E0C656DE4FC881D0E0B3
:10206000D064ABCFD065A9CF8D2F0E946B11182FF4
:10207000CE0199270E94C910C12FD0E0DC2FCC27B8
:10208000CC27DF71C82BD92B98CFCE0199270E947E
:10209000C910CC27DF70C82BD92BD06A8ECFCF7157
:1020A000D0E0DC2FCC27C16FD06A87CF2C2F2695AC
:1020B0002695277080E2289F900111248C2F837031
:1020C000C1E0D0E002C0CC0FDD1F8A95E2F7C22B41
:1020D000D32BDC6872CF2C2F26952695277080E2B3
:1020E000289F900111248C2F8370C1E0D0E002C0A2
:1020F000CC0FDD1F8A95E2F7C22BD32BDA685DCFB8
:102100008C2F8F710E946B11C82FD0E0DC2FCC2751
:10211000CC27DF71D06251CF8C2F8F710E946B1151
:1021200055E0D695C7955A95E1F7CF70D0E0DC2FF2
:10213000CC27282F30E084FF05C044E0220F331F56
:102140004A95E1F7C22BD32BD06937CF8D2F8F71F2
:102150000E946B11182FCE0199270E94C910C12F20
:10216000D0E0DC2FCC27CC27DF71C82BD92BD2CFE6
:10217000462F723030F4643020F4672F0E943E0402
:10218000089590E080E008950E94B8100E949A0F90
:10219000089582389105B9F1B0F48133910509F4BD
:1021A0007DC048F48932910509F46DC08A329105E9
:1021B00009F47BC008958533910509F45FC0893324
:1021C000910509F10895833E9105D9F138F4803ED7
:1021D000910529F1823E910579F10895863E910598
:1021E000D9F1873E910509F43EC0843E910541F541
:1021F0002091D80221FF24C08091D70284FD19C00C
:1022000087EE90E008952091D702237009F05AC01C
:102210002091D80223FF14C089E290E00895209114
:10222000D70220FD38C03091D80230FF09C024FF0A
:1022300043C090E080E008952091D70222FDF7CFBF
:1022400008952091D70222FD3AC03091D80230FD86
:1022500039C024FFF5CFEDCF2091D70223FFF0CF77
:1022600024FDE7CFCDCF2091D70223FD2EC03091A2
:10227000D80231FFEECF84EE90E008952091D7028E
:1022800025FFDECFC9CF2091D70225FD21C02091A7
:10229000D80223FFD5CF89E390E0D2CF2091D70297
:1022A00026FFCECF8AE290E008952091D70226FF44
:1022B000C7CF81E390E0089583EE90E0089582EE29
:1022C00090E0089580EE90E0089586EE90E0089505
:1022D00085E390E008959091D70292FF10C041E00D
:1022E000282F2471243009F040E031E0282F287194
:1022F000283009F030E0431711F02CE0822793FFDB
:1023000010C041E0282F2471243109F040E031E071
:10231000282F2871283109F030E0431711F02CE004
:1023200082273091D80230FF10C051E0282F217150
:10233000213009F050E041E0282F2871283009F0C1
:1023400040E0541711F029E0822731FF10C041E02E
:10235000282F2171213109F040E031E0282F287128
:10236000283109F030E0431711F029E0822794FD6D
:10237000877E089580E0089508950E94BC11089515
:1023800008950E94C0110895E82FF0E0E552FD4F36
:102390008081089508951F93CF93DF932DE931E055
:1023A000C1E0D0E0D90150E040E08D918F3F91F045
:1023B000E82FE295EF70F0E011A18F70BE0101C02F
:1023C000660F8A95EAF7962F9095912391A382A1A3
:1023D000862B82A34F5F5F4F4430510531F72C5F4E
:1023E0003F4F81E0253A3807E9F6DF91CF911F9101
:1023F0000895CF93DF93AC0170E0FB01EE0FFF1F58
:10240000EE0FFF1FE356FE4FA0E0B1E080E0919198
:102410009F3FD9F0C92FC295CF70D0E028A130E0FE
:102420009F7002C0359527959A95E2F720FD0DC063
:102430002B2F822BAF5FBB0FA43049F7640F751FA2
:10244000FB018083DF91CF91089520E0F2CF0E94BD
:10245000CB111092DC021092DB021092DA02109281
:10246000D90282E00E946D120E94BD110895A2E07F
:10247000B0E0EDE3F2E10C944A291A82198260E09F
:10248000CE0101960E94F91161E0CE0101960E94F1
:10249000F91142E050E0BE016F5F7F4F89ED92E09D
:1024A0000E94112A21E0009709F420E0892B31F0E5
:1024B00089819A819093DA028093D90242E06BED90
:1024C00072E089ED92E00E946E12182F0E94C111F5
:1024D000812F2296E3E00C9466290895B0E0A0E0F5
:1024E000E4E7F2E10C9445296C017B01042FC22F33
:1024F000222379F081E0809357020E946E2090930E
:1025000056028093550280E0CDB7DEB7E8E00C9428
:102510006129D0915702DD23B1F38091550290914A
:1025200056020E948620059770F310E0A801B601BC
:10253000C7010E94112A892B31F0A801B601C701F9
:102540000E941E2ACD2F109257028C2FDDCF0E94A1
:1025500084230E941B0F0E94912308950E949623BA
:102560000E942B0F0E94B02308950E9407200E9412
:102570006A230E94E50E0E94A7120E94AE120E94DA
:10258000F80EFBCF9093E3018093E2010895EF9260
:10259000FF920F931F93CF93DF93EB01E82FD1119D
:1025A0000EC0442321F0F0E0EA52FA4FE4916E2F7E
:1025B0007E2F8E2FCDB7DEB7E6E00C9463290D2F6A
:1025C00010E0282F30E0442329F02A523A4FF90135
:1025D000249130E0F6E0CF9FC0011124EFEFF0E04E
:1025E000BF010E94BA28AB018C2F90E0880F991F81
:1025F000A5E5A49FB001A59F700D1124861B970B24
:10260000982F990F980FBF01601B710B629FD0012B
:10261000639FB00D729FB00D11248B2F9D9FB00151
:102620001124672F7727EF01C61BD70BBE01629FCE
:10263000E001639FD00D729FD00D11247F01E91A34
:10264000F108E09EB001E19E700DF09E700D112426
:10265000672F7727E61BF70BE29F8001E39F100DA2
:10266000F29F100D1124E12F722F4230510599F085
:1026700048F44115510569F04130510581F0EB2FC7
:102680008D2F07C04430510569F080F04630510568
:10269000B1F76E2F8FCFE22F7B2F812FFACFE22F52
:1026A0007D2FF7CFEB2F822F712FF3CF7B2F822F30
:1026B000ED2FEFCF41E00E94C712089508950E94C8
:1026C0005A130895CF93DF93762FE901682F842F53
:1026D0000E945F13798368838A83DF91CF91089585
:1026E0008091DD02982F9C7F29F483708460809311
:1026F000DD0208958C3AE8F38370886AF8CFB0E081
:10270000A0E0E5E8F3E10C94452988E090E00E9420
:102710002F2A6B017C0184E290E00E94272A282F57
:1027200030E040E050E060E070E080E090E000E207
:102730000E947229B22FA32FF42FE52FD62FC72F77
:1027400097018601BC29A12BFE295E2F532B2B2F2D
:102750003A2F4F2F6D2F7C2FCDB7DEB7E8E00C94CA
:102760006129B0E0A0E0E7EBF3E10C9441294901D5
:102770005A016B017C010E9470138401A4016A2D2F
:102780007B2D88E090E00E945D2A94014A2D5B2D0C
:10279000B601C70100E20E948D29622F84E290E019
:1027A0000E944B2ACDB7DEB7ECE00C945D29EDED2D
:1027B000F2E085E0808311828FEF8283838314822D
:1027C000758125E030E04FEF5FEF60E08681978113
:1027D0000E94B11308958091DD0280FF03C08695A9
:1027E0008695089580E008959091E102933018F461
:1027F0009F5F9093E102882391F02091DD02309158
:10280000DE024091DF025091E0026091E10270919E
:10281000E2028091E3029091E4020E94B1130895D4
:1028200081E00E94F41308959091E102992319F038
:1028300091509093E102882391F02091DD02309134
:10284000DE024091DF025091E0026091E10270915E
:10285000E2028091E3029091E4020E94B113089594
:1028600081E00E941414089560910A018091DD02B4
:1028700080FF0FC070E08091090123E0829FC001BA
:102880001124E091D001F091D1018B519D4F099518
:10289000089580910B0190910C0123E0829FF0013B
:1028A0001124EB51FD4F891728F7118210821282F3
:1028B0008F5F3396F8CF9091DD0290FF0EC090911C
:1028C0000B0120910C0133E0939FF0011124EB5197
:1028D000FD4F921718F00E9434140895818360838D
:1028E00042839F5F3396F5CFA3E0B0E0EAE7F4E1DF
:1028F0000C944B299091DD0290FF0AC09E012F5F3E
:102900003F4F0E9462134B8169818A810E945B1450
:102910002396E2E00C946729CF93DF93EC01EC81DE
:10292000F0E0EF52FB4F4491EDEDF2E062818181E6
:102930000E9474148C818F5F8C83DF91CF910895F6
:10294000CF93DF93EC01EDEDF2E0438162818C8166
:102950000E9474148C818F5F8C83DF91CF910895D6
:10296000A3E0B0E0E6EBF4E10C9449298C018091FE
:10297000580281110AC09E012F5F3F4F4FEF6FEF4A
:102980000E9462138A8180935802F8016481613049
:1029900069F08091580240E0662361F040E06230C7
:1029A00011F44091580280E060E004C06091580248
:1029B00040E080E00E945B14F801848190E0019681
:1029C00063E070E00E94CE2884832396E4E00C94B8
:1029D0006529A3E0B0E0EFEEF4E10C944429082F60
:1029E000D62EF42EC22E9091DD0290FF2FC0E92F3B
:1029F000E695E695AE2FB0E0AB55BE4F8C91809337
:102A000078029C7F943031F59E012F5F3F4F802FDD
:102A10000E9462134B8169818A810E945B1400933A
:102A2000DE02D092DF02F092E002CC2079F0209119
:102A3000DD026091E1027091E202302F4D2D5F2D99
:102A40008091E3029091E4020E94B1132396E9E0A1
:102A50000C946029823019F4F090E002E0CF8630C7
:102A600019F40091DE02DBCF8930D9F38931B9F650
:102A7000E9516E2F6170B62EE695F0E0EF52FA4FF5
:102A80001491E12C60910D01E61618F00E943414A7
:102A9000C6CFE19EC001112470E00E94BA28802FA9
:102AA000B11014C0860F20910B01622F6E0D772795
:102AB000771F9B01220F331F260F371F2B513D4FCE
:102AC0004F2D6D2D0E946213E394DCCF861BEBCF5C
:102AD000EDEDF2E09181282F438162818AE0890F38
:102AE0000E94E914089581E00E9468150895EDEDB3
:102AF000F2E09181282F4381628186EF890F0E9445
:102B0000E914089581E00E9477150895EDEDF2E053
:102B1000628121E1620F08F46FEF282F43818181E8
:102B20000E94E914089581E00E9486150895EDED54
:102B3000F2E0628121E1621B08F460E0282F43810A
:102B400081810E94E914089581E00E9497150895FB
:102B5000EDEDF2E0438121E1420F08F44FEF282F21
:102B6000628181810E94E914089581E00E94A81584
:102B70000895EDEDF2E0438121E1421B08F440E0CD
:102B8000282F628181810E94E914089581E00E94CA
:102B9000B915089520E00E94E9140895EF92FF927C
:102BA0001F93CF93DF93EC0110E0EE24EA94F12C15
:102BB00060910D01161770F00E9434149A818C8177
:102BC00090FF27C08F5F8C83DF91CF911F91FF9083
:102BD000EF90089520910B01422F410F5527551F6B
:102BE000CA019A01220F331F280F391F2B513D4F65
:102BF00070E0C7010E94CE28962F8C814091E002A0
:102C00006091DF02199F800D11240E9462131F5FE3
:102C1000CFCF8150D8CFB0E0A0E0E1E1F6E10C9455
:102C20004429FC0182810FEF80FF01E010E08091D8
:102C30000D01181798F00E94341480915A02013047
:102C400009F04CC0811102C080910D018150809328
:102C50005A02CDB7DEB7E9E00C946029C0910B01B0
:102C6000C12ED12CCC0DDD2DD11DCE01880F991F89
:102C7000C80FD91FCB51DD4F198218821A8234E058
:102C8000E32EF12CB12C80915A028B0D853004F18A
:102C90008370082E000C990BC816D90691F4809108
:102CA000E0028E9DA0018F9D500D112455954795F2
:102CB000559547959E016091DF028091DE020E944A
:102CC0006213B00EF1E0EF1AF108E9F61F5FAFCF23
:102CD00087FFDFCF90910D01890FDBCF90E0019648
:102CE00060910D0170E00E94CE28B1CF0F931F9329
:102CF000CF93DF9380910B0190910C0123E0829F91
:102D0000F0011124EB51FD4F891740F1C0E0D3E0F1
:102D100060910D01C61740F10E9434142091070103
:102D200080915902820F8093590290910801920F6D
:102D300090930801191654F4082E000C990B409139
:102D40000D014150550B841795071CF021952093D8
:102D50000701DF91CF911F910F9108951182108289
:102D600012828F5F3396D0CF0C2F10E070E0C80135
:102D70000E94CE2820910B01820F482F50E0209115
:102D80005902022E000C330B02171307BCF02091DE
:102D90000801022E000C330B201731077CF08D9FA9
:102DA000900111242B513D4F4091E0026091DF02D0
:102DB0008091DE020E946213CF5FAACFFA01EE0F6C
:102DC000FF1FE40FF51FEB51FD4F1182108212829D
:102DD000F3CFB0E0A0E0EFEEF6E10C944129EC0176
:102DE0004C81042F10E09801D8010E9412299B0108
:102DF000AC010E9428294B015C01E0E2F0E0E01BFD
:102E0000F10BA5E5B0E0AC019B010E9428296B0104
:102E10007C019F01DF010E940A299B01AC010E94F5
:102E200033299B01AC01280D391D4A1D5B1DC701CB
:102E3000B6010E94E228F22E822F90E039E23F157F
:102E400020F143E0249F9001112435952795122FFE
:102E5000109500E085E5E82EEF1880910D01081728
:102E600018F10E9434149C8181E0992319F090326A
:102E700019F48FEF8093060180910601890F8C83EE
:102E8000CDB7DEB7ECE00C945D2925E530E0B90163
:102E9000681B790B9B01220F331F260F371F37FF4B
:102EA000D4CF2F5F3F4FD1CF8E2D01FD8F2D20919D
:102EB0000B01622F600F7727771F9B01220F331FB3
:102EC000260F371F2B513D4F412F6091DF020E948B
:102ED00062130F5FC2CF0F931F93CF93DF93EC0169
:102EE00010E000E090910D019017110609F06CF4CC
:102EF0000E9434148C8190E00196817099278C8314
:102F0000DF91CF911F910F91089520910B01A8019E
:102F1000420F511D9A01220F331F240F351F2B51D1
:102F20003D4F4C816091DF028091DE0296959017B3
:102F3000110651F04CF0442349F04091E0020E9408
:102F400062130F5F1F4FCECF4423B9F340E0F7CF9A
:102F5000B0E0A0E0EEEAF7E10C943D29FC016280CC
:102F6000448081E08483E1EDF4E07490E0E5F5E0F5
:102F7000E491C091E002C695C158D0E0CC0FDD1FAE
:102F8000CD2FDD27812C75E0972EAA24AA94B12C91
:102F900055245A94E719EE2EF12C80910D018816D4
:102FA00038F00E943414CDB7DEB7E0E10C94592913
:102FB000C82CD12C82E0861568F09C9CF0019D9C69
:102FC000F00D1124E55AFD4F8091DE02808380913F
:102FD000DF028183411023C09C9CF0019D9CF00D79
:102FE0001124E55AFD4F1382128220910B01C60174
:102FF000820F911D9C01220F331F280F391F2B5167
:103000003D4F9C9CF0019D9CF00D1124E55AFD4F15
:103010004281618180810E9462138394BECF9C9C17
:1030200080019D9C100D1124055A1D4FF8018381CC
:103030008823F1F081508383859DC0011124648130
:1030400070E00E94BA28FB01FF27EF52FB4F8491EA
:10305000E82FE719E59DC0011124B7010E94BA28A5
:103060008091E002689FB0011124F8017283BDCF06
:103070000E94F429B5010E94CE288C179D070CF000
:10308000B4CFF2E0F61598F40E94F429B5010E943D
:10309000CE28F80180830E94F4292091DF02269532
:1030A000622F70E00E94CE28280FF80121839C9C9B
:1030B000F0019D9CF00D1124E55AFD4F1282809184
:1030C000E002893C58F088EC9C9CF0019D9CF00D3E
:1030D0001124E55AFD4F8483838387CF8431A0F781
:1030E00084E1F2CFEDEDF2E020812E7F208331816B
:1030F0004281538164817581868197810E94B113D9
:10310000109279020E9434140895EDEDF2E080816E
:103110008E7F8083109279020E9434140895109259
:1031200079028091760281110AC081E08093760253
:103130008091DD028170809375020E948518089548
:103140006091DD026695669570E04BE050E08EE0A0
:1031500091E00E94042A892B19F481E0809379027E
:103160000E946E209093700280936F020895909158
:10317000DD0290FF34C09370811132C0946090934F
:10318000DD02662391F02091DD023091DE02409154
:10319000DF025091E0026091E1027091E2028091C1
:1031A000E3029091E4020E94B1136091DD02669502
:1031B000669570E04BE050E08EE091E00E94042ABA
:1031C000892BB1F01092790281E0809372024091D4
:1031D000E0026091DF028091DE020E94CA1508952C
:1031E0008B3210F0986ACBCF880F880F982BC7CFFF
:1031F0000E94A018E9CF682F9091DD0296959695D0
:1032000081E0890F8B3208F081E00E94B7180895A1
:1032100081E00E94FB180895682F9091DD02969539
:1032200096958FEF890F09F48AE20E94B7180895E6
:1032300081E00E940C19089561E00E94B71808957A
:10324000EDEDF2E0808181608083869586950E9415
:103250001C1908958091DD0280FF03C00E9472183E
:1032600008950E942019089560E00E94B7180895FB
:1032700080917702811137C00E947F132093DD0275
:103280003093DE024093DF025093E0026093E1024C
:103290007093E2028093E3029093E4022C7FA1F406
:1032A0000E94D7130E947F132093DD023093DE0229
:1032B0004093DF025093E0026093E1027093E202D8
:1032C0008093E3029093E4020E94701310927902BB
:1032D0008091DD0280FF04C0869586950E94341996
:1032E00081E0809377020895EDEDF2E080818160C6
:1032F0008083869586950E943419089510927602EF
:103300008091750281110E9474190E94A01808957D
:103310000F931F93CF93DF93809179028823C1F19C
:1033200080917802E091DD02E695E695E81BE09356
:103330007102823091F5F0E0E353FB4FE491CE2F20
:10334000D0E00CE814E180917202882361F01092C1
:1033500072020E946E209093700280936F0210920E
:103360007402109273020E946E20E0916F02F0913D
:1033700070028E1B9F0B8F3F9F4750F4EC0FFD1F79
:10338000F0937002E0936F028FE692E0F8010995E6
:10339000DF91CF911F910F910895863049F4F0E0AD
:1033A000E653FB4FE491CE2FD0E000EA14E1CBCFFF
:1033B000893051F4E695F0E0E953FB4FE491CE2FCC
:1033C000D0E00EEC15E1BFCF8F3051F4E695F0E080
:1033D000EC53FB4FE491CE2FD0E00BE016E1B3CFDE
:1033E000853149F4F0E0EF53FB4FE491CE2FD0E06C
:1033F00006E716E1A8CFC8E2D0E009EE16E1883171
:1034000009F4A1CF833239F4EFEBF4E0C591D49104
:1034100000EB14E198CFC4EFD1E00BE617E1843262
:1034200009F491CFC0EDD7E00EE513E1853209F044
:103430008ACF8E2F63E00E94AE28E92FF0E0E4549B
:10344000FB4FE491CE2FD0E008EA17E17CCF08953E
:103450000E9488190895FA01811101C0FB010995A4
:103460000895CF93DF93C82FD62F0E94EB138C17AC
:1034700048F00E94EB138D1728F40E940819DF9181
:10348000CF9108958C2F0E941C19F9CF1F93CF93D1
:10349000DF93EC01FB011581111110C00E94030D97
:1034A0008272FE01E052F847E531F10508F05EC096
:1034B000E455F54D0C9404290E942A19812FDF91BF
:1034C000CF911F91089548E159E168E079E10E94A8
:1034D0002B1AF4CF48E059E168E179E1F8CF42E8EE
:1034E00055E163E775E1F3CF43E755E162E875E144
:1034F000EECF44EA55E163E975E1E9CF43E955E1EF
:1035000064EA75E1E4CF46EC55E165EB75E1DFCFA8
:1035100045EB55E166EC75E1DACF40E354E160E15B
:1035200074E1D5CF40E154E160E374E1D0CF81E0B4
:103530000E941C19C3CF65E082E00E94311ABECF01
:1035400068E086E0FACF6EE089E0F7CF64E18FE0D3
:10355000F4CF67E185E1F1CF88E1EACF62E289E16A
:10356000ECCF83E2E5CF6AE285E2E7CF11E0A6CFB8
:10357000AB0124E630E0BC0188E70E945B2121E03A
:10358000892B09F020E0822F0895AB0124E630E07A
:10359000BC0188E70E949F2121E0892B09F020E0EF
:1035A000822F08950F931F939B0104E610E0AC0156
:1035B00060E488E70E94E52121E0892B09F020E002
:1035C000822F1F910F9108950E9427210895089539
:1035D000E1EFF2E080E094E0DF019C011D922150D8
:1035E0003040E1F7F093F606E093F5068FEF9FEF9A
:1035F0009093C0028093BF020895CF930E94E71A70
:103600000E941A048093BB0280FD11C080E8809361
:10361000BA020E94E41A6BE070E081EF96E00E942B
:10362000C51A811106C0C0E08C2FCF91089580E4A7
:10363000EECF8091BB0265E070E081FD27C08CEE8B
:1036400096E00E94C51A882371F36DE070E08AED60
:1036500096E00E94C51AC82F882329F30E947A2079
:10366000605E714B8F4F9F4F6093F1067093F2062F
:103670008093F3069093F4060E94E81A81E0809309
:10368000BE028093BD021092BC02CECF87EE96E0C0
:10369000D8CF2091BA0236E0839FC0011124629FE7
:1036A000800D911D1124811524E0920714F090E003
:1036B00080E08F509D4F9093F6068093F506089515
:1036C000CF93DF932091F5063091F606215F3240CB
:1036D000A901460F571F4130544020F060E074E0CC
:1036E000621B730B4091BF025091C002FC01C901E3
:1036F000620F731FC1E0D0E08617970738F0509330
:10370000C0024093BF02DF91CF9108952491DC0164
:10371000AF50BD4F3C91321781F02C939C01A6E035
:1037200036952795AA95E1F7DE0102C0AA0FBB1FC7
:103730002A95E2F79D014A2B532B01963196DCCF57
:103740008091BE02811103C08091BD0208950E9444
:103750007A20605E714B8F4F9F4F6093F10670939C
:10376000F2068093F3069093F4068091BD028111D6
:10377000EBCF62E070E088ED96E00E94C51A8823E6
:1037800019F381E08093BD02DFCFA4E0B0E0EBEC61
:10379000FBE10C943B29082F8091BF029091C0025D
:1037A000892BE9F08091BE028823C9F08091BC0288
:1037B000811115C00E94A01B1C821B8244244394CB
:1037C000512C17E060E4F62E8091BF029091C00268
:1037D000009729F0FC81FF2349F0011107C02496CE
:1037E000E2E10C9457292B812F5F2B833B81C32E61
:1037F000D12C520102C0AA0CBB1C3A95E2F79501EC
:1038000028233923232B79F38091BB0280FD3DC00F
:103810008B818295880F880F807480931B0196019D
:103820003695279520931E01815C80931C0120937F
:103830001F0167E070E089E191E00E94B81A8823D7
:1038400071F2C60126E0880F991F2A95E1F72091B1
:10385000BB0220FD28C060E470E08F509D4F0E94A5
:10386000D21A882309F4BBCFC50180959095A0900A
:10387000BF02B090C002A822B922B092C002A092AA
:10388000BF024C814F5F4C839FCF8B81880F880F85
:10389000880F80931B0110921E01895F80931C0189
:1038A00010931F01C6CFAAE7B2E0EF2D1D92EA9553
:1038B000E9F72AED31E03A83298362ED71E0A981CD
:1038C000BA814D91BA83A983FB012190BF01280ED3
:1038D000392E311C91012F503D4F1901E42FF0E09A
:1038E000E658FD4F30E020E0612E621A842C022E53
:1038F00001C0880C0A94EAF76101912CD601ED9081
:103900006D01E820462D49194770742E042E000CD5
:10391000550BBE2D01C0BB0F7A94EAF77B2E519553
:10392000419551094770552701C0E6944A95EAF739
:103930007E28E0807E287082939448E09412DECF47
:103940002F5F3F4F31962830310571F6A2EEB1E07E
:10395000E981FA81AE17BF0709F0B1CF60E470E0EA
:103960008AE792E07CCF8091BD029091BE029111D6
:1039700003C091E089270895882369F062E070E030
:1039800086ED96E00E94C51A811103C08091BD02A8
:1039900008951092BD028091BD02EBCF81E00895A1
:1039A0000F931F938091BE02882311F160E080E0A5
:1039B0000E94491B0E941C0480E00E94C51B80914C
:1039C000BD028823A9F00E947A200091F10610918F
:1039D000F2062091F3063091F406601B710B820B06
:1039E000930B6F3F7F4F8F4F9F4710F40E94B31C84
:1039F0001F910F910895539A4BB1477F5BB1586067
:103A0000EFB7F8949B01220F331F260F371F280FA3
:103A1000391F2817390741F4EFBF8FE594E001976C
:103A2000F1F700C000000895DC016D91CD0178E050
:103A30005BB9000000C067FF4BB9660F000000C013
:103A400000C000C04BB900C07A9591F7E2CF0E9448
:103A5000F50D089581E00E94C411817008950E94BF
:103A600037122FEF86E791E0215080409040E1F738
:103A700000C000000E9437120E942A1D882321F0F6
:103A80000E94271D0E94B92008950E942F1D0895AD
:103A9000CF93DF93EB0186319C4711F50E94030D14
:103AA0009D81992399F08A7A91E009F490E09093AE
:103AB000C102811109C089E20E94AD1F0E94920DCE
:103AC00080E0DF91CF91089585E3F6CF8091C10228
:103AD000811104C089E20E94B51FF0CF85E3FBCFBE
:103AE00081E0EFCFCF93DF93EC01FB018581882349
:103AF00009F4D2C09E0130572332310508F0B2C01C
:103B00000E94110E9093D8028093D702FE01E150DB
:103B1000F047E232F10520F4EF53F54D0C940429FF
:103B20008091D70281608093D70293C08091D802A0
:103B300088608093D8028DC08091D7028260F3CFD5
:103B40008091D7028460EFCF8091D7028860EBCF5D
:103B50008091D8028160EDCF8091D8028260E9CF58
:103B60008091D7028061DFCF8091D7028062DBCF66
:103B70008091D7028064D7CF0E9488088091D702B5
:103B80008068D1CF8091D7028C60CDCF8091D80250
:103B90008360CFCF8091D7028E7FC5CF8091D8022E
:103BA000877FC7CF8091D7028D7FBDCF8091D7020D
:103BB0008B7FB9CF8091D702877FB5CF8091D80214
:103BC0008E7FB7CF8091D8028D7FB3CF8091D702FF
:103BD0008F7EA9CF8091D7028F7DA5CF8091D7020C
:103BE0008F7BA1CF0E9488088091D7028F779BCFCF
:103BF0008091D702837F97CF8091D8028C7F99CF15
:103C00008091D70282FB992790F921E0922790FBBF
:103C100082F990FB83F987CF8091D802982F9095F5
:103C200091708E7F892B90FB81F983CF9091D70281
:103C3000892F8F7B96FF806476CF0E9488089091B1
:103C4000D702892F97FB87F980586DCF81E00E94BA
:103C50009F0E8091D7029091D8020E94160E0E946A
:103C6000880880E0DF91CF91089580E0F0CF9091B7
:103C7000D702892F8F7E94FF806155CF9091D70214
:103C8000892F8E7F90FF81604ECF9091D802892F2F
:103C9000877F93FF88604DCF81E0E4CF0F931F9320
:103CA000CF93DF93C42FD22FFC0185818823C9F0E5
:103CB0004093C4020E946E209093C3028093C2027C
:103CC00080E28C0F883040F4C77081E001C0880F1B
:103CD000CA95EAF70E943B06DF91CF911F910F91A1
:103CE00008951091C402141332C08091C2029091C1
:103CF000C3020E948620883C910548F5C0E2CD0FA2
:103D00001D17B9F080E2810F883040F4177081E010
:103D100001C0880F1A95EAF70E944206C83048F49D
:103D200081E09D2F977001C0880F9A95EAF70E9455
:103D30003B06802F0E943206C83070F6D77081E0B3
:103D400001C0880FDA95EAF70E944206C5CF80E2EB
:103D50008C0F883008F6C77081E001C0880FCA95C3
:103D6000EAF7F2CF0F93DB0188519C47873091052A
:103D7000A0F5FC01ED51F54D0C94042906E221EE6D
:103D800041EE6AE17CE7CD010E944E1E80E00F917A
:103D9000089507E225EE45EE6BE17CE7F4CF06E2FD
:103DA00021EE40EE68E17CE7EECF07E225EE44EE3F
:103DB00069E17CE7E8CF06E221EE42EE6CE17CE7C8
:103DC000E2CF07E225EE46EE6DE17CE7DCCF08E2CC
:103DD00021E045EE6EE17CE7D6CF15968C918823E5
:103DE00019F01092C402D3CF81E0D1CF9093CA02D0
:103DF0008093C9020895E091C902F091CA023097F8
:103E000029F00190F081E02D0995089580E0089552
:103E1000E091C902F091CA02309721F00280F3814B
:103E2000E02D09950895A3E0B0E0E9E1FFE10C94ED
:103E30004B292091C7023091C80228173907A1F0F9
:103E40009093C8028093C702E091C902F091CA0220
:103E5000309751F023E029839B838A830084F18586
:103E6000E02DCE01019609952396E2E00C94672996
:103E7000A3E0B0E0EEE3FFE10C944B292091C502F2
:103E80003091C60228173907A1F09093C60280939B
:103E9000C502E091C902F091CA02309751F024E0C6
:103EA00029839B838A830084F185E02DCE010196CE
:103EB00009952396E2E00C94672940910401509102
:103EC00005019A012E5F3F4F485F5F4F80E0241746
:103ED000350709F40895F90191919F019923B9F3E8
:103EE0008F5FF5CF882371F0209104013091050197
:103EF000F9013296285F3F4F9191981729F0E21708
:103F0000F307D1F780E0089581E008959C01FC015A
:103F100032969FEF80E04191461751F09F3F19F490
:103F2000411101C0982F8F5F8630A9F79F3F09F498
:103F30000895290F311D97FD3A95F901628308957F
:103F4000FC01329608962191261303C0DF011197D8
:103F50001C92E817F907B9F70895682F80910401BA
:103F6000909105010E94861F0895682F8091040199
:103F7000909105010E94A01F0895E0910401F09125
:103F80000501329686E0DF011D928A95E9F70895D2
:103F900008950E94C81F0895811106C081E0809392
:103FA000CB020E94C91F089582E0F9CF83E080937D
:103FB000CB020E94C91F08950E94CC1F089581E082
:103FC0008093CB020E94C91F08950E94DF1F0895AD
:103FD000089508950E94E91F0895089508950E9484
:103FE000E81F08950E94ED1F0E9437120E94EE1FE5
:103FF00080E00E94C41191E0811107C081E00E941D
:10400000C41191E0811101C090E0892F089585B716
:10401000806885BF85B7806885BF08951F921FB6E9
:104020001F9211248F939F93AF93BF938091CC02E3
:10403000811113C08091F7069091F806A091F906BE
:10404000B091FA064196A11DB11D8093F706909399
:10405000F806A093F906B093FA06BF91AF919F912D
:104060008F911F901FBE1F9018958091FF0684307E
:1040700031F10E9428051092CC0288E190E020E402
:104080000FB6F894A895809360000FBE209360004F
:1040900083B7817F846083BF83B7816083BF789457
:1040A000889583B78E7F83BF0FB6F894A8958091CB
:1040B0006000886180936000109260000FBE0895D8
:1040C0000E9488080E943105089582E084BD93E033
:1040D00095BD9AEF97BD80936E0008952FB7F89421
:1040E0008091F7069091F806A091F906B091FA0632
:1040F0002FBF08952FB7F8946091F7067091F806D6
:104100008091F9069091FA062FBF08959C014FB750
:10411000F8948091F7069091F806A091F906B09175
:10412000FA064FBF821B930B089578941F921FB617
:104130001F9211248F939F93AF93BF938091F706A3
:104140009091F806A091F906B091FA060196A11D8A
:10415000B11D8093F7069093F806A093F906B093EB
:10416000FA06BF91AF919F918F911F901FBE1F9034
:10417000189587E797E7909301088093000888E1F6
:104180009AE00FB6F894A895809360000FBE9093C4
:104190006000FFCF88E19AE00FB6F894A89580936D
:1041A00060000FBE90936000FFCFEF92FF920F93DD
:1041B0001F93CF93DF93182FEB011092BC0084EA7A
:1041C0008093BC000E946E207C018091BC0087FF20
:1041D00027C08091B900887F883029F08091B9008C
:1041E000887F803189F51093BB0084E88093BC0000
:1041F0000E946E208C018091BC0087FF1EC0209120
:10420000B900287F90E080E0283191F081E090E0D3
:10421000203411F490E080E091958195910908C0D7
:10422000C7010E948620C817D90778F68EEF9FEF46
:10423000CDB7DEB7E6E00C946329C8010E94862062
:10424000C817D907C0F6F2CF8FEF9FEFF1CF1092CA
:10425000B9008CE08093B80008950F931F93CF931B
:10426000DF93EB018093BB0084E88093BC000E9445
:104270006E208C018091BC0087FF11C02091B90095
:10428000287F81E090E0283211F490E080E0919561
:1042900081959109DF91CF911F910F910895CF3FA3
:1042A000DC0741F3C8010E948620C817D90710F720
:1042B0008EEF9FEFEFCFB0E0A0E0E1E6F1E20C94EB
:1042C0004029782E5B016A0189010E946E204C0111
:1042D000C1E0D0E00431110558F0C5E0D0E00F3F57
:1042E000100731F0C80164E170E00E94BA28EB01C8
:1042F000BE01872D0E94D5207C0197FF09C00F3F8A
:104300001007B1F3C4010E9486200817190780F72F
:10431000E501CA0CDB1CCC15DD0511F0F7FE09C068
:1043200084E98093BC00C701CDB7DEB7EDE00C9403
:104330005C29B80189910E942D217C01ECCFB0E06D
:10434000A0E0E5EAF1E20C944029782E5B016A01D5
:1043500089010E946E204C01C1E0D0E004311105BA
:1043600058F0C5E0D0E00F3F100731F0C80164E11C
:1043700070E00E94BA28EB01BE01872D0E94D52073
:104380007C0197FF09C00F3F1007B1F3C4010E94E1
:1043900086200817190780F7E501CA0CDB1CCC152D
:1043A000DD0511F0F7FE09C084E98093BC00C70168
:1043B000CDB7DEB7EDE00C945C29FE018491B80125
:1043C0000E942D217C012196EACFB0E0A0E0EBEE27
:1043D000F1E20C943F29682E762E5A0169010E9461
:1043E0006E204C01C1E0D0E00431110558F0C5E069
:1043F000D0E00F3F100731F0C80164E170E00E9487
:10440000BA28EB01BE01862D0E94D5207C0197FFC2
:104410001DC00F3F1007B1F3C4010E94862008178A
:10442000190780F784E98093BC00C701CDB7DEB7D8
:10443000EEE00C945B29B80189910E942D217C014A
:10444000CC16DD0679F3F7FEF6CFECCFB801872D59
:104450000E942D217C01E501CA0CDB1CF1CF80916B
:10446000D5020895089508959B01BA019091FF0621
:104470009430E9F48F708093E9009FEF8091E80019
:10448000915085FD06C085ED8A95F1F700009111E8
:10449000F5CF8091E80085FF0AC050E040E0C901F7
:1044A0000E9427248091E8008E778093E800089589
:1044B00043E050E0BC0182E00E9434220895CF9393
:1044C000DF93EC0148E050E0BC0181E00E9434221F
:1044D00088E0FE01ADECB2E001900D928A95E1F723
:1044E000DF91CF9108958091FE06811109C00E944D
:1044F000B7250E9414268091E20084608093E20038
:1045000008951092FE0608950E94DF1F089560919D
:10451000FB0681E0611101C080E00E94D61F089572
:104520009091FF0681E0943009F080E06091FB06F5
:104530000E94DC1F089542E061EC81E00E94332577
:1045400042E261EC82E00E9433259091FF0681E017
:10455000943009F080E06091FB060E94CC1F089522
:1045600080910107833009F461C030F48130D1F1CA
:10457000823009F49EC008958A3009F48AC08B30D5
:1045800009F46FC0893009F050C080910007813272
:1045900009F04BC08091040790910507029708F03D
:1045A00044C08091E800877F8093E8008091E80014
:1045B00082FF37C09091F3008091F200029731F4AE
:1045C0008091F100813011F0863021F48091F1006A
:1045D0008093D5028091E8008B778093E8000E9459
:1045E000672523C080910007813AF9F48091E800A3
:1045F000877F8093E8008091040790910507892BBD
:1046000061F468E08DEC92E070E00E947624809185
:10461000E8008B778093E800089560E090E080E008
:10462000F3CF8091FF068111C1CF089580910007DB
:10463000813AD9F78091040790910507892BA9F752
:104640008091E800877F8093E8008091E80080FFF8
:10465000FCCF80912A018093F1008091E8008E7751
:10466000BCCF80910007813201F7809104079091BF
:104670000507892BD1F68091E800877F8093E800B9
:104680000E9467258091020780932A010E94880872
:10469000089580910007813241F68091E800877F7C
:1046A0008093E8000E946725809103078093D602DB
:1046B000089580910007813A09F0B7CF8091E80012
:1046C000877F8093E8008091E80080FFFCCF809195
:1046D000D602C1CF84B7877F84BF0FB6F894A89560
:1046E00080916000886180936000109260000FBE2E
:1046F00080E890E00FB6F894809361009093610099
:104700000FBE0E94E51F08950E94B7250E9414263F
:10471000E2EEF0E080818460808378940E949328A8
:10472000089580E291E00E94F61E08958091FF06B0
:10473000853031F48091FF06853019F00E946020A9
:1047400008950E9435208091FD06882399F30E94E8
:10475000F21F882379F30E9411240E948808EACF6F
:1047600008959A0140910607509107070E94B923C6
:104770000895492F55274330510519F168F4413008
:10478000510509F444C04230510509F445C090E098
:1047900080E050E040E025C04132510549F142320D
:1047A0005105A9F784E490E041EB57E061157105EC
:1047B000C1F082E390E04FE757E06130710589F086
:1047C000E6CF99278130910581F0009729F0029773
:1047D000F1F6ECEFF6E002C0EEE2F7E0849190E053
:1047E000AF01F901518340830895E0E1F7E0F6CF8E
:1047F00089E090E044E457E06115710591F389E0A8
:1048000090E04DE557E06130710559F3C0CF82E18A
:1048100090E04DE657E0E5CF8BE390E042E357E0D0
:10482000E0CF80E189BD82E189BD09B400FEFDCF02
:104830008091D8008F7D8093D8008091E0008260C5
:104840008093E0008091E00081FDFCCF0895AF925D
:10485000BF92CF92DF92FF920F931F93CF93DF937C
:104860006C01EB018A010E948625F82E811123C07C
:104870000115110539F0F80180819181C81BD90B10
:10488000C80ED91EB12CA12C2097A9F08091E80068
:1048900085FD22C08091E8008E778093E8000115A5
:1048A0001105A1F0F80180819181A80EB91EB18295
:1048B000A08285E0F82E8F2DDF91CF911F910F916F
:1048C000FF90DF90CF90BF90AF9008950E94862513
:1048D0008823D1F2F82EEFCFF60181916F018093FA
:1048E000F1002197FFEFAF1ABF0ACECFFC018091F4
:1048F00006079091070786179707A0F061157105C5
:1049000029F49091E8009E779093E80090E061157B
:10491000710551F4911108C08091E80082FF34C004
:1049200080E00895BC01F2CF8091FF068823C1F199
:104930008530C1F18091E80083FD30C08091E800AE
:1049400082FDEACF8091E80080FFE1CF8091F30003
:104950002091F200382F6115710519F028303105CA
:1049600058F091E02830310509F090E02091E800FE
:104970002E772093E800CBCF81918093F100615096
:1049800071092F5F3F4FE7CF8091FF06882341F0E9
:10499000853041F08091E80083FFBECF81E008952B
:1049A00082E0089583E00895FC01809106079091CC
:1049B000070786179707A0F06115710529F4809104
:1049C000E8008E778093E80090E06115710551F45E
:1049D000911108C08091E80082FF35C080E0089501
:1049E000BC01F2CF8091FF068823C9F18530C9F15F
:1049F0008091E80083FD31C08091E80082FDEACF1C
:104A00008091E80080FFE1CF8091F3002091F200D7
:104A1000382F6115710519F02830310558F091E0F3
:104A20002830310509F090E08091E8008E7780937E
:104A3000E800CBCF84918093F100319661507109E9
:104A40002F5F3F4FE6CF8091FF06882341F08530EE
:104A500041F08091E80083FFBDCF81E0089582E0BE
:104A6000089583E00895982F973028F08F708093F1
:104A7000E90081E008959093E900242F762F50E01B
:104A8000981731F07091EC002091ED005091F000FA
:104A900021FD02C09F5FE8CF3091EB003E7F309355
:104AA000EB003091ED003D7F3093ED003091EB0055
:104AB00031603093EB007093EC002093ED00509345
:104AC000F0002091EE0027FDE5CF80E00895809171
:104AD000000787FF13C08091E80082FF06C0809125
:104AE000E8008B778093E80004C08091FF06811175
:104AF000F2CF08958091FF068823D9F38091E800D2
:104B000080FFF8CF8091E8008E77ECCF2091E40011
:104B10003091E50095E6A9012091EC00822F81708B
:104B200020FF06C08091E80080FF06C080E0089565
:104B30002091E80022FD1AC08091FF06882389F0A9
:104B4000853089F08091EB0085FD0FC02091E40055
:104B50003091E50042175307F9F29150E1F684E0F5
:104B6000089582E0089583E0089581E008950E9409
:104B700026260E942E26E0EEF0E080818160808370
:104B8000E8EDF0E080818F77808319BCA7EDB0E07D
:104B90008C918E7F8C9380818F7E80831092FE0615
:104BA00008950F931F93CF93DF930E9426260E94B0
:104BB0002E26C8EDD0E088818F7788838881806831
:104BC000888388818F7D888319BC1092FF0610929C
:104BD000FB061092FD061092FC0600EE10E0F801B4
:104BE00080818B7F808388818160888342E060E060
:104BF00080E00E943325E1EEF0E080818E7F8083AB
:104C0000E2EEF0E080818160808380818860808333
:104C1000F80180818E7F8083888180618883DF9125
:104C2000CF911F910F910895E8EDF0E080818F7E84
:104C30008083E7EDF0E080818160808384E082BF43
:104C400081E08093FE060E94D1250895E8EDF0E012
:104C500080818E7F80831092E20008951092DA00A6
:104C60001092E10008951F920F920FB60F92112437
:104C70002F933F934F935F936F937F938F939F9364
:104C8000AF93BF93EF93FF938091E10082FF0BC03E
:104C90008091E20082FF07C08091E1008B7F8093CA
:104CA000E1000E9492288091DA0080FF19C0809173
:104CB000D80080FF15C08091DA008E7F8093DA00E3
:104CC0008091D90080FF96C080E189BD82E189BDD5
:104CD00009B400FEFDCF81E08093FF060E9473229D
:104CE0008091E10080FF19C08091E20080FF15C033
:104CF0008091E2008E7F8093E2008091E2008061EB
:104D00008093E2008091D80080628093D80019BC23
:104D100085E08093FF060E9487228091E10084FF56
:104D20002BC08091E20084FF27C080E189BD82E131
:104D300089BD89B5982F917080FFFBCF8091D800F5
:104D40008F7D8093D8008091E1008F7E8093E10079
:104D50008091E2008F7E8093E2008091E20081608A
:104D60008093E2008091FB06882309F449C084E027
:104D70008093FF060E9490228091E10083FF29C06A
:104D80008091E20083FF25C08091E100877F8093BE
:104D9000E10082E08093FF061092FB068091E10023
:104DA0008E7F8093E1008091E2008E7F8093E2000D
:104DB0008091E20080618093E20042E060E080E068
:104DC0000E9433258091F00088608093F0000E945B
:104DD0008422FF91EF91BF91AF919F918F917F912D
:104DE0006F915F914F913F912F910F900FBE0F9058
:104DF0001F90189519BC1092FF060E94812270CF57
:104E00008091E30087FD93E09093FF06B3CF1F925C
:104E10000F920FB60F9211242F933F934F935F93EE
:104E20006F937F938F939F93AF93BF93CF93DF93B2
:104E3000EF93FF93D091E900DF708091EC00C82FD1
:104E4000C17080FDC0E81092E9008091F000877F7A
:104E50008093F00078940E944B271092E900809193
:104E6000F00088608093F000CD2BCF70C093E900F4
:104E7000FF91EF91DF91CF91BF91AF919F918F9172
:104E80007F916F915F914F913F912F910F900FBE46
:104E90000F901F901895AAE2B0E0E1E5F7E20C94BC
:104EA0004A2980E097E02091F100FC012193CF0195
:104EB000F7E088309F07B9F70E94B0228091E800A0
:104EC00083FF1EC180910007909101079A3008F07E
:104ED00017C1E92FF0E0E651F54D0C940429803814
:104EE00099F0823809F00CC1809104078F708730E7
:104EF00008F006C18093E9008091EB0085FB8827CC
:104F000080F91092E90006C08091FC069091FD06A0
:104F1000911182609091E800977F9093E8008093D0
:104F2000F1001092F1008091E8008E77E5C08823AF
:104F300009F4D3C0823009F0E3C0809102078111E7
:104F4000D6C0809104078F702FEF280F263008F00D
:104F5000D7C08093E9002091EB0020FFC8C09330B8
:104F600031F48091EB0080628093EB00C0C090919F
:104F7000EB0090619093EB0021E030E001C0220F44
:104F80008A95EAF72093EA001092EA008091EB00FC
:104F90008860EACF8111B4C0109102071F77809119
:104FA000E3008078812B8093E3008091E800877F85
:104FB0008093E8000E9467258091E80080FFFCCF85
:104FC0008091E30080688093E30082E0111183E028
:104FD0008093FF0695C08058823008F091C0809180
:104FE0000207909103078C3D23E09207A1F583E02F
:104FF0008A838AE289834FB7F894DE01139620E012
:105000003EE051E2E32FF0E050935700E49120FF9F
:1050100003C0E295EF703F5FEF708E2F90E0EA30B3
:10502000C0F0C7968D939D932F5F243159F74FBFE2
:105030008091E800877F8093E8006AE270E0CE010B
:1050400001960E9476248091E8008B778093E80097
:1050500057C0C096E7CF6091040770910507AE0175
:105060004F5F5F4F0E94B123BC01892B09F448C0F8
:105070009091E800977F9093E80089819A810E943F
:10508000D424E1CF8038E1F58091E800877F8093D8
:10509000E8008091FB068093F10045CF811130C07C
:1050A00090910207923060F58091E800877F8093AD
:1050B000E8009093FB060E9467258091FB068823F9
:1050C00011F084E005C08091E30087FDFACF81E014
:1050D0008093FF060E949B2213C0809102078130BB
:1050E00079F481E0933009F080E08093FD0610921E
:1050F000E9008091E800877F8093E8000E9467259F
:105100008091E80083FF0AC08091E800877F809348
:10511000E8008091EB0080628093EB00AA96E3E0C8
:105120000C9466290895CF938091FF068823A1F0FF
:10513000C091E900CF709091EC00892F817090FDB3
:1051400080E8C82B1092E9008091E80083FD0E945E
:105150004B27CF70C093E900CF910895991B79E058
:1051600004C0991F961708F0961B881F7A95C9F7F7
:1051700080950895AA1BBB1B51E107C0AA1FBB1F46
:10518000A617B70710F0A61BB70B881F991F5A95D3
:10519000A9F780959095BC01CD01089597FB072E46
:1051A00016F4009407D077FD09D00E94BA2807FCB6
:1051B00005D03EF4909581959F4F08957095619527
:1051C0007F4F0895A1E21A2EAA1BBB1BFD010DC043
:1051D000AA1FBB1FEE1FFF1FA217B307E407F507A7
:1051E00020F0A21BB30BE40BF50B661F771F881F83
:1051F000991F1A9469F760957095809590959B0119
:10520000AC01BD01CF010895EE0FFF1F0590F49191
:10521000E02D09940E941229332312F48A1B9B0B60
:105220000C942329A29FB001B39FC001A39F700DCE
:10523000811D1124911DB29F700D811D1124911D9E
:1052400008950E941229B7FF0895821B930B0895B9
:105250000E941229A59F900DB49F900DA49F800DD0
:10526000911D11240895B7FF0C9428290E94282924
:10527000821B930B08952F923F924F925F926F92F1
:105280007F928F929F92AF92BF92CF92DF92EF92D6
:10529000FF920F931F93CF93DF93CDB7DEB7CA1B57
:1052A000DB0B0FB6F894DEBF0FBECDBF09942A8882
:1052B000398848885F846E847D848C849B84AA842A
:1052C000B984C884DF80EE80FD800C811B81AA81B7
:1052D000B981CE0FD11D0FB6F894DEBF0FBECDBF82
:1052E000ED010895002E083090F0982F872F762F2B
:1052F000652F542F432F322F22270850F4CF220F2F
:10530000331F441F551F661F771F881F991F0A955B
:10531000B2F7002D089597FD1094002E083098F0F4
:105320000850232F342F452F562F672F782F892F82
:10533000912DF4CF15949795879577956795579507
:105340004795379527950A95AAF71124002D0895BA
:105350008F929F92AF92BF92CF92DF92EF92FF9285
:10536000CF93DF93EC01688179818A819B816115FC
:1053700071058105910521F464E279ED8BE597E0F3
:105380002DE133EF41E050E00E947F2A49015A01AC
:105390009B01AC01A7EAB1E40E9428296B017C01C2
:1053A000ACEEB4EFA50194010E943629DC01CB01DB
:1053B0008C0D9D1DAE1DBF1DB7FF03C00197A10938
:1053C000B04888839983AA83BB839F77DF91CF916D
:1053D000FF90EF90DF90CF90BF90AF909F908F9015
:1053E00008950E94A829089580E091E00E94A829CC
:1053F0000895B0E0A0E08093000190930101A09394
:105400000201B09303010895FC014150504030F077
:1054100001900616D1F73197CF0108958827992773
:105420000895FB01DC0104C08D910190801921F4E5
:1054300041505040C8F7881B990B0895FB01DC01CF
:1054400002C001900D9241505040D8F70895F9994B
:10545000FECF92BD81BDF89A992780B50895A6E147
:10546000B0E044E050E00C94712AA8E1B0E042E0E2
:1054700050E00C94712ADC01A40FB51F415050403C
:1054800048F0CB01840F951F2E910E944C2A415069
:105490005040D0F70895262FF999FECF92BD81BDD7
:1054A000F89A019700B4021639F01FBA20BD0FB662
:1054B000F894FA9AF99A0FBE08950396272F0E943E
:1054C0004C2A0E944B2A252F0E944C2A242F0C94F0
:1054D0004C2A0196272F0E944C2A0C944B2ADC015F
:1054E000CB01FC01F999FECF06C0F2BDE1BDF89AEF
:1054F000319600B40D9241505040B8F70895052EF2
:1055000097FB1EF400940E94962A57FD07D00E9434
:10551000E22807FC03D04EF40C94962A509540954F
:10552000309521953F4F4F4F5F4F0895909580954F
:10553000709561957F4F8F4F9F4F0895F894FFCFDF
:105540008A068A06DA06DA063F07B906B906B906F8
:105550005B07CC07DB07DB075C1A631A6A1A6F1A52
:10556000741A791A7E1A831A881A8D1A921A971A3F
:105570009B1AA01AA31AA61AA91AAC1AAE1AB11A23
:10558000B31ACA1D3E1ED21D9C1DA01DD61DA41DF2
:10559000DA1DE61DB01D371EB41DEA1DB81DEE1D37
:1055A000161EBC1DF21D1D1EC21DF81D001EA81DCD
:1055B000DE1DAC1DE21DC61DFC1D0C1E261E351E6B
:1055C000961DCE1D451ECF1ED51EBE1EC91EDB1E3E
:1055D000E11EE71E6F279727802897278028CA2774
:0855E000EB27802842284E2829
:1055E800010000003E020101020004000404011948
:1055F8001A1B1C1D1E1F2021220021007F220007CC
:105608002F225F2233223222582201E200E900EAE7
:1056180000B500B600B700CD008301CC008A019226
:105628000194012102230224022502260227022ACC
:1056380002B300B4006F0070009F01CB019F02A06D
:1056480002818283E200E900EA00B500B600B700F3
:10565800CD008301CC008A0192019401210223022A
:1056680024022502260227022A02B300B4006F0092
:1056780070009F01CB019F02A002818283C69731EF
:1056880033353432360001020202020606060909E1
:10569800090909090F0F0F0F0F0F151515181919FB
:1056A8001919191919191919232425252525252505
:1056B800FB1C000810182028303838302820181013
:0256C8000800D8
:00000001FF
